:020000041000EA
:10100000382C00203110001000000000000000000B
:1010100000010100000000800448854600F08AF8C5
:101020000048004785380010C046C046382C0020D4
:101030000549064A30200A600431401EFBD10448AD
:10104000804704480047FEE70000002000BFFEE79D
:101050001F2000101910001030B50B46014600206B
:101060002022012409E00D46D5409D4205D31D46AE
:101070009540491B2546954040191546521E002DA6
:10108000F1DC30BD70B500242546002801DA0124CA
:101090004042002901DA01254942FFF7DDFFAC4259
:1010A00000D04042002C00D0494270BD10B50B4624
:1010B000044611461846FFF7E5FF03C410BD10B5FE
:1010C000431A934209D28318881803E0401E01781E
:1010D0005B1E1970521EF9D210BD03460B439B07CD
:1010E00003D009E008C9121F08C0042AFAD203E09D
:1010F0000B780370401C491C521EF9D210BDD2B2AD
:1011000001E00270401C491EFBD270470022F6E746
:1011100010B513460A4604461946FFF7F0FF20466D
:1011200010BD034603220870000A491C521EFAD55E
:1011300018467047064C0125064E05E0E36807CCCB
:101140002B430C3C98471034B442F7D3FFF768FFA9
:10115000344900105449001070B58C180578401CB3
:101160006B075B0F01D10378401C2A1106D102786E
:10117000401C03E006780E70401C491C5B1EF9D130
:101180002B0705D40023521E0DD40B70491CFAE71F
:101190000378401CCB1A921C03E01D780D70491C8B
:1011A0005B1C521EF9D5A142D8D3002070BDFFFFB1
:1011B000F8B50446007E02286FD1E06800F074FBA9
:1011C0000546E168A06800234E6807781946394350
:1011D00047781A463F0239438778C0783F0439433D
:1011E00000060143304601F0E9FDE168A0680022F5
:1011F0004E68077811463943477801233F02394347
:101200008778C0783F04394300060143304601F037
:10121000D5FDE0686168406801F09EFDE068052248
:1012200041682068D201406889180068086000267B
:101230002068B1004058E16842794B680179890023
:10124000C918FF3181310B68012797403B430B6080
:101250000068002802D000F057F80543761C3606D7
:10126000360EE5D0E068617E406801F0B1FD21698D
:10127000FF230878496840B200280FDB86081F4A20
:10128000B600B21816688007C00E83408907090EA1
:101290009E4381400E43166011E02DE00207120FBD
:1012A000083A9608164AB600B218D6698007C00EEA
:1012B00083408907090E9E4381400E43D661206911
:1012C000007840B2002805DBC106C90E0120884025
:1012D0000C4908606069002800D08047A07E002883
:1012E00009D0E0684068FF30FF30023041680122D9
:1012F0005202114341602576207EF8BD00E400E0F3
:1013000000ED00E000E100E010B504464068007820
:10131000002806D12068002800D08047616801209D
:101320000870002010BD02780021002A01D101229E
:1013300002700846704710B500F03EF810BDF0B5D9
:10134000002820D0C568027C294643689140194096
:10135000D14041600468227C637C9A420DD0CB0767
:10136000DB0F0122266805E04908CF075B00FF0F6D
:101370003B43521CB242F7D343604168E26851409C
:101380002940416000E000210846F0BD002811D04E
:10139000016801220B785B1E9A40531E1343C36001
:1013A000826000220261487C184000D0012048740D
:1013B0000020704701207047F7B5046883B0A26829
:1013C0004260036945690195856900229E46009542
:1013D00041E00D78AC46257C0295012D15D027788B
:1013E0001E46083E4568BE192F46F74065466F40C9
:1013F000FDB2009E7543019EAD192668082E0AD0E5
:10140000102E0AD0202E0DD016E046686546DE402C
:101410006E40F5B2EDE72A780EE06A782D78120278
:101420002A4309E0AA78EE781204360632436E7831
:101430002D7836022E433243029D012D12D077467D
:101440000825ED1B4668C768AE4056407546AF405C
:101450003E40491C4660059D6D1E05956D1CB8D12A
:1014600006B0F0BD4568C7682E0A56409F40EFE7BA
:101470000A4610B501460648FFF75DFF0448FFF72E
:101480005EFF401C034980B2884200D1002010BD9D
:1014900044040020FFFF000030B503460020024650
:1014A000044D03E09C5C4440285D521C8A42F9DBF9
:1014B00030BD00009815002070B572B6174D00229F
:1014C000696928696A612A6162B6002924D0FFF738
:1014D000C3FD124924310A88824201DA002070BD1E
:1014E0001922920201246300CB5A834210DA62006F
:1014F0005318403B8A5ADB8F801A991A0522120230
:101500005043FFF7BFFD052109024C43221A02E0B8
:10151000641C152CE7DBAA61A86970BDA00200203D
:1015200003494A694B69024083434B611046704747
:101530007402002008B5054A12691209101A0090B9
:10154000884201D3022008BD002008BD740200209B
:10155000F0B5344C3449254620783C3D2870C8719C
:10156000A178FF20FF2902D0E178E970A0702179ED
:10157000FF2908D061796971A179A971E179E971CF
:10158000217A2972207160780027284E55283AD098
:10159000B7700020062141430A19537AFF2B0BD064
:1015A00049194B725B079B0F012B34D0022B35D0AE
:1015B000032B01D092898A81401C0228EADB607DDE
:1015C000FF2802D06875208B2883E07EFF2818D082
:1015D000E876002041000A194919537F4B77127FA2
:1015E000401C0A770728F5DB002041000A19203249
:1015F00049192031D37ACB72927A401C8A7207281B
:10160000F3DB3770F0BDB0780028C2D10120084963
:10161000B0700870BDE7927B8A73CDE752894A812A
:10162000CAE70000E4160020A0010020D801002035
:101630009C020020F0B5324800240546047046356F
:101640002878FF272F4EFF2801D030702F70A87800
:10165000FF280FD0002081004A198919D378CB7058
:1016600093798B7153794B711279401C0A7103285D
:10167000F1DBAF7000202A18D17BFF2902D033188C
:10168000D973D773401C0328F5DB1D486630817C75
:101690001C4820308174A87CFF2801D0B074AF743E
:1016A000E87CFF2801D0F074EF740020810042181C
:1016B00051190B7D921913758B7D4C7D1B022343B1
:1016C00053751B0A93750B7E1376CB7DD375820001
:1016D0000D4C0023A3521219D3709370401C0F7548
:1016E0000628E3DB064900203E310B54401C082845
:1016F000FBDB7078002801D06B707370F0BD0000C8
:10170000F40100209C180020D41A002070B5002598
:101710002C463B48FFF707FE002802D1394800F06D
:101720009EF8394A394E0021491C9142FCD3354B71
:101730000A2D12D20A2C0ED21A68197B526ACA409C
:10174000D107C90F03D06D1CEDB20024F0E7641C73
:10175000E4B20025EEE70A2D01D301213170002803
:101760004DD12B4800F07BF8002848D12948FFF7DD
:101770001FFD002843D13078002801D0264800E022
:10178000264800F000F9002839D1254800F0FBF880
:10179000002834D1234800F0F6F800282FD1224841
:1017A00000F0F1F800282AD1204800F03EFD002882
:1017B00025D11F4800F053F8002820D11D4800F023
:1017C0004EF800281BD11C4800F049F8002816D11B
:1017D0001A4800F044F8002811D1194800F0C9F85F
:1017E00000280CD11748FFF7D1FD002807D1307829
:1017F000002801D0144800E0144800F030F870BD13
:101800002D03002044460010A08601007502002030
:101810003446001010030020AC0400208404002093
:10182000D4040020FC040020240500204C050020E6
:1018300054460010644600107446001084460010A0
:10184000D446001044040020A44600109446001022
:101850000168007B496AC140C807C00F704710B5D6
:101860000446017B0068221D00F0C8FF627B217BDB
:10187000206800F0FBFF002010BD0168007B012202
:1018800082404A6070470168007B01221204824056
:101890004A60704703490878401C8006800E087033
:1018A000704700008001002010B50446007C02282B
:1018B00016D12168606801F05DFAA068016C026CC5
:1018C00003239B029A4311430122D2031143016473
:1018D000607C012802D1606801F08AFA002020743F
:1018E000207C10BD10B50446407B002809D1217B27
:1018F000A06800F05FFEFF21A0680131C1600120F7
:101900006073002010BDFFFF10B5094C0021C8B264
:10191000002243000006C010400F4340521CD8B2C2
:10192000082AF6DB6054491CFF29F0DD10BD0000D9
:10193000981500200149002088607047740200203B
:10194000014880687047000074020020014911209E
:10195000886070477402002010B504460A21FFF722
:101960007BFB0A214143611A052900D3401C80B248
:1019700010BD10B50024006800F084FF012800D0DD
:101980000124204610BD70B50446007F01250028C3
:1019900002D00225284670BD2068C06CFFF7A2FF68
:1019A000002802D000202077F4E72068816BA0682F
:1019B00000F010FE2068A168408848632068A16894
:1019C0008088C8632068816B0968890103D5416BF1
:1019D000606800F00BFF60682169016161686069FF
:1019E0000861204600F05BF8204600F0CFF8206840
:1019F0003C21095C012905D14421095C826C006C01
:101A000000F0FCFE26680125B16BF06C09790068D6
:101A10000A07120F29469140FFF71EFB2062257727
:101A2000307800250128B5D1204600F01FF8054682
:101A3000B0E7FFFF70B50D460446217F0120002965
:101A400011D009498D420ED8A668306B4A1B80B26E
:101A5000401C5043FFF700FB80B2F06361682069CF
:101A600008610020656270BD1027000010B5027F7C
:101A70000121012A01D0032A0FD1417B01231C46F9
:101A800042688C40D460016820310978002901D176
:101A90008168CB60022101770021084610BD10B596
:101AA0000446006801214269A06800F0ABFD20688F
:101AB00002218269A06800F0A5FD20680321C269A7
:101AC000A06800F09FFD206820300178002903D035
:101AD0004278A06800F04FFE20682030817800290D
:101AE00003D0C278A06800F05CFE20682030017945
:101AF000002902D0A06800F0E4FD20682030417980
:101B0000002902D0A06800F0EBFD20682030817928
:101B1000002902D0A06800F0CCFD20682030C179F7
:101B2000002902D0A06800F0E3FD20682030017A8F
:101B3000002904D0837A427AA06800F0E1FD206891
:101B40002030817B03290FD1C27B017CA06800F08B
:101B500036FE20682030407B012805D1A06841690D
:101B60000122520411434161206801462031CA7AA2
:101B7000022A0AD1097B032907D1C2698169A068B9
:101B800000F065FDA06800F005FE10BD10B504462C
:101B900000688179012908D1427B0021A06800F00A
:101BA000C8FD0021A06800F094FD2068C1790129DA
:101BB00008D1827B0221A06800F0BBFD0221A06851
:101BC00000F087FD2068017A012908D1C27B03213A
:101BD000A06800F0AEFD0321A06800F07AFD206847
:101BE000417A012907D1027CA06800F0A2FD012101
:101BF000A06800F06EFD2068817A012908D1427C3E
:101C00000821A06800F095FD0821A06800F061FDA2
:101C10002068C17A012908D1827C0921A06800F0DE
:101C200088FD0921A06800F054FD2068017B01298E
:101C300008D1C27C0A21A06800F07BFD0A21A068BF
:101C400000F047FD10BDFFFFF8B5514F0546007885
:101C5000B979884201D10120F8BDB8710F213971DD
:101C6000C00838D03E212846FFF716FCB8703E2148
:101C7000495D814273D12878464E44074448640F39
:101C800020300179C27809021143491CC170090A48
:101C90000171002C0FD0012C1ED0022C22D0032C5D
:101CA00032D0042C5CD0052C5DD0062C5FD0072CE4
:101CB00061D00520F8BD3078002864D16878FF280D
:101CC00002D035483C220FE0A878C1081F295AD11C
:101CD0004007400F387156E03078002853D12F4824
:101CE000372201E02E4810222E49294B0978203353
:101CF000D971002802D0691CFFF7E1F90120002CFE
:101D00003DD0012C3ED03EE06C1C2D7F264EFF2D99
:101D100012DA072D00DD072523486A002146174601
:101D20001C310D30FFF7CBF91F4821463A462A31C6
:101D30001B30FFF7C4F93573607AFF2805D02146C0
:101D4000062209311848FFF7BAF9E07BFF281AD0BC
:101D5000214606220F31B01DFFF7B1F913E014E060
:101D600012483C22C5E711483C303C22C1E70F48ED
:101D700078303C22BDE70D48B4303C22B9E70C492D
:101D8000087000E030700020F8BD0220F8BD0000AF
:101D900080010020F4010020E41600203A02002017
:101DA0009C170020A816002020170020AC17002048
:101DB000D8010020FEB534480190344800903749DE
:101DC0000120087036492F4A0870314F314E324D8C
:101DD0000024AE211046FFF74BFB01462948A030F6
:101DE000427C037C10021843814222D12548254FB2
:101DF0007730244E234D00903F1D87364035EE212D
:101E00000198FFF735FB1F4920394A7C0B7C1102F2
:101E10001943884202D1F022019905E0F0212148BE
:101E2000FFF774F9204924221E48FFF748F90124DE
:101E300008E0F0211B48FFF769F924221A491948E4
:101E4000FFF73DF9102219480099FFF738F93C22B5
:101E500039461748FFF733F93C2215491548FFF773
:101E60002EF9292231461448FFF729F9372229464D
:101E70001248FFF724F9372210491148FFF71FF9DC
:101E80002046FEBD004F0010004E001050450010CF
:101E9000DD440010B444001019450010D8010020A2
:101EA000F4010020AC170020A04500109C17002072
:101EB000A8160020E4160020201700209C180020FF
:101EC0003A02002010B5034841883120800101F01A
:101ED0002BFE10BD004F001070B5102827DA144CEF
:101EE0000125A688ED034E43711966882488564360
:101EF0005C4363190F4C7219090212021B02247809
:101F0000090E120E1B0E002C03D00B4C615CA25C60
:101F1000E35C44000019094C0019027041708370A1
:101F2000034811433838827819438918817070BD8D
:101F30002C0200209D020020D3180020D41900207C
:101F400010B51D4C206910302061A068401CA060B5
:101F5000A069401CA0611948FFF77AFC01460220E5
:101F600002F07AF86078002815480ED0FFF770FC70
:101F70000146002002F070F81248FFF769FC0146A4
:101F8000012002F069F810480DE0FFF761FC0146FE
:101F9000002002F061F80C48FFF75AFC01460120CE
:101FA00002F05AF80748FFF753FC0146032002F0FD
:101FB00053F800F03BF810BD7402002034460010C6
:101FC0006446001084460010744600100EB50448A4
:101FD0006B4607C807C3684600F096FC0EBD0000BC
:101FE0002846001010B50949086809680004000E69
:101FF000074CC9B2002806D0000241180548FFF777
:102000002BF8400000E00448206010BD00030140B0
:10201000FC3F0020000024F40048E801704710B5A0
:10202000FFF7FCFFFFF7D2FF10BDFFFFF8B52D4C07
:102030002D4821687D22491C2160D200407800256E
:102040000126914226D32146203125600A7A012AB1
:1020500006D122461C328CCA10348CC40D721C3C32
:10206000E66065602672A169002909D0002801D0C8
:102070001E4800E01E48FFF700FCE6602672F8BD2F
:10208000002801D0194800E01948FFF7FCFBE56083
:102090002572F8BDA26961689142FAD2E168491CD3
:1020A000E160227A012A06D062699142F1D30028C8
:1020B00011D00E4810E022699142EAD3002801D0E5
:1020C0000A4800E00A48FFF7DEFB2572E560606819
:1020D000401C6060F8BD0648FFF7CFFB2672E56044
:1020E000F8BD0000EC1A002074020020A446001085
:1020F00094460010F8B5124D01262C462034217A62
:10210000002817D000291AD17D21C90048430D4964
:10211000FEF7A2FF410068627D200F46C000FEF777
:102120009BFFE86139460848FEF796FFFFF714FC6D
:10213000286203E0002902D1002068622672F8BDFF
:10214000EC1A0020307500001027000070B5244EF6
:102150000025224A0E21304600F050FB1F49092479
:10216000E4060831204600F087FCE069C008C000A2
:10217000E061012306220021204600F0C9FD3F2333
:1021800006220021204600F0E9FC206C0009000135
:10219000801C2064114A0F21083A304600F02EFBC3
:1021A00000221021204600F0A9FD01221021204626
:1021B00000F0ECFC01221321204600F0E7FC094965
:1021C0000868FF221204904303229205104308601E
:1021D000054930150860284670BD0000E848001029
:1021E0000000044008E400E000E100E010B582686F
:1021F0000024547682685460416820318A79002A2C
:1022000002D00424204610BD097A0068002907D0B6
:1022100003214907FF300130C2688A43C260F1E7F9
:102220000321890300F010FCECE740684068004798
:1022300010B503465C6804202034A479002C02D138
:10224000184600F001F810BD70B504466568042317
:102250002035AD798068002D34D1457E0223002DD4
:1022600030D100292DD0002A2BD0026101234160FA
:1022700043760021416160682030007A00282068A0
:1022800018D09903FF300130816160682030017AF5
:102290008B409A4201D2521E00E05A1E206800F084
:1022A00080FC206803225207FF300130C1681143CF
:1022B000C16004E00321026C89030A430264002325
:1022C00000E00323184670BD10B503465C68042087
:1022D00020346479022C02D1184600F058F810BD61
:1022E00070B505468468406800262030007A0028D2
:1022F0000CD12FE0626921698A420ED200F0B0FB56
:102300006269616888546069401C6061FF212868C7
:10231000153109580907C90FECD06169206981425C
:1023200010D12868FF30013040690007C00F09D084
:102330006676286803214907FF300130C2688A4366
:10234000C2601EE06661286801218903FF30013008
:10235000816170BD21696069884208D2286800F0F7
:102360007FFB6269616888546069401C6061216913
:102370008842EED1667628680321026C89038A437D
:102380000264686880680028E3D0804770BDF8B5B3
:102390000446032016460F46002936D0002E34D0BE
:1023A000A16802200A7E002A2FD1012008766068E9
:1023B0002030C079002805D020680121C903FF30F2
:1023C0000130816100250FE02030C079002806D05F
:1023D0002068FF3001304169C904C90FFBD1795D24
:1023E000206800F08DFB6D1C6068B542ECD3203096
:1023F000C079002806D02068FF3001304169090506
:10240000C90FFBD0A26800201076F8BD10B50248B5
:10241000FFF766FF10BD00004C05002010B5124804
:10242000124B017812480029807C08D0DC214143FE
:1024300019800102091A5980A721484312E0FF219F
:102440001C3141430B4A0C46914200DD1146198074
:102450002146944200DD11465980A0214843904214
:1024600000DD1046988010BD9D0200202C02002047
:10247000BC180020FFFF000070B51C4CA07C254656
:10248000F03D282804D241004018401901F006FB15
:10249000E07C282804D241004018401901F0FEFADF
:1024A0001349002001F040FF1249012001F03CFFD8
:1024B0001149022001F038FF2078002815D1502161
:1024C0000E48FEF723FE002000F056FE012000F02B
:1024D00053FE022000F050FE032000F04DFE0420C9
:1024E00000F04AFE052000F047FE70BD9C18002059
:1024F000A9020020AC020020A6020020341A00200D
:1025000010B5184C40212046FEF700FE1649122057
:102510000870082048701548154A807812784000E5
:102520001043144A1278D20010430A46203A127B14
:1025300012011043887010482B3100680009FEF723
:10254000F0FD0E490848CA782030C27304221030CA
:10255000491DFEF7B4FD36220349601CFEF7AFFDAE
:1025600010BD000058150020A0010020E00100204F
:10257000A00200209C02002084020020A816002057
:102580000548006881B205480269891801614169FE
:10259000491C41617047000000030348A00200206D
:1025A000034910B5884202D1042000F021FA10BD81
:1025B0000000044870B50D460446FFF7F1FFFF2008
:1025C0000130E0602068032189038843A9030143A7
:1025D000216070BD0A6842618A889204D20F120598
:1025E00042600A791207120F42628A881205120F9E
:1025F00002628A88D204D20F826109790906090F22
:10260000C1627047F0B50668491E4C002346032797
:1026100010333D469D40AE4355789D4035430B46B3
:10262000163301269E40B54396789E4023461933C3
:102630009F40D4782E439C4089000F23BE438B409B
:10264000127834439C438A4022430260F0BD30B587
:1026500003680324A404A3434C78A4041C43032369
:102660001B059C4353781B0523430124E405A34326
:102670008C78E4051C4301231B069C4393781D06BC
:1026800025430323DB069D43CB780324DB062B4342
:102690006407A343D478097864071C43F0239C4360
:1026A00009011B0112782143994312020A43026077
:1026B00030BD426803239B039A4389031143416061
:1026C0007047426803239B029A4389021143416089
:1026D00070478030426A01238B401A434262704740
:1026E000426803231B029A43090211434160704769
:1026F000426803231B039A43090311434160704757
:1027000070B5446945680326B604B5438904294376
:10271000416001210906012A06D08C430121C90527
:10272000002B03D00C4302E00C43F7E78C434461D9
:1027300070BD10B58030846A0B0000F06FFB0A0694
:10274000060909141414140C1014032100230DE0BD
:102750000C2102230AE003210902082306E00321D9
:1027600089020A2302E0032109030C238C439A40C7
:102770002243826210BD43689B089B000B43436069
:10278000416901239B02012A02D0994341617047AC
:102790001943FBE741680122120491431143416050
:1027A000704710B543680C24A34389001943416066
:1027B0004369A1018B4311021943416110BD10B55A
:1027C000436801246404A343234343604369240111
:1027D000002A01D0234300E0A343012292050129EE
:1027E00002D09343436110BD1343FBE702680B0C17
:1027F0009A4389B2114301607047FFFFF0B58B081F
:102800009B001C1825698B07DB0EF8269E40B543FC
:102810009C462561436F4E000325B540AB4343679B
:10282000CB089B001B181E6C4D07ED0E0427AF4014
:10283000BE431E645678AE401D6C2E431E640A4B88
:10284000984204D1036E01258D40AB430366137893
:102850001B0602D553688B40436010786146884060
:10286000216908432061F0BD0002044010B5436FA8
:10287000490003248C40A3434367436F8A401343BA
:10288000436710BDF8B505460126022000F02CF87C
:10289000144CA08908221043A08100214800285A26
:1028A0002080A088C007C00FFBD0491C89B2052931
:1028B000F4D3A0899043A08120886A4610802088A4
:1028C0001080208810802088118801401180A87A0B
:1028D00000F00AF8A0894007800F00D1002630469A
:1028E000F8BD00000000024803498A8906239A4384
:1028F000400002438A817047000002480148006896
:1029000070470000FC3F002010B5024600F092F82E
:1029100051689068084307490B680F242404A343B7
:10292000184308600449C32048621178507800F0C9
:102930000FF810BD00030140000001400349896801
:10294000014201D001207047002070470003014080
:10295000F8B50D46034600F06DF8204C20680004E1
:10296000020E20681E49084028431E4D284320605F
:1029700020684000FCD41C489A420DD910E0002A7F
:1029800000D10122216892000140160231432943FF
:10299000216021684900FCD491009942EFD30DE0F9
:1029A0009E0009E02168920801401702394329433B
:1029B000216021684900FCD49642F3D3216801408C
:1029C000180201432943216020684000FCD40749D4
:1029D000C3204862FFF706FBF8BD0000000301407A
:1029E00000FF0FC00000F03FFF000FC000000140DB
:1029F00000B5024600F01EF805490B6913430B6150
:102A000008684000FCD40349C320486200BD0000B0
:102A100000030140000001400148008870470000A9
:102A20004010014002488188012211438180704793
:102A3000201001400348C0214162416A4907FCD48B
:102A40007047000000000140026C7F239B020B4096
:102A50009A430264C26BF82319408A43C2637047E9
:102A6000C11DF931CA685201520F02D0C86980B243
:102A70007047406DFBE7FFFF70B50C46054610261A
:102A800000F052F8207A002800D00646207921680C
:102A900000283246284602D000F0E2F801E000F0BB
:102AA00093F8E079720812024000FF32801E013272
:102AB0001043032200211204C943401C1043E86361
:102AC00060790E4A000680186863A07901231B0410
:102AD000002805D06A6B0004C01A02436A6305E04F
:102AE000686B62791204D21A1043686305200002F1
:102AF000A863E9646089286470BD0000020100FFDA
:102B0000FF22093212585201520F02D0FF30813099
:102B100008E08023826B1A40802AFBD001225203F6
:102B2000C26480300160704710B504460920C006B9
:102B3000844202D00748844202D1074800F0FCF8E2
:102B40000320E060E068C007FCD0206C00090001B1
:102B5000206410BD000200480800004830B5FF3076
:102B60000130C46807252D06AC43C4601B020B432B
:102B700011060B43C168044A11400B4301210907A8
:102B80000B43C36030BD0000C0C0FFEF10B5FF3085
:102B90000130C36807248C40A3438A401343C360B9
:102BA00010BD10B5FF300130C36807242406A343CD
:102BB000C360C3683F2424021202A34313430906DF
:102BC0000B43C36010BDFFFFF7B582B00C4664290C
:102BD0003FD3049800283CD0FFF790FE6421FEF715
:102BE0003BFA019064212046FEF736FA012704994A
:102BF000194D48433E462C46009001980099604389
:102C0000FEF72AFA810A80050122800D9202914284
:102C100004D2A84202D205460E462746641EECD1D5
:102C20000120C003074302980761029840690B49DD
:102C3000084004998A0201218902511A084301229D
:102C400031041204891A084302994861002005B032
:102C5000F0BD0120FBE70000FF030000EF8000FC57
:102C6000F7B582B01646FFF749FE03990125714377
:102C700000900F4688423BDDFEF704FA04461D48EB
:102C8000844204D339466D1C69430098F4E7214619
:102C9000714369430098FEF7DFF9611C07467143F1
:102CA00069430098FEF7D8F90399081AC91B002850
:102CB00000DA4042002900DA4942884200DA641C06
:102CC00001218902081B0A011043029A106102982F
:102CD0004069094A1040B202511A084301222904EE
:102CE0001204891A084302994861002005B0F0BD1A
:102CF0000120FBE7FF030000EF8000FC10B58369B3
:102D000007248C40A3438A401343836110BDFFFF17
:102D100030B5FF300130846807252D06AC43846050
:102D20001B020B4311060B438168024A11400B43FF
:102D3000836030BDC0C0FFF8064910B5884207D196
:102D40000820FFF755FE0820FFF7F8FD0028FAD10C
:102D500010BD000008000048054B4A68FF301A43C8
:102D6000FF300230026089680122114341607047E0
:102D70000080800070B505460C460120FFF738FE44
:102D8000206928602846803061680162A16841623C
:102D90000521C9016918E068086006490868012230
:102DA000D2031043D2109043086003490120086009
:102DB00070BD00004040034800050140034A114037
:102DC0009A00101880300162704700001F07000051
:102DD000042900D3091FFF300130026C0F231B04AC
:102DE0009A430264026C09040A4302647047FFFFBD
:102DF000803001680122D20711430160064800E0DB
:102E000000BF0168090F0329FAD100E000BF016883
:102E1000090F0329FAD070474040034830B4744684
:102E2000641E2578641CAB4200D21D46635D5B00C6
:102E3000E31830BC1847FFFF8307FF22DB0E9A40E0
:102E40008907090E9940002808DB830809489B0080
:102E50001818036893430B43036070470007000F83
:102E60000838830804489B001818C36993430B4330
:102E7000C361704700E400E000ED00E002E008C834
:102E8000121F08C1002AFAD170477047002001E0E4
:102E900001C1121F002AFBD17047FFFFF8B58C4615
:102EA0002B4984000B5972B602012A4DA9580029FA
:102EB00001D0012700E00027264D0026AE5062B663
:102EC0002549244D4035002F28D00E542149511852
:102ED0008A686146514302280FD02048FEF7BCF8AB
:102EE00029591F4A914217D0401AD203904202DB5F
:102EF0005242904203DD10460DE01A48EEE70028EA
:102F000009D0C20F431C5843C3175B0C1818C013D9
:102F1000002A00D04042081828510CE00A5C002A20
:102F200008D11A78032A02D15A79002A02D0012244
:102F30000A5400E02E5128597F30C117090E081895
:102F40000002010C084800594171090A8171F8BD5D
:102F5000D04500104C170020E001002047E194EE1E
:102F6000FFFFFF7F0DE5D9F0A4440010F8B57649C6
:102F70000120764E086070890027002807D0FF38AE
:102F8000401F14D07D2826D077813781D9E0FEF705
:102F9000BBFC6E482030C179142901D21421C171C3
:102FA000FF20053070816A4800680009F061012047
:102FB000FEF7B6FA04463221F069FEF7BBFA044385
:102FC0002004000C308138D03770777061493F227F
:102FD0006148FFF72DF930787178884274D08A0102
:102FE0005C48491C10188906890E70617170FEF7E3
:102FF0002BFEF060002800D00120F0703079574D92
:1030000000281CD001281DD002281FD0032820D062
:10301000042845D0052846D0062849D007284CD09A
:10302000FFF76EFA37617079317C01430830000692
:103030002970000E707148D049E00420F8BD3C2290
:10304000474901E047493722681C3AE010224649C7
:10305000FAE76C1C3C224249681CFEF730F84348F2
:103060000622007BE076204640490930FEF727F82B
:103070003E4920460622891D0F30FEF720F83B48C6
:103080003A49007B0D31420020461C30FEF717F80C
:1030900036483649007B1B31420020462A3010E07A
:1030A00030223349D0E732493C223C31681C08E0E9
:1030B0002F493C227831681C03E02D493C22B43171
:1030C000681CFDF7FCFFAEE717E0082070713E2199
:1030D0002248FEF7E1F921493F2220318877203943
:1030E0001D48FFF7F1F830783F228101194809188F
:1030F0001948FFF79DF8FEF729FC17480068FF30D4
:10310000013040691B49000C4006400E14D0B269E2
:10311000904202D00F60B06110E0086803280DD91A
:103120000D48FFF763F830783F22810109480918FC
:103130000948FFF77DF801E0B7610F60FF2082309A
:1031400070810220F8BD000098020020800100205C
:1031500084020020580500204C050020581500204E
:10316000A81600209C1800209C1700202017002083
:10317000AC1700208C020020FEB50546800078497F
:10318000281844187749277DA80046181434002FC2
:1031900057D001E05038207120795028FAD801E04A
:1031A0005038E070E0785028FAD8B8094ED0681E40
:1031B00042076D48520F805C002842D03088401C86
:1031C00080B23080A278637811021943884239D3E3
:1031D0002079410040180090E07841004418B8067A
:1031E000800E401C4100401801900098844202DD8E
:1031F0002046009C009078065C4F07D55A48391944
:1032000003222B38FDF75BFFE41C12E00098032239
:10321000391855482B38FDF752FF0098C01E009012
:1032200007E05149381903222B39FDF748FF01986F
:10323000241800988442F4DD4B49012048550020B1
:103240003080FEBD484900204855FEBD7807C00FBC
:103250000090A378607832881B020343D018308036
:10326000002041493CE040480121415530888A0313
:10327000801A3080F84380070ED0B807800F0228EC
:1032800032D001283A4848D0405D00282FD021464E
:10329000009800F0FDFC2EE035482146405D0028F6
:1032A000009802D000F0F4FC01E000F0B5FC2079B9
:1032B000E178401AC0B2F90601D5401EC0B2B90685
:1032C00001D5401CC0B2B178491C49B2B1708142ED
:1032D00011DB00202649B070485D002802D0002094
:1032E000485508E00120FBE72149002048552146C8
:1032F000009800F091FC31881E488142B3D838070D
:10330000A3D58804010E1A48164B405DA03B1D460C
:103310005035002812D0207905E04155B7E71954FF
:10332000421E2A54401EE2788242F8DB00980028B0
:103330008BD1D0B219542079E1780FE0E07803E026
:103340001954421C2A54401C22798242F8DC00980D
:103350000028EDD1D0B21954E07821796854FEBD2F
:103360009C180020D41A002032020020AC17002044
:10337000FE010020FF3F0000F8B5AA490820AA4C32
:103380000860E088FF22A532FF26811A9536A74DF6
:1033900090427DD012DC0146FF399539B0425BD0B6
:1033A00007DC00281AD0FF388B3822D0052811D12D
:1033B00035E0052967D00B290CD186E0102968D0AB
:1033C00004DC052966D00B2904D1C8E015297DD07D
:1033D00038291CD00020E080A08020E12868000966
:1033E000E06000F035F9FF208B30E08028680009AC
:1033F00020610820FEF794F80746FF21F531206987
:10340000FEF798F807433804000CA0807DD02078A0
:10341000002801D0FEF79CF8FF209030E0800820C3
:10342000FEF77EF80746FA21E068FEF783F80743C7
:103430003804000CA080E9D028680009E0606078BA
:10344000002801D0401E607004210020FFF726FDF7
:10345000E6802868000920610820FEF761F806462A
:1034600014212069FEF766F806433004000CA080A2
:10347000CCD004210120FFF711FDFF209A30E0801D
:103480002868000920610820FEF74AF8064602E095
:1034900034E07CE04BE014212069FEF74BF8064352
:1034A0003004000CA08030D008210220FFF7F6FC89
:1034B0005F48017FC27E08021043FEF71BFEFF201B
:1034C000A030E08028680009206100E075E0082055
:1034D000FEF726F8064614212069FEF72BF806436E
:1034E0003004000CA08010D004210320FFF7D6FC8C
:1034F000FF20A530E0802868000920610820FEF741
:103500000FF806466421206900E077E0FEF712F824
:1035100006433004000CA08071D04649002000F022
:10352000F7FCFF20AA30E08028680009206108200D
:10353000FDF7F6FF064614212069FDF7FBFF064361
:103540003004000CA0805AD03A4901200E3100F01E
:10355000DFFCFF20B030E0802868000920610820EF
:10356000FDF7DEFF064614212069FDF7E3FF064361
:103570003004000CA08042D02E490320693100F0B5
:10358000C7FCFF20B530E0802868000920610820D2
:10359000FDF7C6FF064614212069FDF7CBFF064361
:1035A0003004000CA0802AD0022000F021FDFF2072
:1035B000BA30E0802868000920610820FDF7B0FFDC
:1035C000054614212069FDF7B5FF05432804000CCA
:1035D000A08014D0174D18482C3DA968FEF72AFA90
:1035E00016482968007800280BD01548FEF722FA03
:1035F0001448E968FEF71EFA69680AE0FFE704204C
:10360000F8BD1148FEF716FA0E486968FEF712FA7F
:10361000E9680E48FEF70EFAFF20DD30E080022058
:10362000F8BD000098020020D8010020840200208C
:10363000A0010020C41600202405002075020020EF
:10364000AC040020D404002084040020FC040020EA
:1036500030B500200849094A7D23094C1B0185002B
:1036600051514500401C63530428F8DB03491420E2
:10367000E439087030BD0000FFFFFF7F8C17002089
:10368000EC01002030B5FF2304780D789B1A5C43D1
:1036900055436419E5172D0E2C1924120470447833
:1036A0004D785C4355436419E5172D0E2C192412EF
:1036B0004470847889785C4351436118CA17120EAC
:1036C00051180912817030BDF8B54E4902204E4F95
:1036D0000860F888002808D04C4940180CD04E28C3
:1036E00041D00020F880B88089E048484042F88006
:1036F00047480068000978630220FDF711FF04467F
:10370000FF212D31786BFDF715FF04432004000CD9
:10371000B8803AD03F4B0020810000225A52C9188D
:10372000CA70401C8A700628F6DB00240126760544
:103730002546AD193001801B060960002018290CB0
:1037400040180521FDF788FC33490855641CFF2CFF
:10375000EFD900200870FDF76DFF2F483C21173886
:10376000C07C484378621021386AFDF7E3FE0028E8
:103770002CD027480068000938623878002806D025
:10378000FDF758FF0020F86106E00420F8BDF86955
:10379000002801D0401E02E0FEF740FE0A20F8613A
:1037A000786A002802D0401E786202E0787800280B
:1037B00005D03889962807D280B2401C05E0FEF774
:1037C0005BFE00203881F7E700203881FEF7B8F86B
:1037D000102812D9FEF7AEF838891E2801D9012128
:1037E00000E000210D480068FF300130406900070B
:1037F000C00F00D0012000F023FB0948F880022010
:10380000F8BD000098020020F401002012FCFFFF28
:1038100084020020D41A0020D31800204C05002078
:103820003C040000F0B512A00FC885B00090144F02
:1038300001A80EC000243D466E46303560002018B9
:10384000C119305D4200801840190322FDF737FC92
:10385000641CE4B2102CF1D3002472B62819302174
:1038600000F0F6FD62B63034302CF6D305B0F0BD72
:1038700006000E090C0B0A080705040302010F0DD0
:10388000D41900201CB5FDF741FF002800D0FEE749
:10389000764C7548606103210D1F2846FFF7CCFA6E
:1038A0000021A1610720206102212C462846FFF754
:1038B000C3FA6F49012088806E496F4E087C497CAD
:1038C00002460A4308D03162F061FEF773FA03251D
:1038D000002806D001200DE01920F061732030622D
:1038E000F3E7FEF7EFFA002806D0FEF763FA0028A8
:1038F00002D00220F06000E0F560604908890122F2
:103900001203104308815D4940310889CA141043ED
:1039100008815B4FB88908210843B881594800687D
:10392000388000BF00BFFFF777F8388000BF00BFC6
:10393000B98908208143B9814F4FB878042805D14F
:1039400000203870FFF712FBB8703C70F87804283C
:1039500005D101203870FFF7B7FEF8703C70387958
:10396000042805D10220387000F0C6F938713C7087
:103970007879042804D13D70FFF7FEFC78713C7023
:10398000B879042804D1387000F0E6FCB8713C70B6
:10399000B878032838D0F87803283BD03879032842
:1039A0003ED07879032841D0B879032843D03149F3
:1039B000C87C019030488E7CC769016A0091FFF78E
:1039C0002BF80146FF3901981239801BC91B484367
:1039D0000099C91B0A46724380184A108018FDF7E7
:1039E00051FB08280BD82849C0224A620107204809
:1039F000090F4030828912091201114381811E484A
:103A0000817802291ED01EE000203870FFF7AEFA40
:103A1000B87015E001203870FFF756FEF8700FE01F
:103A20000220387000F068F9387109E03D70FFF746
:103A3000A3FC787104E00420387000F08DFCB871AC
:103A40003C7079E78570C178022900D1C570017991
:103A5000022900D105714179022900D1457181798E
:103A60000229EED1857167E7FF7C000000E000E0ED
:103A700020100140200F00107402002000000540BB
:103A80000000024800030348000001400249088882
:103A9000098800040843704700000248FEB5044648
:103AA000FFF7F4FFFF21012301319B020140034096
:103AB000C2B2594301D0012700E0002701210123B0
:103AC0004902DB0201400340594300D00121800339
:103AD000400F019141004618124D002170182B5CD7
:103AE00063544019C37868464354491C0329F5D3ED
:103AF00001462046FFF7C6FD002F07D000201F22F9
:103B0000215C11432154401C0328F9D3019800285B
:103B100007D00020215C4906490E2154401C03288F
:103B2000F8D3FEBDE4450010F3B53348314C81B005
:103B3000814202D2491C8DB200E00125FF22561CB1
:103B400031462C48FDF7DBFAA570280AE070019891
:103B50002070000A6070294F3C222949201DFDF782
:103B6000AEFA2046372227494030FDF7A8FA204612
:103B7000292225498730FDF7A2FA20461022234941
:103B80007730FDF79CFAAE211A48FDF771FCA0349E
:103B90002074000A607472B638463168884701257F
:103BA0002D04A84219D17268394612489047A8429C
:103BB00013D1104C164FF02216492046FDF77FFA1C
:103BC000EE212046FDF754FCE0342074000A6074B6
:103BD000316838468847A84201D062B606E072686C
:103BE00039460448904762B6A84201D00020FEBD85
:103BF0000120FEBD1C1B0020FFFF0000004F001035
:103C0000A81600209C180020201700209C170020D8
:103C1000004E0010AC170020F8B5074608790C4696
:103C200041004518E078410040180090E0784100DC
:103C3000411814484618002F04D131460322124877
:103C4000FDF73DFA0098F11C2A1A3046FDF737FAC5
:103C5000002F0FD020790D490A5C002A09D050317D
:103C6000085C41004118074809184019C01EFFF7B9
:103C700009FDF8BD0348032240190349FDF71FFA67
:103C8000F8BD0000AC17002004020020341A002008
:103C9000F8B5054608790C4641004618E078410021
:103CA0004718002D05D11148032281191048FDF74E
:103CB00006FAF21B0D4EF7193946F81CFDF7FFF90D
:103CC000002D0DD0E0780B490A5C002A07D0503156
:103CD000085C410040188119F81CFFF7D3FCF8BDBF
:103CE000384603220249FDF7EAF9F8BDAC17002077
:103CF00001020020341A0020F8B54B4904204B4D36
:103D00000860A88800274A4E4A4C932867D004DCF4
:103D1000002809D08E2804D13AE0982878D09C2831
:103D200004D0AF806F8070E0FEF77CFEFDF7C4FB2F
:103D30004049E8611F310875020A4A753E4A01216F
:103D4000904203DD5F221202904201DBEA6103E050
:103D50000F229202904201DB297000E02F706079FF
:103D60002179000600140843C117090F0918091129
:103D7000411AE869C217120F1018001108182071B3
:103D8000000A60718E20A8802C4800680009286213
:103D90000420FDF7C5FB0746FF21F531286AFDF732
:103DA000C9FB07433804000C688003D0707A0028F0
:103DB00002D009E00420F8BD6079217900060014E2
:103DC00008433073000A7073717B307B0906091455
:103DD00001431648093000F061FA932014E0F07BAB
:103DE000002807D160792179000600140843B074D7
:103DF000000AF074F17CB07C0906091401430B48F9
:103E00000C3000F04BFA9820A8800220F8BDFFE7A4
:103E1000717E307E0906091401430448801D00F0BC
:103E20003DFA9C20F0E7000098020020A00200204C
:103E3000A8160020A101002000F6FFFF8402002048
:103E4000F3B5002083B00190074604460646009073
:103E50002B48407800280FD00498002805D0284827
:103E6000163000210180817025E025480322254974
:103E70001630FDF724F91EE023480322055D234890
:103E8000405D0290680029181F48103009181C482E
:103E90001630FDF714F9029800280CD01B48029A3E
:103EA0005030405D4100411817481030091814483F
:103EB0001630FFF7E7FB124D204616352B786A784F
:103EC000A978FEF709F8202E09DA29780198081850
:103ED00001906978009808180090A878C719641CA8
:103EE000761C102CB4DB06480199816200990763A7
:103EF000C1620398002801D0FFF794FC05B0F0BD23
:103F0000F4010020E04500109C170020341A002026
:103F1000F3B581B0019885003148445920780128D3
:103F200003D0032801D0052803D12E4BDB79002BC9
:103F30000CD000280CD001280ED048D82A48C67EC4
:103F40000878000290420DDB487813E000202070D2
:103F500024488279407901E02279E078120612142F
:103F60000243EBE7700040182038837F1B02934226
:103F700002DCC07F60712AE0012026E04300CB5CB8
:103F80001B029A4203D1400040184078F2E79A425F
:103F90001ADA400041180E46203EB07F07024878EA
:103FA000D91BE7D0F67FD21B801B5043CA0F521893
:103FB00052101018FDF766F8801901D50020D9E7D6
:103FC000FF28D7DDFF20D5E7401CB042D6DB0198A3
:103FD00000F068F80549081A034910394851FEBD38
:103FE000D0450010A0010020A816002010270000D6
:103FF00070B584001448154D00592959027893076B
:104000009B0F0022002B04D0012B04D0022B18D0D0
:1040100002708C2300E0BF2343714B7043790B7116
:104020004270160A86708A70120ACA700078087088
:1040300028590749007948437F300649000A8860BB
:1040400070BDFF23E8E70000D0450010A444001035
:104050003727000098160020104A000110B580187C
:104060000F4A047B1269640013010C434268A107E4
:10407000890F9A1A0173012901D002290CD1816894
:1040800043600C09091BD417240FA21812118918B8
:1040900081600168491C016010BD00004C170020C0
:1040A00074020020F0B5044687B080007349049084
:1040B0000D587348FF27C1787248BF0041433A4604
:1040C00002A8FCF7F3FF6E482101A4300918C88943
:1040D000039A029E801800B2C881B84202DDC01B5C
:1040E000C881761C6000684905902F780C5A380703
:1040F000000F0190042810D005280ED0687961497E
:104100004843FF21FCF7A8FF3906090F0A2935D0DB
:10411000811BA14234DDA41938E059490498E431E7
:1041200008587F30C117090E0818584900128842F4
:1041300018D0AA786B78110219430A46963A82423F
:1041400001DDA4190EE04A1F824201DD241D09E0B1
:104150000A469632824201DAA41B03E0491D8142DD
:1041600000DA241F0198052812D1A9786A7808027C
:1041700010430DD07D200001844209DA044607E097
:104180008119A14201DAA41B00E0044601982870BD
:104190003F483F4B82794179100600140843597F0C
:1041A000002900D001216A461170354A917909022F
:1041B000814203DD0F218902884201DB012104E0F5
:1041C00051790902814202DD00216E463170694653
:1041D0000978597769460978002921D0117A0B02AC
:1041E000834201DC274817E0D3791A02824202DBBE
:1041F0007D20000110E0C91A090200D54942801A49
:104200007D2292015043CA0F521852101018FCF729
:1042100039FF7D210901401884420EDA04460CE082
:10422000194814384078002803D1022F01D0042FF8
:1042300003D17D200001844202DB1248844200DD6C
:10424000044611490598A7B20F52124904980E5816
:104250002878307068797070A8786978000208430F
:10426000B070000AF07020020B49001B4018490092
:10427000FCF708FF3071384607B0F0BDD04500109C
:10428000A816002010270000EC010020FFFFFF7F90
:10429000A0010020A444001088130000F3B5214DB4
:1042A0000C46E8792E460002083681B0A04214DDA3
:1042B0000322291D0198FCF702FFE8780102A142C0
:1042C00029DA621AE979091AC80F401840108018D3
:1042D000FCF7D8FEC2B231461AE02F46E87A114DFB
:1042E00000020C35A04217DD032231460198FCF78D
:1042F000E6FEF8790102A1420DDA621AF97A091A8A
:10430000C80F401840108018FCF7BCFEC2B2294606
:104310000198FFF7B7F9FEBD032229460198FCF783
:10432000CEFEFEBD9C1800200A4A1018C07B502803
:104330000ED242008018074AC0B20B78F03A1354EC
:10434000401CC0B24B781354401CC0B28978115441
:10435000704700009C180020F8B533491020334CFA
:104360000860A0880025324E002807D00D280AD00A
:104370002F2848D0A58065800220F8BD0D20A080A0
:1043800030680009A0601020FDF7CAF807462949E7
:104390003FE02949C879002801D0401EC871274F45
:1043A0003878002808D0FDF78DFD002804D0FDF7EF
:1043B00001FD002800D03D703878002815D1204834
:1043C0008078002811D11F48007800280DD11E48A0
:1043D0000068032809D0207800280BD0401E2070E8
:1043E000C0B2042806D9012005E020780F28F7D2B2
:1043F000401CF4E70020154908703D702F20A08074
:1044000030680009A0601020FDF78AF87D2107467A
:10441000C900A068FDF78EF807433804000C6080DF
:10442000B7D10420F8BD000098020020F00200205F
:1044300084020020B4140000A00100209C0200208F
:10444000E0010020A002002080020020F5010020F1
:10445000F0B5134E40273D04344601391ED402788E
:104460000123184412060823BFF36F8F52003760F0
:1044700000BF00BFBFF36F8F00D2256000BFBFF346
:104480006F8F013B2560E8D000BF00BF00BFBFF3C6
:104490006F8F00BF00BF00BF00BFE7E7F0BD0000A7
:1044A00004000440A8010020AF010020B601002054
:1044B000C401002000E80300003300E803000033DB
:1044C000071C331E4F1F69208722AD23D424FF0011
:1044D000000000000000000000000000001400FFC9
:1044E00005002D32374100E80300003300E80300E7
:1044F000003301CA080000BF071C331E4F1F69208C
:104500008722AD23D424FF1C331E4F1F692087222E
:10451000AD23D424FF0000000000FF0019FF0000BD
:104520002800FF00410000FFFFFFFFFFFF096606B4
:10453000000B000000000000000000000000000070
:104540000000000000000000000000FF0500000067
:104550000A01040705060708090A0B000102030403
:10456000000000000000000000000000000000004B
:10457000000000000000000000000000000000003B
:10458000000000000000000000000000000000002B
:10459000000000000000000000000000000000001B
:1045A00000FF0E7F7F00FA0006DB0032D70058F6CE
:1045B00000769400B40000FF004AFF0094FF00DF83
:1045C000FF00FFAA004AFF0094FF00DFFF00FFAAE0
:1045D000B1160020B7160020BD16002020170020BD
:1045E0000000FF000000FF0055AA00AAAA00FF007B
:1045F00055AA00FF0000AA00555500AA0000FFFFC1
:104600001F0000000F000000030000000500000074
:104610000000000010000000000000002C0300203B
:10462000000204400800000000010000000001003A
:104630000000000000020440000000000000000034
:104640000000000000020440000000000000000024
:104650000B0000000000044080000000000001008A
:1046600006000000000204400000000000000000FE
:1046700006000000000204400000000000000000EE
:1046800009000000000004400000000000000000DD
:104690000000000000020440800000000000000054
:1046A0000A0000000000044080000000000000003C
:1046B00008000000000000000000000000000000F2
:1046C0000000000000000000A5A5A5A5A5A5A5A5C2
:1046D000A5A50100C846001001000000060000006A
:1046E000000001000000010000000100A000000027
:1046F00001000000900000000100000001008D0595
:1047000000000000000000000000000000000000A9
:10471000E0460010E4460010E846001000000000EB
:104720000000000000000000000000010000000088
:1047300000000010D84600100100000000000440F6
:1047400008000000EC4600107404002001008D05F4
:104750000000000000000000000000000000000059
:10476000E0460010E4460010E8460010000000009B
:104770000000000000000000000000010000000038
:1047800000000010D84600100100000000020440A4
:104790000A000000F446001074040020010000002C
:1047A0000600000000000100000001000000010000
:1047B000A00000000100000001008D0500000000C5
:1047C000000000000000000000000000A4470010EE
:1047D000A8470010AC4700100000000000000000D7
:1047E00000000000000000010000000000000008C0
:1047F0009C4700100100000000000440070000007A
:10480000B047001074040020010000000600000002
:10481000000001000000010000000100A0000000F5
:104820000100000001008D050000000000000000F4
:1048300000000000000000001048001014480010A4
:1048400018480010000000000000000000000000F8
:1048500000000001000000000000000408480010F3
:104860000100000000000440050000001C4800108A
:10487000740400200100000000100000000001008E
:104880000000010000000100A00000000100000085
:1048900001008D0500000000000000000000000085
:1048A000000000007C480010804800108448001080
:1048B00000000000000000000000000000000001F7
:1048C00000000000000000207448001001000000FB
:1048D0000000044009000000884800107404002013
:1048E000B000000001000000100000000100000006
:1048F0000008070000080801100000000000044044
:104900000F000000E0480010F04800104D2100109A
:1049100095180010000000000000000000000000DA
:104920000000000000000000FC480010000200062B
:104930000600000054490010000000205805000047
:1049400058110010B84B001058050020E026000058
:104950008C2E00108D2F48FEE70411CA4710E90481
:10496000A920290C091E0409262C091268091A20FD
:1049700089044132013202134710331004320532E8
:10498000063207320832095A0A20320C5A0D0C132B
:10499000411F2A100809160432175A182C0B100D43
:1049A00024204B8125083221322232235A2430A977
:1049B000043229322A322B322C322D322E822F29E8
:1049C000A501172A121C02301413FFFF0212502BEC
:1049D000D00702C104390101010A35FF371901115D
:1049E0002A03015149060919C8091847827F13B3E0
:1049F0000B10080B450A8309C008A8220843078F3B
:104A000006E5054605B3042E04B4034903EA0295FE
:104A1000024A020702CD0199016B01FFFF701318D2
:104A200046121052011481FC02142004031B2008BA
:104A3000042A0C1819041B600414290C313B0204CD
:104A40002900FF00D57FAAFE2B815429FC5683D76D
:104A500002A87D52872DF8AC79D3067BAE04D185B0
:104A600050FA2FA471DB0E5A8F25F08D58F2277360
:104A7000A60CD9F623895C08DD77A2DF0AA0752190
:104A8000F45E8B9D48E23763B61CC9B461CB1E4A05
:104A90009F35E0CF1AB06531E44E9BE633994C1850
:104AA000CD67B239EC4693C712B86D10C56FBAEE38
:104AB0003B91446BBE14C19540EA3F42973DE8BC30
:104AC00069C316EF3A904511C46EBBC613B96C3872
:104AD000ED4792BD68C21743963CE99441EB3E6AAC
:104AE000BF15C04B9E34E1B560CA1F62B71DC89C9C
:104AF00049E33619CC66B3E732984D30E54F9ACE8C
:104B00001BB16472A70DD88C59F3265B8E24F1A5D6
:104B100070DA0F20F55F8ADE0BA17409DC76A3F74B
:104B200022885DD603A97C28FD5782FF2A80550183
:104B3000D47EAB8451FB2E7AAF05D0AD78D207532B
:104B4000862C35F9FFFF08F2D5133004021020132C
:104B50002E0333200113B44622108303482A021582
:104B60002C90D00307213A04183AFC24190C1A039C
:104B7000043202291D2908A2042310270B244C47C4
:104B8000286AB8281A02041924190D39A1B240293B
:104B9000285B2448284A018809114F39286A90283F
:104BA0002A047C2915091051292831144808491470
:104BB000101C1C0200200000FFFFFFFFFFFFFFFF93
:104BC000FFFFFFFFFFFFFFFFFFFFFFFFFFFFFFFFF5
:104BD000FFFFFFFFFFFFFFFFFFFFFFFFFFFFFFFFE5
:104BE000FFFFFFFFFFFFFFFFFFFFFFFFFFFFFFFFD5
:104BF000FFFFFFFFFFFFFFFFFFFFFFFFFFFFFFFFC5
:020000041000EA
:084DF000400CDEC00812FFFFB9
:0400000510001019BE
:00000001FF
