:020000041000EA
:10100000983F00202D10001000000000000000009C
:1010100000040100000000800348854600F08AF8C3
:1010200000480047B9350010983F00200549064A9E
:1010300030200A600431401EFBD104488047044838
:101040000047FEE70000002000BFFEE76B23001012
:101050001910001030B50B46014600202022012453
:1010600009E00D46D5409D4205D31D469540491BDC
:101070002546954040191546521E002DF1DC30BD25
:1010800070B500242546002801DA012440420029D9
:1010900001DA01254942FFF7DDFFAC4200D04042B2
:1010A000002C00D0494270BD10B50B4604461146D5
:1010B0001846FFF7E5FF03C410BD10B5431A93426D
:1010C00009D28318881803E0401E01785B1E19704E
:1010D000521EF9D210BD03460B439B0703D009E013
:1010E00008C9121F08C0042AFAD203E00B78037063
:1010F000401C491C521EF9D210BDD2B201E0027050
:10110000401C491EFBD270470022F6E710B513467B
:101110000A4604461946FFF7F0FF204610BD03219A
:10112000001D401E037812021A43491EF9D51046CD
:101130007047FFFF064C0125064E05E0E36807CC2B
:101140002B430C3C98471034B442F7D3FFF768FFA9
:10115000EC4800100C49001070B58C180578401C44
:101160006B075B0F01D10378401C2A1106D102786E
:10117000401C03E006780E70401C491C5B1EF9D130
:101180002B0705D40023521E0DD40B70491CFAE71F
:101190000378401CCB1A921C03E01D780D70491C8B
:1011A0005B1C521EF9D5A142D8D3002070BDFFFFB1
:1011B000F8B50446007E02286FD1E06800F01CFC00
:1011C000A16800230E4637781946394377780546DB
:1011D0003F023943B778F678E0683F043943360672
:1011E00040681A46314301F0A9FEA16800220E466C
:1011F0003778114639437778E0683F023943B7784A
:10120000F6783F043943360640680123314301F044
:1012100095FEE0686168406801F05AFEE0680522CA
:1012200041682068D201406889180068086000267B
:101230002068B1004058E16842794B680179890023
:10124000C918FF3181310B68012797403B430B6080
:101250000068002802D000F057F80543761C3606D7
:10126000360EE5D0E068617E406801F071FE2169CC
:1012700008784A6840B2FF2100280FDB86081F4B20
:10128000B600F61833688007C00E81408B43910783
:10129000090E81400B43336011E02DE003071B0F63
:1012A000083B9E08164BB600F318DE698007C00E97
:1012B00081408E439107090E81400E43DE61206913
:1012C000007840B2002805DBC106C90E0120884025
:1012D0000C4908606069002800D08047A07E002883
:1012E00009D0E0684068FF30FF30023041680122D9
:1012F0005202114341602576207EF8BD00E400E0F3
:1013000000ED00E000E100E010B504464068007820
:10131000002806D12068002800D08047616801209D
:101320000870002010BDFFFFF8B50021164A0846DE
:101330008B00D0529B18D870491C98700629F7DB97
:1013400000221249D2434A64002008600F48FF225D
:10135000C0214830FFF7D1FE002401260C4F76054E
:101360002546AD193001801B060960002018290CA4
:1013700040180521FFF76EFE3855641CFF2CF0D98C
:1013800000203870F8BD0000F81B0020D81800209D
:10139000D817002002780021002A01D10122027012
:1013A0000846704710B500F036F810BD10B50400BF
:1013B00019D0207CE268616882400A40C2406260C5
:1013C0002068017B437B994201D1104604E001680B
:1013D000104600F079F860602168897B4840E16838
:1013E0000840606010BD002010BD002811D00368C7
:1013F00001221978491E8A40511E11438260C16042
:1014000000220261587B084000D001205873002060
:10141000704701207047F0B5076804468BB0B86884
:1014200060600D4621690391019161690791A1698D
:101430001646002002913EE029788C46397B0891BF
:101440000129616814D0019A3B78083A9A18D14072
:1014500062465140029AC9B25143079A89180091D5
:101460003968082906D0102907D020290BD013E0AD
:10147000019AECE7009800780EE000984178027835
:101480000802104308E00098FFF749FE00990002A7
:10149000C978000A090608430899012961680ED035
:1014A000039A08239A1A9140E268039B41409A40AC
:1014B00011406D1C6160761EBED20BB0F0BD090AF2
:1014C0004140E268019BF2E70246C00710B5C00F39
:1014D000012305E05208D4074000E40F20435B1CC1
:1014E0008B42F7D310BDFFFF10B5FF220146B93282
:1014F0000648FFF757FF0548FFF758FF401C04490F
:1015000080B2884200D1002010BD000020050020DC
:10151000FFFF000030B5034600200246044C03E004
:101520009D5C4540605D521C8A42F9DB30BD000085
:101530002C06002010B5164C0022216AE0692262B8
:10154000E261144A00025143CA0F52185210801827
:10155000FFF780FD6421803848430F4AA16A914219
:1015600009D0E92251431722504308188030C1178F
:10157000090E0818001205214902084A4118A06204
:10158000914201D3012100E00021217000B210BD81
:101590009002002033030000FFFFFF7F016900007D
:1015A000034A01461369184013698B43136170475E
:1015B0002C02002008B5054AD268101A0090884213
:1015C00001D3022008BD002008BD00002C0200202D
:1015D000F0B53548354B014602783E390A70DA716C
:1015E0008378FF22FF2B02D0C378CB7082700379FF
:1015F000FF2B08D043794B7183798B71C379CB7101
:10160000037A0B72027142780027294B552A3DD08C
:101610009F7000220624154665432E18F47BFF2C8C
:101620000BD06D18EC736407A40F012C36D0022C7C
:1016300037D0032C01D0748A6C82521C022AE9DB59
:10164000C27EFF2A0BD0CA76174AD57F947F2A061E
:1016500012142243144C3E3CA277120AE277124A3B
:1016600020325278FF2A0FD00F4C1E3C62700022AD
:1016700054002518203564182034EE78E670AD78D3
:10168000521CA5700C2AF3DB1F70F0BD9A78002A5B
:10169000BFD10122074C9A702270BAE7347D2C75B5
:1016A000CBE7348A2C82C8E76A170020500200205A
:1016B0009001002088020020F0B5324900250A463A
:1016C0000D7040321078FF272F4EFF2801D0307068
:1016D00017709078FF280FD0002081008B1889198F
:1016E000DC78CC709C798C715C794C711B79401CD6
:1016F0000B710328F1DB977000201118CB7BFF2BB7
:1017000002D03418E373CF73401C0328F5DB1D4867
:101710006030817C1C4820308174907CFF2801D08F
:10172000B0749774D07CFF2801D0F074D774002077
:101730008100431899180C7D9B191C758C7D4D7D7B
:1017400024022C435C75240A9C750C7E1C76CC7D8F
:10175000DC750D4C85000023D83463532C19E370DD
:10176000A370401C0F750628E2DB064900203831C3
:101770000B54401C0828FBDB7078002801D0537004
:101780007370F0BDB4010020201B002010B50E487E
:101790000078002816D10C4850213730FFF7B4FCF0
:1017A000002001F0EFFC012001F0ECFC022001F030
:1017B000E9FC032001F0E6FC042001F0E3FC052035
:1017C00001F0E0FC10BD0000201B002010B52548F2
:1017D000FFF7E0FD002843D1234800F07DF9002801
:1017E0003ED1224800F0DCF9002839D12048FFF72B
:1017F000DFFC002834D11F4800F0D2F900282FD197
:101800001D4800F0CDF900282AD11C4800F064F9E9
:10181000002825D11A4800F05FF9002820D1194886
:1018200000F03EF800281BD1174800F0AFF900285F
:1018300016D1164800F076FC002811D1144800F0AB
:101840002FF800280CD11348FFF7CFFD002807D14F
:10185000114800F0E5FD002802D1104800F020F802
:1018600010BD00000D030020384600106005002068
:10187000F002002088050020B00500205846001026
:1018800078460010F4450010A4460010140600200D
:1018900004460010200500202006002014460010F9
:1018A00010B50446017B0068221D01F08BF8627BB5
:1018B000217B206801F0BCF8002010BD10B501208C
:1018C00002F030FA10BD10B5002002F02BFA10BD66
:1018D00010B50548054A0168007B82404A60022035
:1018E00002F020FA10BD0000F445001001000100D4
:1018F00010B507493F220878401C8006800E08700A
:10190000044980014118044800F08DFD10BD00001D
:10191000800100202C0700202006002070B52E4CEE
:101920002E49666BA56B701B48432D49081A2D2163
:10193000C903884202DB4900884200DD0846294984
:10194000FF2209781D325143401AE16A0A02511AF6
:1019500008188030C117090E08180012E0628030A4
:10196000C117090E08182322001212020321801A3F
:10197000FFF786FB1C491D4A4E438036F117090EBE
:10198000891909128918CA17920F51188A10164915
:10199000174BC91D4D438035E917090E4919091226
:1019A000C918CB179B0F591889105118CA0F511815
:1019B0004910081A0F4A216B914209D0E92251437C
:1019C0001722504308188030C117090E081800125A
:1019D0002063208E00B270BD90020020EF21000035
:1019E00000619100B5010020EA04000009B2FFFF88
:1019F000E1C0FFFFFFFFFF7F10B50446007C022817
:101A000013D12168606801F077FAA068026C016C5C
:101A100003239B0299430A430264607C012802D19C
:101A2000606801F0A5FA00202074207C10BD10B57C
:101A30000446407B00280BD1217BA06800F07EFE8D
:101A4000A068C168FF2201321143C16001206073A8
:101A5000002010BD10B501F0C9F8124A124B516AAE
:101A6000994206D0E9235943172358430818803078
:101A7000000A50620C210A20515E105E536A091A56
:101A8000181A04230224D35E145F1A1B4243100267
:101A9000CA0F521852101018FFF7F2FA2102081854
:101AA00000B210BD90020020FFFFFF7F10B5094B70
:101AB0000020C1B200224C000906C910490F4C4059
:101AC000521CE1B2082AF6DB1954401CFF28F0DD55
:101AD00010BD00002C06002070B50446017F224690
:101AE0004068083200F06EFF2246A17E1032206866
:101AF00000F049FFE17E0122206800F058FF182025
:101B00002056627EFF2100280EDB85081B4BAD00AE
:101B1000EB181D688007C00E81408D439107090EA8
:101B200081400D431D6010E003071B0F083B9D081B
:101B3000134BAD00ED18EB698007C00E81408B435D
:101B40009107090E81400B43EB61607F012812D1A0
:101B500018216156002905DBCA06D20E01469140C4
:101B6000084A116018216156002904DBC906C90E14
:101B7000884005490860002070BD000000E400E0D6
:101B800000ED00E080E200E000E100E010B500249C
:101B9000006800F059FF012800D00124204610BD44
:101BA00070B50446007F0125002802D00225284692
:101BB00070BD2068C06CFFF73AFF002802D00020FB
:101BC0002077F4E72068816BA06800F0C9FD2068E9
:101BD000A168408848632068A1688088C86320683D
:101BE000816B0968890103D5416B606800F0C4FE10
:101BF000616820690861616860690861204600F0D9
:101C00005CF8204600F0D0F820683C21095C0129EE
:101C100005D14421095C826C006C00F0D3FE26687B
:101C20000125B16BF06C097900680A07120F29468B
:101C30009140FFF70FFA20622577307800250128C0
:101C4000B5D1204600F01EF80546B0E770B50E4647
:101C50000446217F0120002911D009498E420ED867
:101C6000A568286B8A1B80B2401C5043FFF7F2F92D
:101C700080B2E8636168206908610020666270BD17
:101C80001027000030B5027F0121012A01D0032A6C
:101C900011D14168427BCC6801231D4695402C43FD
:101CA000CC60016820310978002901D18168CB60BE
:101CB000022101770021084630BD10B504460068B6
:101CC00001214269A06800F063FD20680221826959
:101CD000A06800F05DFD20680321C269A06800F0E3
:101CE00057FD206820300178002903D04278A06891
:101CF00000F007FE206820308178002903D0C278E8
:101D0000A06800F014FE206820300179002902D07C
:101D1000A06800F09CFD206820304179002902D0A5
:101D2000A06800F0A3FD206820308179002902D04E
:101D3000A06800F084FD20682030C179002902D01D
:101D4000A06800F09BFD20682030017A002904D0B3
:101D5000837A427AA06800F099FD20682030817B68
:101D600003290FD1C27B017CA06800F0EEFD206842
:101D70002030407B012805D1A0684169012252042E
:101D800011434161206801462031CA7A022A0AD1F2
:101D9000097B032907D1C2698169A06800F01DFD94
:101DA000A06800F0BDFD10BD10B504460068817943
:101DB000012908D1427B0021A06800F080FD0021AC
:101DC000A06800F04CFD2068C179012908D1827B10
:101DD0000221A06800F073FD0221A06800F03FFD21
:101DE0002068017A012908D1C27B0321A06800F094
:101DF00066FD0321A06800F032FD2068417A0129C8
:101E000007D1027CA06800F05AFD0121A06800F013
:101E100026FD2068817A012908D1427C0821A0682A
:101E200000F04DFD0821A06800F019FD2068C17A7E
:101E3000012908D1827C0921A06800F040FD092118
:101E4000A06800F00CFD2068017B012908D1C27C4C
:101E50000A21A06800F033FD0A21A06800F0FFFC11
:101E600010BDFFFF70B52D4C2B49204600F0DCFE65
:101E7000E06B08218843E063606B012528436063C1
:101E8000606B0F210906884308436063606B3F2144
:101E90000904884308436063C80361690D2212077F
:101EA00091430143616160697F21090288430026F3
:101EB00029020843606105223146204600F0D6FE23
:101EC00000220321204600F0D1FE002204212046FA
:101ED00000F0CCFE00220521204600F0C7FE206C59
:101EE00000090001284320640B4A0D4D08320A21E5
:101EF000284600F067FD00220A21284600F098FDE0
:101F0000084A0B21284600F05DFD002210212046E2
:101F100000F0CAFF304670BDD8050020000200481E
:101F200000020440FC470010F8B53B4F054600781E
:101F3000B978884201D10120F8BDB870C00869D0D5
:101F40003E212846FFF7E6FA344908703E21495DF4
:101F5000814201D00220F8BD2878324E4407304833
:101F6000640F0179C27809021143491CC170090A42
:101F70000171002C0FD0012C20D0022C24D0032C76
:101F800025D0042C33D0052C34D0062C36D0072C89
:101F900038D00520F8BD307800283BD16978FF2083
:101FA000FF2903D0F87020483E2213E0A978CA0820
:101FB0001F2A01D14807400FF8702BE03078002825
:101FC00028D11A48372205E01948282202E018488B
:101FD000283028221749124B0978D971691CFFF75C
:101FE0006CF80120002C11D0012C12D012E0124804
:101FF0003C22F3E710483C303C22EFE70E487830B3
:102000003C22EBE70C48B4303C22E7E70B49087070
:1020100000E030700020F8BD800100208602002022
:1020200050020020B40100206A170020F4010020B3
:10203000E01900202C170020301A00209001002009
:1020400010B52949012008702849294C08702046FC
:10205000FFF74AFA2749284A4880928B8A809042A3
:1020600022D13E2221462548FFF727F83E22234968
:102070002348FFF722F81E49372240312148FFF755
:102080001CF837221F492048FFF717F8184950223B
:1020900078311E48FFF711F81549F022C8311C4865
:1020A000FFF70BF8012010BD3E221A491448FFF734
:1020B00004F83E2217491148FEF7FFFF3722164960
:1020C0001148FEF7FAFF372213490E48FEF7F5FFD5
:1020D000502212490D48FEF7F0FFF02210490C483B
:1020E000FEF7EBFF002010BD90010020B40100209E
:1020F000044E00108A020020A04F00102C17002070
:102100006A170020201B0020F4010020E0190020A5
:10211000301A0020E8430010264400105D440010EF
:10212000AD44001040684068004710B503465C6845
:10213000012080342479022C02D1184600F002F8E4
:1021400010BDFFFFF8B5054601260220AC68002946
:102150007BD0002A79D0274620373B78002B75D1D9
:102160002068082800D9022601203870701E82409D
:1021700062600020A161A060217F286800F084FDDA
:1021800068686030007F002827D028680121C903D3
:10219000FF300130816117E02868C11DF9314A69BB
:1021A000D204D20FFBD17978012912D0A268A1699B
:1021B000022E10D0895C227F92001018FF308130EF
:1021C0000160A0688019A060A16860688142E3D3C3
:1021D00026E02049EFE7895AEDE7286800F0D4FDB2
:1021E0008028FAD07878012825D0A168A069022E2D
:1021F00029D0405C227F2968920051188031086004
:10220000A0688019A0602868816C4905FCD501226E
:10221000C16C92021143C164A16860688142DCD341
:10222000286800F0B1FD8028FAD000203870606086
:10223000A0600BE009E0074A207F29688000401871
:1022400080300260DCE7405AD4E7032001212034CB
:10225000A170F8BDFFFF000010B503484188034896
:1022600001F06CFB10BD0000004E0010190C0000C6
:1022700070B50124E403102825DA204D80006E5C3F
:102280001F49AA5CEB5C8D8875434E8809882D191F
:1022900059435643091932192D020902FF242D0E04
:1022A000090E24022B040C19120C23431406234399
:1022B000144C15430019436011480D432C384178E4
:1022C0006918417070BD0E4D1038AD1DAE88800686
:1022D0004E4331196E882D8856435D4332192B19B0
:1022E000800E44000019074C090C120C1B0C4834DA
:1022F000001902704170837070BD0000D817002073
:10230000E0010020D81800200248C168491CC160C3
:10231000704700002C0200200EB5044A6B4607CA25
:1023200007C3684600F0D2FB0EBD0000E845001070
:1023300010B50949086809680004000E074CC9B2C5
:10234000002806D0000241180548FEF783FE400031
:1023500000E00448206010BD00030140FC3F002065
:10236000000024F40048E801704710B5FFF7FCFFB7
:10237000FFF7D2FF10BDFFFF70B5264E0025244A9F
:102380000E21304600F01EFB21490924E4060831E5
:10239000204600F08DFC00221146204600F07CFD16
:1023A00000220321204600F077FD0022052120466F
:1023B00000F072FD002306221946204600F0E8FCDA
:1023C000206C00090001801C2064114A0F21083A8A
:1023D000304600F0F7FA00221021204600F064FD9C
:1023E00001221021204600F0EBFC0122132120469F
:1023F00000F0E6FC08490868FF221204904332010D
:1024000010430860054910130860284670BD00009D
:10241000A04800100000044008E400E000E100E0F3
:1024200040684068004710B503465C6804202034CB
:10243000A479002C02D1184600F001F810BD70B547
:102440000446656804232035AD798068002D2CD1C1
:10245000457E0223002D28D1002925D0002A23D033
:1024600002614160012141760021416160682030B4
:10247000007A0028206810D05903FF3001308161B4
:102480001146204600F076F8206803214907FF3006
:102490000130C2680A43C26004E00321026C890370
:1024A0000A430264002300E00323184670BD10B500
:1024B00003465C68042020346479022C02D118465B
:1024C00000F068F810BD70B50546846840680026C5
:1024D0002030007A002820D12FE0226961699142E2
:1024E00001D3084607E000F0D7FB626961688854B1
:1024F0006069401C6061216988420ED16676286857
:1025000003214907FF300130C2688A43C26068680E
:102510008068002808D0804706E0FF212868153130
:1025200009580907C90FD8D021696069884203D2C8
:10253000091A284600F01EF870BD216960698842BA
:1025400008D2286800F0A8FB626961688854606955
:10255000401C606121698842EED1667628680321BB
:10256000026C89038A430264686880680028E3D0AB
:10257000804770BD10B542682032137A01229A401C
:10258000914201D24A1E00E0521E0068194600F036
:1025900022FC10BDF8B50446032016460F4600295C
:1025A00036D0002E34D0A16802200A7E002A2FD116
:1025B0000120087660682030C079002805D02068A6
:1025C0000121C903FF300130816100250FE0203077
:1025D000C079002806D02068FF3001304169C90465
:1025E000C90FFBD1795D206800F0A0FB6D1C60680D
:1025F000B542ECD32030C079002806D02068FF30E7
:10260000013041690905C90FFBD0A268002010768E
:10261000F8BDFFFF10B50248FFF755FF10BD0000E1
:102620002006002070B520480078002801D0FFF770
:1026300043F81E48E621807CBE2302464A431A49DD
:1026400043432C310A80020282184A808B808C21FD
:1026500003464B431449154C32310B80EA2358434F
:102660004880203C8A80A07C2546F03D502804D23A
:1026700041004018401901F08BF8E07C502804D24A
:1026800041004018401901F083F80949002001F089
:10269000DDFD0849012001F0D9FD0749022001F0C4
:1026A000D5FDFFF773F870BDB4010020401B00207A
:1026B000A3020020A6020020A002002010B50E49AF
:1026C00010220A7023224A700C4A0D4B92781B7814
:1026D00052001A430B4B07481B78401CDB001A437F
:1026E0000B460C3B1B7A1B011A438A703622FEF7FD
:1026F000E4FC10BD201C00205002002098010020A6
:1027000090020020880200200548006881B2054838
:10271000C2698918C161016A491C016270470000E1
:102720000003034890020020034910B5884202D1FB
:10273000042000F015FA10BD0000044870B50D46E5
:102740000446FFF7F1FFE068FF2101310843E06034
:102750002068032189038843A9030143216070BDD8
:102760000A6842618A889204D20F120542600A798F
:102770001207120F42628A881205120F02628A88BB
:10278000D204D20F826109790906090FC16270472C
:10279000F0B50668491E4C002346032710333D461A
:1027A0009D40AE4355789D4035430B461633012678
:1027B0009E40B54396789E40234619339F40D47877
:1027C0002E439C408B00BE430F21344399408C43E1
:1027D0001178994021430160F0BD10B504680323CE
:1027E0009B049C434B789B04234303242405A3436D
:1027F000547824051C430123DB059C438B78DB05BF
:10280000234301242406A343947824061C43032372
:10281000DB069C43CB780978DB062343032464075B
:10282000A343D478090164071C43F0239C431B0194
:1028300012782143994312020A43026010BD426894
:1028400003239B039A438903114341607047426805
:1028500003239B029A4389021143416070478030F1
:10286000426A01238B401A43426270474268032345
:102870001B029A43090211434160704742680323D7
:102880001B039A43090311434160704770B54469C3
:1028900045680326B604B5438904294341600121F4
:1028A0000906012A06D08C430121C905002B03D05B
:1028B0000C4302E00C43F7E78C43446170BD10B554
:1028C0008030846A0B0000F061FB0A0606090914D7
:1028D0001414140C1014032300210DE00C23022106
:1028E0000AE003231B02082106E003239B020A21BE
:1028F00002E003231B030C219C438A402243826293
:1029000010BD43689B089B000B4343604169012352
:102910009B02012A02D09943416170471943FBE7AA
:10292000416801221204914311434160704710B580
:1029300043680C24A3438900194341604169A30102
:10294000994312020A43426110BD10B54368012445
:102950006404A3432343436043692401002A01D054
:10296000234300E0A34301229205012902D09343AF
:10297000436110BD1343FBE702680B0C9A4389B215
:1029800011430160704770B515460E46044600F0CD
:102990000DF82168B0000F22824091432A688240DE
:1029A0001143216000196968016170BD7047890099
:1029B0000818016A302392079943920E114301626D
:1029C0007047FFFFF0B58B089B001C1823698D072B
:1029D000ED0EF826AE40B343AC462361436F4E0084
:1029E0000325B540AB434367CB089B001B181E6C07
:1029F0004D07ED0E0427AF40BE431E645678AE402F
:102A00001D6C2E431E64094B984204D1036E0125B0
:102A10008D40AB43036653688B404360107861463A
:102A20008840216908432061F0BD00000002044095
:102A300010B5436F490003248C40A3434367436FA1
:102A40008A401343436710BDF8B5054601260220AE
:102A500000F02CF8144CA18908200143A181002129
:102A60004A00AA5A2280A288D207D20FFBD0491C62
:102A700089B20529F4D3A1898143A18121886846BF
:102A800001802188018021880180218802880A40F4
:102A90000280A87A00F00AF8A0894007800F00D1D0
:102AA00000263046F8BD00000000024803498A892C
:102AB00006239A43400002438A817047000002487F
:102AC0000148006870470000FC3F002010B5024636
:102AD00000F0A0F851689068084307490B680F247C
:102AE0002404A3431843086000F086F81178507856
:102AF00000F004F810BD00000003014070B50A4664
:102B0000054600F087F8124C206821680004000E8A
:102B1000104B114E19401143314321602168490087
:102B2000FCD4A842294602D800F02AF801E000F0BF
:102B300043F82068094908402902084330432060CF
:102B400020684000FCD400F057F8FFF7F1FB70BD9F
:102B50000003014000FF0FC00000F03FFF000FC066
:102B600000B5024600F056F80449086910430861B0
:102B700008684000FCD400F03FF800BD00030140AD
:102B800070B50A4A0A4C0B4D0CE0002800D1012018
:102B9000136880002340060233432B4313601368FD
:102BA0005B00FCD483008B42EFD370BD0003014077
:102BB000FF000FC00000F03F70B5094A094C0A4DF4
:102BC0008B0009E011688008214006023143294347
:102BD000116011684900FCD48342F3D370BD00003A
:102BE00000030140FF000FC00000F03F01480088D3
:102BF00070470000401001400149C32048627047FF
:102C00000000014002488188012211438180704701
:102C1000201001400348C0214162416A4907FCD4A9
:102C2000704700000000014070B50C46054600F0FA
:102C300091F82079002804D102222846216800F06A
:102C4000DDF80948686351200001A8632079002855
:102C500003D160790B210843E8630020C043E86496
:102C6000E088286470BD000002013F078900081851
:102C7000C1694023994310231943C161C169C9083F
:102C8000C9001143C1617047026CC02389079A4390
:102C9000090E0A4302647047C11DF931CA68520126
:102CA000520F02D0C86980B27047406DFBE7FFFF4A
:102CB00070B50D460446102600F04CF8E87900285F
:102CC00000D0064632462046296800F097F8A879D9
:102CD000710809024000FF31801E013108430321C1
:102CE00000220904D243401C0843E06328790E49BE
:102CF000000640186063697901200004002905D0AE
:102D0000636B0904081A0343636305E0616B2B7965
:102D10001B04181A0143616305200002A063E264EA
:102D20002889206470BD0000020100FFFF220932E3
:102D300012585201520F02D0FF30813008E0802338
:102D4000826B1A40802AFBD001225203C264803079
:102D50000160704710B504460920C006844202D0C5
:102D60000748844202D1074800F0A8F80320E06039
:102D7000E068C007FCD0206C00090001206410BD91
:102D80000002004808000048806B8021084070471E
:102D900030B5FF300130C46807252D06AC43C46050
:102DA0001B020B4311060B43C168044A11400B433D
:102DB000012109070B43C36030BD0000C0C0FFEF15
:102DC00010B5FF300130C36807248C40A3438A400C
:102DD0001343C36010BD10B5FF300130C368072432
:102DE0002406A343C360C3683F2424021202A34302
:102DF000134309060B43C36010BDFFFFF7B584B052
:102E000017460C46642941D3002F3FD0FFF758FEE8
:102E10006421FEF71FF9064664212046FEF71AF9E1
:102E200001211B4C784302910546009401913046E4
:102E300029466043FEF70EF9014689050122800A02
:102E4000890D9202904205D2009A914202D20294D8
:102E500000910190641EEAD101210298C903084340
:102E600004990861049840690A49BA02084001219E
:102E70008902511A08430199012209041204891A8E
:102E8000084304994861002007B0F0BD0120FBE72A
:102E9000FF030000EF8000FC89000818C169C90821
:102EA000C9001143C161704710B5836907248C4084
:102EB000A3438A401343836110BDFFFF034910B54C
:102EC000884202D10820FFF74BFE10BD08000048E1
:102ED000054B4A68FF301A43FF30023002608968B0
:102EE00001221143416070470080800010B501202D
:102EF000FFF736FE10BDFFFF70B50C460546FFF725
:102F0000F5FF206928602846803061680162A16869
:102F100041620521C9016918E0680860054908682F
:102F20000122D2031043D2109043086002490120CD
:102F3000086070BD4040034800050140034A11404D
:102F40009A00101880300162704700001F070000CF
:102F5000042900D3091FFF300130026C0F231B042A
:102F60009A430264026C09040A4302647047FFFF3B
:102F7000803001680122D2071143016002480168D4
:102F8000090F0329FBD070474040034830B4744612
:102F9000641E2578641CAB4200D21D46635D5B0055
:102FA000E31830BC1847FFFF8307FF22DB0E9A406F
:102FB0008907090E9940002808DB830809489B000F
:102FC0001B18186890430843186070470007000FEB
:102FD0000838830804489B001B18D86990430843AD
:102FE000D861704700E400E000ED00E002E008C8AE
:102FF000121F08C1002AFAD170477047002001E073
:1030000001C1121F002AFBD17047FFFFF8B58E46A1
:103010001A4904460301C858194EA500002819D0C2
:103020005A185768401EBC4697680022CA5031465D
:1030300010390A556146791A72465143114A504374
:103040004A088018FEF706F801467059224600F03B
:1030500023FA05E00A481038015D00290AD0002053
:103060007051E100084A091B705B89184873000A17
:103070008873F8BD01210155F3E70000A81700206F
:10308000A801002060EA000050020020F8B5324993
:103090000120324C0860E0880026314D002807D01E
:1030A000922812D09A2826D0E680A6800220F8BD69
:1030B000FEF7FCFC2B48C179142901D21421C171FF
:1030C0009220E08028480068E0600120FEF768FA5E
:1030D00007463221E068FEF76DFA07433804000C1A
:1030E000A08013D02670667029463F221F48FFF744
:1030F0009AF99A20E0800120FEF752FA80B2A0806F
:103100002178627891421CD100281AD10420F8BDA0
:103110008801491C40198906890EA0606170FEF77C
:1031200003FF13490028086000D001201149124B09
:1031300008701249E27808781A54401C0007000F02
:103140000870207861788842E2D10D480168102229
:1031500011430160CDE70000400200208001002003
:103160002C070020500200203802002020060020FA
:103170004C02002087020020101C00204502002085
:103180003C020020FEB5054680007C492818441802
:10319000277DA800D83146181434002F57D001E0FD
:1031A0005038207120795028FAD801E05038E0706A
:1031B000E0785028FAD8B9094ED0691E49077048FE
:1031C000490F405C002842D03088401C80B23080DB
:1031D000A278637811021943884239D320794100DB
:1031E00040180090E07841004418B806800E401C5A
:1031F0004100401801900098844202DD2046009C66
:10320000009078065F4F07D55D48391903222738AB
:10321000FDF753FFE41C12E00098032239185848C8
:103220002738FDF74AFF0098C01E009007E0544978
:10323000381903222739FDF740FF01982418009818
:103240008442F4DD4E480121415500203080FEBD0E
:103250004B4900204855FEBD7907C90F0091A3785E
:10326000617832881B020B43D11831800021444819
:103270003FE043490120485531888203891A318053
:10328000F94389070FD0B907890F022935D00129E1
:103290004ED03B483038405D002832D0214600985F
:1032A00000F00AFC31E0364821463038405D002805
:1032B000009802D000F000FC01E000F0C1FB207992
:1032C000E178401AC0B2F90601D5401EC0B2B90675
:1032D00001D5401CC0B2B178491C49B2B1708142DD
:1032E00013DB0020B07026483038415D002902D041
:1032F0000021415509E00121FBE721480021303838
:1033000041552146009800F09BFB31881E488142C0
:10331000AFD838079FD58804020E1948174B3038AC
:103320003733405D19465031002814D0207907E02A
:10333000134930394855B1E71A54451E0D54401E03
:10334000E5788542F8DB0098002884D1E8B21A5469
:103350002079E2780FE0E07803E01A54451C0D5420
:10336000401C25798542F8DC00980028EDD1E8B2B0
:103370001A54E07822798854FEBD0000201B0020FA
:10338000EC010020301A0020FF3F0000F8B53E4954
:1033900008203E4C0860E088FF266A36811B3C4DC1
:1033A000B0424DD00ADC3B4F002811D0FF385F38C7
:1033B00017D0062836D0082806D13AE0062955D07D
:1033C0000C295AD00F291AD00020E080A08027E0D5
:1033D0002F49142022390870FF205F30E0803868C0
:1033E000E0600820FEF7DCF80546FF21F531E068D3
:1033F000FEF7E0F805432804000CA08034D02078C4
:10340000002801D0FEF7E4F86078002801D0401EC3
:10341000607004210020FFF7F9FDFF206530E08097
:103420000220F8BD04210120FFF7F0FDFF206730E6
:10343000F5E708210220FFF7E9FDE6803868E06043
:103440000820FEF7ADF80646FA21E068FEF7B2F86C
:1034500006433004000CA08006D02946002000F06E
:10346000BBFCFF207030DAE70420F8BD29460120BC
:1034700000F0B2FCFF207630D1E70021022000F0FE
:10348000ABFCFF207930CAE7400200209001002009
:103490004E1700203802002002460F48824201D118
:1034A00008467047881A7F21C943884201DA0846D6
:1034B0000FE0802801DD80200BE0002809D0C10F3B
:1034C000431C5843C3175B0E1818C011002900D0C5
:1034D0004042101870470000FFFFFF7F30B5FF2308
:1034E00004780D789B1A5C4355436419E5172D0E3B
:1034F0002C192412047044784D785C4355436419A8
:10350000E5172D0E2C1924124470847889785C43B9
:1035100051436118CA17120E51180912817030BD3B
:1035200070B521490220214C0860E088204D002818
:1035300009D02049401814D0022826D00020E0806D
:10354000A080022070BDFDF7EFFEA078002801D119
:10355000FFF768F800F0F0FC16484042E080286869
:10356000A0620220FEF71CF806460721A06AFEF7BB
:1035700021F806433004000CA08013D000F0E8FBD3
:10358000E5208000E0802868A0620220FEF708F8AD
:1035900006460621A06AFEF70DF806433004000C2B
:1035A000A080D2D1042070BD40020020B4010020D0
:1035B000380200206EFCFFFF08B5FEF707F96948E6
:1035C000027B01680120000490404860674C664817
:1035D000606103210D1F2846FFF7E6FC0026A66167
:1035E0000720206102212846FFF7DEFCFEF728FDB8
:1035F0005F4C002801D001200AE0FEF72DFE0028D4
:1036000005D0FEF71DFD002801D0022000E00320B8
:10361000A0605848018901221203114301815548D5
:1036200040300189C21411430181534FB8890821E8
:103630000843B88151480068388000BF00BFFFF7D9
:10364000D5FA388000BF00BFB88908218843B88107
:1036500004276078042804D12670FFF717FD6070F6
:103660002570A078042805D101202070FFF758FFAD
:10367000A0702570E078042805D10220207000F0A9
:103680004FFAE07025702079042805D103202070BE
:10369000FFF77CFE207125706079042804D1277023
:1036A00000F0BCF860712570A079042805D10520D0
:1036B000207000F0E3FDA07125706178032914D01B
:1036C000A278032A16D0E378032B19D020798446F8
:1036D00003281BD06079864603281DD0A07900906E
:1036E00003281ED0022923D024E02670FFF7CEFC49
:1036F00060701BE001202070FFF712FFA07015E042
:103700000220207000F00CFAE0700FE0032020701F
:10371000FFF73CFE207109E0277000F07FF8607130
:1037200004E00520207000F0A9FDA071257090E74D
:1037300003216170022A01D10320A070022B01D164
:103740000320E0706046022801D1032020717046FA
:10375000022801D10320607100980228E7D10320DC
:10376000A07176E714460010FF7C000000E000E046
:103770002C0200200000054000000248000303481E
:10378000024908880988000408437047000002487D
:10379000FEB50446FFF7F4FFFF21012301319B0230
:1037A00001400340C2B2594301D0012700E0002785
:1037B000012101234902DB0201400340594300D0AB
:1037C00001218003400F019141004518002112485A
:1037D0006B18C65C66541818C37868464354491C75
:1037E0000329F4D301462046FFF778FE002F07D0C7
:1037F00000201F21225C0A432254401C0328F9D3D5
:103800000198002807D00020215C4906490E215468
:10381000401C0328F8D3FEBDA445001070B53F49F5
:1038200010203F4C0860E0880026002806D033288E
:1038300006D051286CD0E680A68067E03320E08077
:103840001020FDF7ADFE0004000CA08001D1042083
:1038500070BD3448A178334D405C491C0007000F0F
:103860000907090FE0701035A17000281AD001284F
:103870001BD002281DD003281ED0042821D00528E3
:1038800022D0062825D0072828D0FEF717FFE6709B
:103890002078E1780143083000062970000E20707E
:1038A00023D024E03E22204901E020493722681C31
:1038B00018E028221E49FAE71D4928222831681CF1
:1038C00010E03C221B49F2E71A493C223C31681CBB
:1038D00008E018493C227831681C03E015493C2275
:1038E000B431681CFDF7E9FBD2E7082020700D48D1
:1038F0003E211030FDF70EFE0A493F223031887715
:1039000020390D48FEF7D3FD5120E080022070BD24
:103910006078A17888429CD190E7000040020020A6
:1039200044020020101C00202C170020201B002027
:10393000E0190020301A002020060020F8B5324897
:10394000814202D2491C8FB200E0012772B6FF25E6
:10395000013529682D4888472E02B04201D1012047
:1039600000E000202A4C002820704AD0296829480D
:10397000884701210904884201D1012000E000208C
:10398000207000283DD00121FF2249022248FDF786
:10399000B4FB214E3E22378077802049301DFDF751
:1039A0008CFB304637221E494430FDF786FB3046FB
:1039B00050221C497C30FDF780FB3046F0221A492A
:1039C000CC30FDF77AFB301DFDF78EFD1749888757
:1039D0006A680E493046904701263604B04201D14C
:1039E000012000E00020207000280AD00F486A68FB
:1039F000084980389047B04201D1012000E0002002
:103A0000207062B6C0B2F8BDFFFF0000004E00108B
:103A10008A020020004F0010601C00202C1700209C
:103A2000201B0020E0190020301A0020E01D00209B
:103A300010B50B784A788978FEF71AFC10BDFFFFA5
:103A4000F8B5074608790D4641004618E878410068
:103A500040180090E8784100411814484418002F9D
:103A600004D1032221461248FDF727FB0098E11CF0
:103A7000321A2046FDF721FB002F0FD028790D497F
:103A80000A5C002A09D05031085C410041180748FF
:103A900009188019C01EFFF721FDF8BD0348032255
:103AA00080190349FDF709FBF8BD0000301A00201A
:103AB000C2010020571B0020F8B5074608790E46C2
:103AC00041004518F07841004418002F05D11148F5
:103AD000032241191048FDF7F0FA2A1B0D4D291950
:103AE0000C46C81CFDF7E9FA002F0DD0F0780B4901
:103AF0000A5C002A07D05031085C41004018411987
:103B0000E01CFFF7EBFCF8BD204603220249FDF75D
:103B1000D4FAF8BD301A0020BF010020571B002046
:103B2000F8B57B4904207B4C086020897A4F7B4E96
:103B3000DE287DD008DC002810D0BC2814D0D8287E
:103B400066D0DB2806D17BE0E42872D0EA2871D069
:103B5000EF2856D000202081E080C9E0FFF752F81E
:103B6000BC2020813868E0630420FDF719FD05467C
:103B70006421E06BFDF71EFD05432804000CE08086
:103B80007ED00220FF25205E0135FF30296A1230E9
:103B9000884700B26081002814D16088801C00B280
:103BA0006080FF30296A1230884700B260810028A7
:103BB00008D16088801C00B26080FF30296A123012
:103BC000884760810420205E296AFF3012308847D0
:103BD00000B2A081002814D1A088801C00B2A0806F
:103BE000FF30296A1230884700B2A081002808D12E
:103BF000A088801C00B2A080FF30296A123088475C
:103C0000A081FDF797FCA063D82020813868E0638D
:103C10000420FDF7C5FC05466421E06BFDF7CAFCF6
:103C200005432804000CE08034D0FDF713FF02E0C8
:103C30001CE045E05EE06063DB2020813868E063E3
:103C40000420FDF7ADFC05466421E06BFDF7B2FCF6
:103C500005432804000CE0801CD0FDF75FFE3071A6
:103C6000000A7071DE2020813868E0630420FDF7CF
:103C700097FC05466421E06BFDF79CFC054300E0E2
:103C800008E02804000CE08004D02548C17B00290E
:103C900002D009E00420F8BD7179327909060914CF
:103CA00011438174090AC174C17C807C090609141E
:103CB00001431848E181133000F082FAE42016E055
:103CC0001748417D002907D1717932790906091415
:103CD00011430176090A4176417E007E09060914E6
:103CE00001430C48E181163000F06AFAEA20208195
:103CF0000220F8BD0A48C17F807F090609140143EC
:103D00000448E181103000F05BFAEF20EFE700009B
:103D100040020020900200203802002051020020C2
:103D20002C170020084B10B5000108491C581A46F2
:103D300082180968002C01D0916000E05160195888
:103D4000491C195010BD0000A8170020380200209F
:103D5000F8B51D4F1024B878002801D01B4924E085
:103D60001B48055DFF307830465D002E18D0680096
:103D70002918174803225030091813481730FDF747
:103D80009CF914483246405D4100411810485030BB
:103D900009180D481730FFF7A1FB0B49173104E054
:103DA000680029180A48503009182046FFF740FEDD
:103DB000641C502CCFDB72B6C0210548C03800F01F
:103DC000E3FA62B6F8BD0000B4010020A04500107F
:103DD000E0190020A71B0020F8B505460620504B2F
:103DE0006843C3184E4E1C460F344E4FD87B2036C6
:103DF000022D06D0012829D0032827D0052825D058
:103E000029E0484980071631800F05D0012805D0E8
:103E1000022819D000202070762000E0AA206071CE
:103E2000307848703078087100206070A070887019
:103E3000C87020780870B87E3B494843FF217F3026
:103E4000FDF708F9044666E0FF20E8E7FF79002F58
:103E50000BD0012812D0002809D0012847D80878B3
:103E6000000290420DDB48783CE0002020702D4895
:103E700082794079120612140243F0E712229A5E08
:103E8000EDE77678700040182038837F1B0293425C
:103E900001DCC07F26E0012027E04300CB5C1B0251
:103EA0009A4203D14000401840781BE09A421BDA46
:103EB000400040180646203EB17F40780F02D91BD3
:103EC00010D0F67FD21B801B5043CA0F52185210DD
:103ED0001018FDF7D5F8801901D5002002E0FF2861
:103EE00000DDFF20607102E0401C8642D5DC2846E0
:103EF00000F086F80C490C1A002D04D0012D06D0D4
:103F0000022D0CD107E021460848FDF79FFE21460F
:103F10000748FDF79BFE21460648FDF797FEF8BDD2
:103F20002C170020500200201027000088050020D8
:103F3000B005002060050020F0B5002787B03E46A0
:103F40003D463C4628488078002806D02648032273
:103F500026491430FDF7B1F821E025482549005DD8
:103F60000190085C0090019803224100411820480C
:103F7000503009181C481430FDF79FF800980028AD
:103F80000DD01C4901985031085C009A410041183D
:103F900017485030091814481430FFF79FFA124898
:103FA00014300178C9198FB24178807889198EB29E
:103FB00040190D4985B214312046FFF739FD641CC4
:103FC000102CBFDB08480021C761066245620A4821
:103FD000C943416400210160014624220748FEF7DD
:103FE000A4F807B0F0BD0000B4010020A045001007
:103FF000E0190020571B0020D818002014060020CC
:10400000F0B50746062039464143664885B00D188D
:10401000F900CA1B6449FF24511808310091C17886
:104020006248A4004143224601A80F35FDF73CF841
:104030005C4839017C3009188889029A019E8018F1
:1040400000B28881A04202DD001B8881761C0098A6
:1040500029780170009869794170A9786A78090215
:104060001143009A681C9170090AD1707900504A76
:104070000491545A29780391042911D005290FD0AD
:1040800068794A494843FF21FCF7E4FF0399090690
:10409000090F0A2921D0811BA14220DDA41922E0A9
:1040A000434AB90008325158424A91421BD04278E3
:1040B0000378100218430246963A8A42EEDC421F09
:1040C0008A4201DD241D0EE0024696328A4209DB57
:1040D000401D884207DA241F05E0044603E08119E9
:1040E000A142FADAA41B314D022F14D02E487D26AE
:1040F000827941791006001408438030C117090EF7
:104100000818284900128A793601824208DC264ABA
:10411000012353770FE02848844230DA044631E027
:104120004A79824203DD20480021417719E01E4A86
:10413000527F002A15D0CA7982420DDA097A891A8B
:1041400000D54942002908DD801A7D2292015043A2
:10415000FCF796FF801900E0304684420FDA0446EF
:104160000DE0134810384078002804D10398022845
:1041700001D0042803D1B44201DA344602E0AC4253
:1041800000DD2C4620020D49001B40182946FCF793
:1041900077FF0099064A08710499A0B2505205B001
:1041A000F0BD00002C170020500200201027000056
:1041B000A0010020FFFFFF7F131200008813000002
:1041C000F3B5214D0C46E8792E460002083681B041
:1041D000A04214DD0322291D0198FCF76EFFE97847
:1041E0000802A04228DAEA79201A511ACA0F521896
:1041F00052101018FCF744FFC2B2314619E0E87AB9
:10420000114F00020C37A04217DD032231460198FE
:10421000FCF753FFE9790802A0420DDAEA7A201A86
:10422000511ACA0F521852101018FCF729FFC2B2C7
:1042300039460198FFF752F9FEBD0322394601982D
:10424000FCF73BFFFEBD0000201B00200A4A1018AF
:10425000C07B50280ED242008018074AC0B20B78AB
:10426000F03A1354401CC0B24B781354401CC0B2F7
:104270008978115470470000201B0020F8B5384998
:104280002020384C0860A088374D384E002808D0D0
:10429000162823D0212853D00020A080608002203F
:1042A000F8BD3349C879002801D0401EC87128786C
:1042B000002820D0FDF7D0FF002806D0FDF7C0FE73
:1042C000002802D00020287015E0012030700F2057
:1042D00020701620A08027480068A0602020FDF7ED
:1042E0005FF907462449A068FDF764F907433804DD
:1042F000000C608032D02878002815D11F488078C3
:10430000002811D11E48007800280DD11D480068F2
:10431000032809D0207800280BD0401E2070C0B29E
:10432000042806D9012005E020780F28F7D2401C88
:10433000F4E7002030702120A0800E480068A060C3
:104340002020FDF72DF907467D21C900A068FDF763
:1043500031F907433804000C6080A2D10420F8BD75
:1043600040020020D002002088020020B601002078
:104370005002002038020020701700009801002031
:104380009002002034020020F0B50127154ABF0535
:1043900040251346013924D40478012630442406EC
:1043A000082600BF00BF00BFBFF36F8F64001F600F
:1043B000BFF36F8F00BF00BF00BF00BF00D215600A
:1043C00000BFBFF36F8F013E1560E3D000BF00BF99
:1043D000BFF36F8FBFF36F8F00BF00BF00BF00BF81
:1043E000E4E7F0BD040004401400FF05002D32375F
:1043F0004100000000000000E80300003300E80373
:1044000000003301CA080000AA071D331E401F4DDB
:10441000207321AD22D923FF00000000000000001E
:1044200000000000000000FF0019FF00002800FF4E
:1044300000410000FFFFFFFFFFFF096606000B00C1
:10444000000000000000000000000000000000006C
:104450000000000000000000FF000000000A01044E
:104460000705060708090A0B0001020304000306FA
:104470000902030405060708090A0B0001000306E8
:104480000902030405060708090A0B0001000000E1
:10449000000000000000000000000000000000001C
:1044A0000000000000000000000000000000FF15F8
:1044B0007F7F00FA0006DB0032D70058F6007694C2
:1044C00000B40000FF004AFF0094FF00DFFF00FF80
:1044D000AA00000000000000000000000000000032
:1044E00000000000000000000000000000000000CC
:1044F00000000000000000000000000000000000BC
:1045000000000000000000000000000000000000AB
:10451000000000000000000000000000000000009B
:10452000000000000000000000000000000000008B
:10453000000000000000000000000000000000007B
:10454000000000000000000000000000000000006B
:10455000000000000000000000000000000000005B
:10456000000000000000000000000000000000004B
:10457000000000000000000000000000000000003B
:10458000000000000000000000000000000000002B
:1045900000000000000000000000000000FFFFFF1E
:1045A0000000FF000000FF0055AA00AAAA00FF00BB
:1045B00055AA00FF0000AA00555500AA0000FFFF01
:1045C0001F0000000F0000000300000005000000B5
:1045D0000000000010000000000000000C0300209C
:1045E000000204400800000000010000000001007B
:1045F00000000000000004408000000001000000F6
:104600000500000000000440C000000000000100A0
:1046100000000000000004408000000000000100D5
:104620000600000000000000000000000000000084
:1046300000000000000000000006014000020440ED
:104640001000000000000000000000002D0100002C
:1046500005030002000100000006014000020440C2
:104660001000000000000000000000001D0100001C
:104670000403030109010000000601400002044098
:104680001000000000000000010000000D0000000C
:10469000030302000601000060BB8151C0B3309EDD
:1046A000BAF101009846001001000000000000006F
:1046B000000001000000010000000100A000000057
:1046C0000000010001008D05000000000000000056
:1046D0000000000000000000B0460010B4460010CA
:1046E000B8460010000000000000000000000000BC
:1046F000000000010000000000000008A8460010B3
:10470000010000000000044007000000BC4600104B
:104710005005002001000000000000000000010022
:104720000000010000000100A000000000000100E6
:1047300001008D051C0100000000000000000000C9
:10474000000000001C470010204700102447001004
:104750000000000000000000000000000000000158
:1047600000000000000000201447001001000000BD
:1047700000000440090000002847001050050020F8
:104780000100000000000000000001000000010026
:1047900000000100A00000000000010001008D05E4
:1047A0001C010000000000000000000000000000EC
:1047B000884700108C470010904700100000000050
:1047C00000000000000000000000000100000000E8
:1047D00000000010804700100100000000000440AD
:1047E000080000009447001050050020000204401B
:1047F0000A000000000204400B000000B0000000AE
:10480000010000000000000000000000D8050020AA
:10481000651E0010EC470010E005002000000000BD
:104820000000000000000000000000000000000088
:1048300000000000F4470010FC47001000000000DA
:104840000000000000000000000000000000000068
:104850000000000000000000000000000000000058
:104860000000000000000000000000000000000048
:104870000000000000000000000000000000000038
:1048800000000000000000000000000000000080A8
:104890000202040001000000B0000000010000005E
:1048A00010000000010000000008070008080108CF
:1048B00000000000000004400F00000098480010B5
:1048C000A848001079230010F11800100000000023
:1048D00000000000000000000000000000000000D8
:1048E000B448001000020000060000000C4900104F
:1048F000000000202C06000058110010644C00102D
:104900002C0600206C390000FC2F00108D2F48FE73
:10491000E70411CA4710E904A920290C091E04095B
:10492000262C091268091A20890441320132021327
:104930004310331004320532063207320832095A66
:104940000A20320C5A0D0C1309232A10086904138B
:10495000BD181B10C7041AD104291032175A182C7D
:10496000CB15262C39404A27083221322232235ACD
:104970002430A9043229322A322B322C322D322E05
:1049800002142FE2502BD00702216DFFFFFF7F049E
:10499000812B0101FA01320236FF3CFFFF030111B6
:1049A000F203B2083310230A3A1495120F0A1F5A61
:1049B000892BFF7F04213A230CC1A99C13D84512EF
:1049C0001052011481DC021B20E4041AE8041ACC02
:1049D000181AC004133C052B20C424314B020429AF
:1049E00000FF002110422063308440A550C660E7DC
:1049F00070088129914AA16BB18CC1ADD1CEE1EF94
:104A0000F13112100273325222B5529442F772D62B
:104A100062399318837BB35AA3BDD39CC3FFF3DEE3
:104A2000E36224433420040114E664C774A444857B
:104A3000546AA54BB528850995EEE5CFF5ACC58D33
:104A4000D55336722611163006D776F6669556B4CB
:104A5000465BB77AA719973887DFF7FEE79DD7BC83
:104A6000C7C448E5588668A778400861180228231B
:104A700038CCC9EDD98EE9AFF9488969990AA92BD3
:104A8000B9F55AD44AB77A966A711A500A333A126B
:104A90002AFDDBDCCBBFFB9EEB799B588B3BBB1A23
:104AA000ABA66C877CE44CC55C222C033C600C41BB
:104AB0001CAEED8FFDECCDCDDD2AAD0BBD688D4973
:104AC0009D977EB66ED55EF44E133E322E511E700B
:104AD0000E9FFFBEEFDDDFFCCF1BBF3AAF599F78C3
:104AE0008F10148891A981CAB1EBA10CD12DC14EB0
:104AF000F16FE18010A130F0C230E3200450254076
:104B000046706760B9839893FBA3DAB33DC31CD3A7
:104B10007FE35EF3B1029012F322D2323542145297
:104B200077625672EAB5CBA5A89589856EF54FE5F3
:104B30002CD50DC5E234C324A014810466744764E7
:104B400024540544DBA7FAB79987B8975FE77EF747
:104B50001DC73CD7D326F2369106B0165766767637
:104B6000154634564CD96DC90EF92FE9C899E98913
:104B70008AB9ABA94458654806782768C018E10887
:104B80008238A3287DCB5CDB3FEB1EFBF98BD89BE7
:104B9000BBAB9ABB754A545A376A167AF10AD01AD7
:104BA000B32A923A2EFD0FED6CDD4DCDAABD8BAD33
:104BB000E89DC98D267C076C645C454CA23C832C27
:104BC000E01CC10C1FEF3EFF5DCF7CDF9BAFBABF87
:104BD000D98FF89F176E367E554E745E932EB23E77
:104BE000D10EF01EFFFF102A2105711310050210CF
:104BF00020130E03332002132446192A830348335B
:104C000002012C90D00307213A04183AC424190C4D
:104C10001A02041919295B2951B2402310275B306D
:104C200047281A04042A031509102923421F6A9CE5
:104C3000282A035431296D2908CA04283CD0DD06EE
:104C4000145AB823796C011B4C0407052E12021468
:104C5000480C484B10F0FC1B48C00C13601E0200AF
:104C600020000000FFFFFFFFFFFFFFFFFFFFFFFF30
:104C7000FFFFFFFFFFFFFFFFFFFFFFFFFFFFFFFF44
:104C8000FFFFFFFFFFFFFFFFFFFFFFFFFFFFFFFF34
:104C9000FFFFFFFFFFFFFFFFFFFFFFFFFFFFFFFF24
:104CA000FFFFFFFFFFFFFFFFFFFFFFFFFFFFFFFF14
:104CB000FFFFFFFFFFFFFFFFFFFFFFFFFFFFFFFF04
:104CC000FFFFFFFFFFFFFFFFFFFFFFFFFFFFFFFFF4
:104CD000FFFFFFFFFFFFFFFFFFFFFFFFFFFFFFFFE4
:104CE000FFFFFFFFFFFFFFFFFFFFFFFFFFFFFFFFD4
:104CF000FFFFFFFFFFFFFFFFFFFFFFFFFFFFFFFFC4
:104D0000FFFFFFFFFFFFFFFFFFFFFFFFFFFFFFFFB3
:104D1000FFFFFFFFFFFFFFFFFFFFFFFFFFFFFFFFA3
:104D2000FFFFFFFFFFFFFFFFFFFFFFFFFFFFFFFF93
:104D3000FFFFFFFFFFFFFFFFFFFFFFFFFFFFFFFF83
:104D4000FFFFFFFFFFFFFFFFFFFFFFFFFFFFFFFF73
:104D5000FFFFFFFFFFFFFFFFFFFFFFFFFFFFFFFF63
:104D6000FFFFFFFFFFFFFFFFFFFFFFFFFFFFFFFF53
:104D7000FFFFFFFFFFFFFFFFFFFFFFFFFFFFFFFF43
:104D8000FFFFFFFFFFFFFFFFFFFFFFFFFFFFFFFF33
:104D9000FFFFFFFFFFFFFFFFFFFFFFFFFFFFFFFF23
:104DA000FFFFFFFFFFFFFFFFFFFFFFFFFFFFFFFF13
:104DB000FFFFFFFFFFFFFFFFFFFFFFFFFFFFFFFF03
:104DC000FFFFFFFFFFFFFFFFFFFFFFFFFFFFFFFFF3
:104DD000FFFFFFFFFFFFFFFFFFFFFFFFFFFFFFFFE3
:104DE000FFFFFFFFFFFFFFFFFFFFFFFFFFFFFFFFD3
:104DF000FFFFFFFFFFFFFFFFFFFFFFFFFFFFFFFFC3
:044E0000190CFFFF8B
:0400000510001019BE
:00000001FF
