:020000041000EA
:10100000A03E00202D100010000000000000000095
:1010100000040100000000800348854600F08AF8C3
:1010200000480047E9350010A03E00200549064A67
:1010300030200A600431401EFBD104488047044838
:101040000047FEE70000002000BFFEE7F32100108C
:101050001910001030B50B46014600202022012453
:1010600009E00D46D5409D4205D31D469540491BDC
:101070002546954040191546521E002DF1DC30BD25
:1010800070B500242546002801DA012440420029D9
:1010900001DA01254942FFF7DDFFAC4200D04042B2
:1010A000002C00D0494270BD10B50B4604461146D5
:1010B0001846FFF7E5FF03C410BD10B5431A93426D
:1010C00009D28318881803E0401E01785B1E19704E
:1010D000521EF9D210BD03460B439B0703D009E013
:1010E00008C9121F08C0042AFAD203E00B78037063
:1010F000401C491C521EF9D210BDD2B201E0027050
:10110000401C491EFBD270470022F6E710B513467B
:101110000A4604461946FFF7F0FF204610BD03219A
:10112000001D401E037812021A43491EF9D51046CD
:101130007047FFFF064C0125064E05E0E36807CC2B
:101140002B430C3C98471034B442F7D3FFF768FFA9
:101150000C4A00102C4A001070B58C180578401C01
:101160006B075B0F01D10378401C2A1106D102786E
:10117000401C03E006780E70401C491C5B1EF9D130
:101180002B0705D40023521E0DD40B70491CFAE71F
:101190000378401CCB1A921C03E01D780D70491C8B
:1011A0005B1C521EF9D5A142D8D3002070BDFFFFB1
:1011B000F8B50446007E02286FD1E06800F072FBAB
:1011C000A16800230E4637781946394377780546DB
:1011D0003F023943B778F678E0683F043943360672
:1011E00040681A46314301F001FEA16800220E4614
:1011F0003778114639437778E0683F023943B7784A
:10120000F6783F043943360640680123314301F044
:10121000EDFDE0686168406801F0B2FDE06805221C
:1012200041682068D201406889180068086000267B
:101230002068B1004058E16842794B680179890023
:10124000C918FF3181310B68012797403B430B6080
:101250000068002802D000F057F80543761C3606D7
:10126000360EE5D0E068617E406801F0C9FD216975
:1012700008784A6840B2FF2100280FDB86081F4B20
:10128000B600F61833688007C00E81408B43910783
:10129000090E81400B43336011E02DE003071B0F63
:1012A000083B9E08164BB600F318DE698007C00E97
:1012B00081408E439107090E81400E43DE61206913
:1012C000007840B2002805DBC106C90E0120884025
:1012D0000C4908606069002800D08047A07E002883
:1012E00009D0E0684068FF30FF30023041680122D9
:1012F0005202114341602576207EF8BD00E400E0F3
:1013000000ED00E000E100E010B504464068007820
:10131000002806D12068002800D08047616801209D
:101320000870002010BD02780021002A01D101229E
:1013300002700846704710B500F036F810BD10B5C1
:10134000040019D0207CE268616882400A40C240F3
:1013500062602068017B437B994201D1104604E022
:101360000168104600F079F860602168897B484088
:10137000E1680840606010BD002010BD002811D059
:10138000036801221978491E8A40511E1143826068
:10139000C16000220261587B084000D001205873D0
:1013A0000020704701207047F0B5076804468BB0F5
:1013B000B86860600D4621690391019161690791E8
:1013C000A1691646002002913EE029788C46397BBF
:1013D00008910129616814D0019A3B78083A9A185B
:1013E000D14062465140029AC9B25143079A8918C6
:1013F00000913968082906D0102907D020290BD080
:1014000013E0019AECE7009800780EE0009841782C
:1014100002780802104308E00098FFF780FE009968
:101420000002C978000A0906084308990129616881
:101430000ED0039A08239A1A9140E268039B414018
:101440009A4011406D1C6160761EBED20BB0F0BD9B
:10145000090A4140E268019BF2E70246C00710B565
:10146000C00F012305E05208D4074000E40F2043D9
:101470005B1C8B42F7D310BD0A4610B501460648E7
:10148000FFF759FF0448FFF75AFF401C034980B299
:10149000884200D1002010BD30050020FFFF000071
:1014A00030B5034600200246044C03E09D5C4540F5
:1014B000605D521C8A42F9DB30BD00003C06002012
:1014C00010B5164C0022216AE0692262E261144ADA
:1014D00000025143CA0F521852108018FFF7BAFD8C
:1014E0006421803848430F4AA16A914209D0D12231
:1014F00051432F22504308188030C117090E081895
:10150000001205214902084A4118A062914201D304
:10151000012100E00021217000B210BDA0020020D6
:1015200033030000FFFFFF7F01690000034A01460B
:101530001369184013698B43136170473802002008
:1015400008B5054AD268101A0090884201D30220DB
:1015500008BD002008BD000038020020F0B5344866
:10156000344B024601783C3A1170D9718378FF21DF
:10157000FF2B02D0C378D37081700379FF2B08D082
:101580004379537183799371C379D371037A137259
:10159000017141780027284B55293BD09F700021CD
:1015A00006240D4665432E18747AFF2C0BD0AD1817
:1015B0006C726407A40F012C34D0022C35D0032C9C
:1015C00001D0B489AC81491C0229E9DB417DFF29A6
:1015D00002D05175018B1183C17EFF2918D0D176BD
:1015E00000214C002518A4186E7F66772D7F491CBA
:1015F00025770729F5DB00214C0025182035A41894
:101600002034EE7AE672AD7A491CA5720729F3DB25
:101610001F70F0BD99780029C1D10121074C997044
:101620002170BCE7B47BAC73CDE774896C81CAE7E9
:10163000781700205C020020900100209402002016
:10164000F0B5324900250A460D704C321078FF275C
:101650002F4EFF2801D0307017709078FF280FD0E0
:10166000002081008B188919DC78CC709C798C71F2
:101670005C794C711B79401C0B710328F1DB97706E
:1016800000201118CB7BFF2B02D03418E373CF73EB
:10169000401C0328F5DB1D486C30817C1C48203041
:1016A0008174907CFF2801D0B0749774D07CFF289F
:1016B00001D0F074D77400208100431899180C7D74
:1016C0009B191C758C7D4D7D24022C435C75240A6E
:1016D0009C750C7E1C76CC7DDC750D4C8500002342
:1016E000D83463532C19E370A370401C0F7506287F
:1016F000E2DB0649002044310B54401C0828FBDB88
:101700007078002801D053707370F0BDB4010020D0
:101710002C1B002010B50E480078002816D10C486C
:1017200050213730FFF7F0FC002001F01DFD0120B3
:1017300001F01AFD022001F017FD032001F014FD55
:10174000042001F011FD052001F00EFD10BD000088
:101750002C1B002010B52548FFF7E5FD002843D1DC
:10176000234800F0E3F800283ED1224800F042F977
:10177000002839D12048FFF71BFD002834D11F482D
:1017800000F038F900282FD11D4800F033F9002867
:101790002AD11C4800F0CAF8002825D11A4800F0C8
:1017A000C5F8002820D1194800F03EF800281BD1C8
:1017B000174800F015F9002816D1164800F0F0FB84
:1017C000002811D1144800F02FF800280CD113483C
:1017D000FFF7D4FD002807D1114800F065FD00286F
:1017E00002D1104800F020F810BD00001D030020B9
:1017F00058470010700500200003002098050020C5
:10180000C0050020784700109847001014470010CA
:10181000C447001024060020244700103005002093
:10182000300600203447001010B50446017B0068E4
:10183000221D01F01FF8627B217B206801F050F827
:10184000002010BD10B5012002F0EEFA10BD10B559
:10185000002002F0E9FA10BD10B50548054A0168FC
:10186000007B82404A60022002F0DEFA10BD0000D8
:10187000144700100100010010B507493F22087805
:10188000401C8006800E08700449800141180448FD
:1018900000F00DFD10BD0000800100203C0700207D
:1018A0003006002010B50446007C022813D12168C0
:1018B000606801F079FAA068026C016C03239B0256
:1018C00099430A430264607C012802D1606801F0F8
:1018D000A7FA00202074207C10BD10B50446407B80
:1018E00000280BD1217BA06800F080FEA068C168B1
:1018F000FF2201321143C16001206073002010BD3E
:1019000010B5094B0020C1B200224C000906C910D5
:10191000490F4C40521CE1B2082AF6DB1954401C16
:10192000FF28F0DD10BD00003C06002070B5044625
:10193000017F22464068083200F09CFF2246A17ECB
:101940001032206800F077FFE17E0122206800F06D
:1019500086FF18202056627EFF2100280EDB8508B6
:101960001B4BAD00EB181D688007C00E81408D43F6
:101970009107090E81400D431D6010E003071B0F06
:10198000083B9D08134BAD00ED18EB698007C00EB6
:1019900081408B439107090E81400B43EB61607FCF
:1019A000012812D118216156002905DBCA06D20E82
:1019B00001469140084A116018216156002904DB54
:1019C000C906C90E884005490860002070BD0000A6
:1019D00000E400E000ED00E080E200E000E100E073
:1019E00010B50024006800F087FF012800D0012412
:1019F000204610BD70B50446007F0125002802D0A6
:101A00000225284670BD2068C06CFFF766FF0028DD
:101A100002D000202077F4E72068816BA06800F0F6
:101A2000F7FD2068A168408848632068A168808825
:101A3000C8632068816B0968890103D5416B6068C0
:101A400000F0F2FE61682069086161686069086100
:101A5000204600F05CF8204600F0D0F820683C21D9
:101A6000095C012905D14421095C826C006C00F0FD
:101A700001FF26680125B16BF06C097900680A073F
:101A8000120F29469140FFF7E5FA2062257730785A
:101A900000250128B5D1204600F01EF80546B0E724
:101AA00070B50E460446217F0120002911D0094956
:101AB0008E420ED8A568286B8A1B80B2401C50430A
:101AC000FFF7C8FA80B2E863616820690861002006
:101AD000666270BD1027000030B5027F0121012A27
:101AE00001D0032A11D14168427BCC6801231D46F5
:101AF00095402C43CC60016820310978002901D140
:101B00008168CB60022101770021084630BD10B505
:101B10000446006801214269A06800F091FD206838
:101B200002218269A06800F08BFD20680321C26950
:101B3000A06800F085FD206820300178002903D0DE
:101B40004278A06800F035FE2068203081780029B6
:101B500003D0C278A06800F042FE206820300179EE
:101B6000002902D0A06800F0CAFD20682030417929
:101B7000002902D0A06800F0D1FD206820308179D2
:101B8000002902D0A06800F0B2FD20682030C179A1
:101B9000002902D0A06800F0C9FD20682030017A39
:101BA000002904D0837A427AA06800F0C7FD20683B
:101BB0002030817B03290FD1C27B017CA06800F01B
:101BC0001CFE20682030407B012805D1A0684169B7
:101BD0000122520411434161206801462031CA7A32
:101BE000022A0AD1097B032907D1C2698169A06849
:101BF00000F04BFDA06800F0EBFD10BD10B50446F1
:101C000000688179012908D1427B0021A06800F099
:101C1000AEFD0021A06800F07AFD2068C17901299D
:101C200008D1827B0221A06800F0A1FD0221A068FA
:101C300000F06DFD2068017A012908D1C27B0321E3
:101C4000A06800F094FD0321A06800F060FD20680A
:101C5000417A012907D1027CA06800F088FD0121AA
:101C6000A06800F054FD2068817A012908D1427CE7
:101C70000821A06800F07BFD0821A06800F047FD66
:101C80002068C17A012908D1827C0921A06800F06E
:101C90006EFD0921A06800F03AFD2068017B012952
:101CA00008D1C27C0A21A06800F061FD0A21A06869
:101CB00000F02DFD10BDFFFF70B52D4C2B492046C7
:101CC00000F00AFFE06B08218843E063606B0125A8
:101CD00028436063606B0F210906884308436063F3
:101CE000606B3F210904884308436063C80361694E
:101CF0000D22120791430143616160697F2109024E
:101D000088430026290208436061052231462046A7
:101D100000F004FF00220321204600F0FFFE002215
:101D20000421204600F0FAFE00220521204600F0A2
:101D3000F5FE206C00090001284320640B4A0D4D7C
:101D400008320A21284600F095FD00220A21284683
:101D500000F0C6FD084A0B21284600F08BFD00224A
:101D60001021204600F0F8FF304670BDE805002045
:101D700000020048000204401C490010F8B53B4F27
:101D800005460078F978884201D10120F8BDF87045
:101D9000FF21B970C00867D03E212846FFF780FBBD
:101DA000334908703E21495D814201D00220F8BDCF
:101DB0002878314E44072F48640F0179C278090210
:101DC0001143491CC170090A0171002C0FD0012C6C
:101DD0001ED0022C22D0032C23D0042C31D0052C71
:101DE00032D0062C34D0072C36D00520F8BD307800
:101DF000002839D16878FF2802D020483C2213E01F
:101E0000A878C1081F292FD14007400FB8702BE0D8
:101E10003078002828D11A48372205E019482822AE
:101E200002E01848283028221749124B0978D97146
:101E3000691CFFF742F90120002C11D0012C12D0AF
:101E400012E012483C22F3E710483C303C22EFE716
:101E50000E4878303C22EBE70C48B4303C22E7E7F0
:101E60000B49087000E030700020F8BD80010020B0
:101E7000920200205C020020B401002078170020AC
:101E800000020020EC1900203C1700203C1A002022
:101E900090010020F8B53348012606703248334FD0
:101EA00006700024C4213846FFF7E6FA304D2F496A
:101EB0006880BC310989A980884201D001241AE0D8
:101EC0003C2239462B48FFF7F8F83C2229492A489A
:101ED000FFF7F3F8254937223C312848FFF7EDF8A2
:101EE000372226492648FFF7E8F820495022743166
:101EF0002448FFF7E2F8244FF0213846FFF7BCFAF8
:101F000021496880DC31898AA980884201D0012476
:101F100006E0F02239461D48FFF7CFF8002C1DD00F
:101F20003C221B491448FFF7C8F83C2218491148C5
:101F3000FFF7C3F8372217491148FFF7BEF83722D9
:101F400014490E48FFF7B9F8502213490D48FFF71E
:101F5000B4F8F02211490D48FFF7AFF82046704061
:101F6000F8BD000090010020B4010020044E0010D4
:101F7000960200203C170020781700202C1B002020
:101F800000020020EC190020044F00103C1A002031
:101F90000C450010484500107F450010CF4500104B
:101FA00040684068004710B503465C6801208034F3
:101FB0002479022C02D1184600F002F810BDFFFF70
:101FC000F8B5054601260220AC6800297BD0002A1E
:101FD00079D0274620373B78002B75D12068082818
:101FE00000D9022601203870701E824062600020F5
:101FF000A161A060217F286800F09EFD68686030C4
:10200000007F002827D028680121C903FF30013054
:10201000816117E02868C11DF9314A69D204D20FE5
:10202000FBD17978012912D0A268A169022E10D0C3
:10203000895C227F92001018FF3081300160A06817
:102040008019A060A16860688142E3D326E020493E
:10205000EFE7895AEDE7286800F0EEFD8028FAD016
:102060007878012825D0A168A069022E29D0405C8B
:10207000227F29689200511880310860A068801979
:10208000A0602868816C4905FCD50122C16C9202D0
:102090001143C164A16860688142DCD3286800F004
:1020A000CBFD8028FAD0002038706060A0600BE083
:1020B00009E0074A207F29688000401880300260CC
:1020C000DCE7405AD4E7032001212034A170F8BD99
:1020D000FFFF000010B503484188034801F056FC9B
:1020E00010BD0000004E0010190C000070B5012456
:1020F000E40310282ADA224DAE884E4331196E8847
:102100002D8856435D4332192B191E4C09021202C9
:102110001B022478090E120E1B0E002C03D01A4C41
:10212000615CA25CE35CFF252D020C045D192C436D
:1021300015062C43154D800040194460104811438A
:102140003838427819438918417070BD0C4D1038E9
:10215000AD1DAE8880064E4331196E882D885643DA
:102160005D4332192B19800E44000019074C090CED
:10217000120C1B0C4834001902704170837070BD42
:10218000EC0100209C020020E4170020E41800204D
:102190000248C168491CC160704700003802002035
:1021A0000EB5044A6B4607CA07C3684600F0E6FB53
:1021B0000EBD00000847001010B5094908680968FD
:1021C0000004000E074CC9B2002806D000024118D6
:1021D0000548FEF73FFF400000E00448206010BDC6
:1021E00000030140FC3F0020000024F40048E80107
:1021F000704710B5FFF7FCFFFFF7D2FF10BDFFFFE0
:1022000070B5264E0025244A0E21304600F032FBE0
:1022100021490924E4060831204600F0A1FC0022EF
:102220001146204600F090FD00220321204600F0D8
:102230008BFD00220521204600F086FD00230622AA
:102240001946204600F0FCFC206C00090001801CAF
:102250002064114A0F21083A304600F00BFB00229F
:102260001021204600F078FD01221021204600F0C8
:10227000FFFC01221321204600F0FAFC08490868FF
:10228000FF221204904332011043086005491013E5
:102290000860284670BD0000C049001000000440DE
:1022A00008E400E000E100E040684068004710B545
:1022B00003465C6804202034A479002C02D118461F
:1022C00000F001F810BD70B50446656804232035A0
:1022D000AD798068002D2CD1457E0223002D28D1B8
:1022E000002925D0002A23D00261416001214176D6
:1022F0000021416160682030007A0028206810D0F9
:102300005903FF30013081611146204600F076F814
:10231000206803214907FF300130C2680A43C260C8
:1023200004E00321026C89030A430264002300E0F5
:102330000323184670BD10B503465C6804202034A2
:102340006479022C02D1184600F068F810BD70B50F
:1023500005468468406800262030007A002820D195
:102360002FE022696169914201D3084607E000F03D
:10237000EBFB6269616888546069401C6061216997
:1023800088420ED16676286803214907FF30013064
:10239000C2688A43C26068688068002808D08047A5
:1023A00006E0FF212868153109580907C90FD8D060
:1023B00021696069884203D2091A284600F01EF894
:1023C00070BD21696069884208D2286800F0BCFBB2
:1023D0006269616888546069401C60612169884253
:1023E000EED1667628680321026C89038A43026471
:1023F000686880680028E3D0804770BD10B54268E7
:102400002032137A01229A40914201D24A1E00E002
:10241000521E0068194600F036FC10BDF8B504469F
:10242000032016460F46002936D0002E34D0A1686E
:1024300002200A7E002A2FD1012008766068203011
:10244000C079002805D020680121C903FF30013080
:10245000816100250FE02030C079002806D0206877
:10246000FF3001304169C904C90FFBD1795D206893
:1024700000F0B4FB6D1C6068B542ECD32030C0792D
:10248000002806D02068FF30013041690905C90FD6
:10249000FBD0A26800201076F8BDFFFF10B50248FF
:1024A000FFF755FF10BD00003006002070B524482E
:1024B0000078002801D0FFF7C3F8224801782048AF
:1024C0003830002905D02049018020494180204929
:1024D00003E02049018041801F4981801F488C21F1
:1024E000807C1E4C02464A431549203C3E310A80FE
:1024F000EA2242434A80020280188880A07C254656
:10250000F03D502804D241004018401901F068F90C
:10251000E07C502804D241004018401901F060F9D5
:102520000F49002001F032FF0E49012001F02EFF7B
:102530000D49022001F02AFFFFF7ECF870BD000002
:10254000B40100209C02002024DB000001FE0000FA
:1025500059A60000FFFF0000609F00004C1B0020F8
:10256000B5020020B8020020B202002010B50E49CA
:1025700011220A700F224A700C4A0D4B92781B7878
:1025800052001A430B4B07481B78401CDB001A43D0
:102590000B460C3B1B7A1B011A438A703622FEF74E
:1025A0008CFD10BD2C1C00205C0200209801002036
:1025B000A0020020940200200548006881B205486E
:1025C000C2698918C161016A491C01627047000033
:1025D00000030348A0020020034910B5884202D13D
:1025E000042000F015FA10BD0000044870B50D4637
:1025F0000446FFF7F1FFE068FF2101310843E06086
:102600002068032189038843A9030143216070BD29
:102610000A6842618A889204D20F120542600A79E0
:102620001207120F42628A881205120F02628A880C
:10263000D204D20F826109790906090FC16270477D
:10264000F0B50668491E4C002346032710333D466B
:102650009D40AE4355789D4035430B4616330126C9
:102660009E40B54396789E40234619339F40D478C8
:102670002E439C408B00BE430F21344399408C4332
:102680001178994021430160F0BD10B5046803231F
:102690009B049C434B789B04234303242405A343BE
:1026A000547824051C430123DB059C438B78DB0510
:1026B000234301242406A343947824061C430323C4
:1026C000DB069C43CB780978DB06234303246407AD
:1026D000A343D478090164071C43F0239C431B01E6
:1026E00012782143994312020A43026010BD4268E6
:1026F00003239B039A438903114341607047426857
:1027000003239B029A438902114341607047803042
:10271000426A01238B401A43426270474268032396
:102720001B029A4309021143416070474268032328
:102730001B039A43090311434160704770B5446914
:1027400045680326B604B543890429434160012145
:102750000906012A06D08C430121C905002B03D0AC
:102760000C4302E00C43F7E78C43446170BD10B5A5
:102770008030846A0B0000F061FB0A060609091428
:102780001414140C1014032300210DE00C23022157
:102790000AE003231B02082106E003239B020A210F
:1027A00002E003231B030C219C438A4022438262E4
:1027B00010BD43689B089B000B43436041690123A4
:1027C0009B02012A02D09943416170471943FBE7FC
:1027D000416801221204914311434160704710B5D2
:1027E00043680C24A3438900194341604169A30154
:1027F000994312020A43426110BD10B54368012497
:102800006404A3432343436043692401002A01D0A5
:10281000234300E0A34301229205012902D0934300
:10282000436110BD1343FBE702680B0C9A4389B266
:1028300011430160704770B515460E46044600F01E
:102840000DF82168B0000F22824091432A6882402F
:102850001143216000196968016170BD70478900EA
:102860000818016A302392079943920E11430162BE
:102870007047FFFFF0B58B089B001C1823698D077C
:10288000ED0EF826AE40B343AC462361436F4E00D5
:102890000325B540AB434367CB089B001B181E6C58
:1028A0004D07ED0E0427AF40BE431E645678AE4080
:1028B0001D6C2E431E64094B984204D1036E012502
:1028C0008D40AB43036653688B404360107861468C
:1028D0008840216908432061F0BD000000020440E7
:1028E00010B5436F490003248C40A3434367436FF3
:1028F0008A401343436710BDF8B505460126022000
:1029000000F02CF8144CA18908200143A18100217A
:102910004A00AA5A2280A288D207D20FFBD0491CB3
:1029200089B20529F4D3A1898143A1812188684610
:1029300001802188018021880180218802880A4045
:102940000280A87A00F00AF8A0894007800F00D121
:1029500000263046F8BD00000000024803498A897D
:1029600006239A43400002438A81704700000248D0
:102970000148006870470000FC3F002010B5024687
:1029800000F0A0F851689068084307490B680F24CD
:102990002404A3431843086000F086F811785078A7
:1029A00000F004F810BD00000003014070B50A46B5
:1029B000054600F087F8124C206821680004000EDC
:1029C000104B114E194011433143216021684900D9
:1029D000FCD4A842294602D800F02AF801E000F011
:1029E00043F8206809490840290208433043206021
:1029F00020684000FCD400F057F8FFF7DDFB70BD05
:102A00000003014000FF0FC00000F03FFF000FC0B7
:102A100000B5024600F056F8044908691043086101
:102A200008684000FCD400F03FF800BD00030140FE
:102A300070B50A4A0A4C0B4D0CE0002800D1012069
:102A4000136880002340060233432B43136013684E
:102A50005B00FCD483008B42EFD370BD00030140C8
:102A6000FF000FC00000F03F70B5094A094C0A4D45
:102A70008B0009E011688008214006023143294398
:102A8000116011684900FCD48342F3D370BD00008B
:102A900000030140FF000FC00000F03F0148008824
:102AA00070470000401001400149C3204862704750
:102AB0000000014002488188012211438180704753
:102AC000201001400348C0214162416A4907FCD4FB
:102AD000704700000000014070B50C46054600F04C
:102AE00091F82079002804D102222846216800F0BC
:102AF000DDF80948686351200001A86320790028A7
:102B000003D160790B210843E8630020C043E864E7
:102B1000E088286470BD000002013F0789000818A2
:102B2000C1694023994310231943C161C169C90890
:102B3000C9001143C1617047026CC02389079A43E1
:102B4000090E0A4302647047C11DF931CA68520177
:102B5000520F02D0C86980B27047406DFBE7FFFF9B
:102B600070B50D460446102600F04CF8E8790028B0
:102B700000D0064632462046296800F097F8A8792A
:102B8000710809024000FF31801E01310843032112
:102B900000220904D243401C0843E06328790E490F
:102BA000000640186063697901200004002905D0FF
:102BB000636B0904081A0343636305E0616B2B79B7
:102BC0001B04181A0143616305200002A063E2643C
:102BD0002889206470BD0000020100FFFF22093235
:102BE00012585201520F02D0FF30813008E080238A
:102BF000826B1A40802AFBD001225203C2648030CB
:102C00000160704710B504460920C006844202D016
:102C10000748844202D1074800F0A8F80320E0608A
:102C2000E068C007FCD0206C00090001206410BDE2
:102C30000002004808000048806B8021084070476F
:102C400030B5FF300130C46807252D06AC43C460A1
:102C50001B020B4311060B43C168044A11400B438E
:102C6000012109070B43C36030BD0000C0C0FFEF66
:102C700010B5FF300130C36807248C40A3438A405D
:102C80001343C36010BD10B5FF300130C368072483
:102C90002406A343C360C3683F2424021202A34353
:102CA000134309060B43C36010BDFFFFF7B584B0A3
:102CB00017460C46642941D3002F3FD0FFF758FE3A
:102CC0006421FEF7C7F9064664212046FEF7C2F9E3
:102CD00001211B4C78430291054600940191304636
:102CE00029466043FEF7B6F9014689050122800AAC
:102CF000890D9202904205D2009A914202D202942A
:102D000000910190641EEAD101210298C903084391
:102D100004990861049840690A49BA0208400121EF
:102D20008902511A08430199012209041204891ADF
:102D3000084304994861002007B0F0BD0120FBE77B
:102D4000FF030000EF8000FC89000818C169C90872
:102D5000C9001143C161704710B5836907248C40D5
:102D6000A3438A401343836110BDFFFF034910B59D
:102D7000884202D10820FFF74BFE10BD0800004832
:102D8000054B4A68FF301A43FF3002300260896801
:102D900001221143416070470080800010B501207E
:102DA000FFF736FE10BDFFFF70B50C460546FFF776
:102DB000F5FF206928602846803061680162A168BB
:102DC00041620521C9016918E06808600549086881
:102DD0000122D2031043D21090430860024901201F
:102DE000086070BD4040034800050140034A11409F
:102DF0009A00101880300162704700001F07000021
:102E0000042900D3091FFF300130026C0F231B047B
:102E10009A430264026C09040A4302647047FFFF8C
:102E2000803001680122D207114301600248016825
:102E3000090F0329FBD070474040034830B4744663
:102E4000641E2578641CAB4200D21D46635D5B00A6
:102E5000E31830BC1847FFFF8307FF22DB0E9A40C0
:102E60008907090E9940002808DB830809489B0060
:102E70001B18186890430843186070470007000F3C
:102E80000838830804489B001B18D86990430843FE
:102E9000D861704700E400E000ED00E002E008C8FF
:102EA000121F08C1002AFAD170477047002001E0C4
:102EB00001C1121F002AFBD17047FFFFF8B58E46F3
:102EC0001A4904460301C858194EA500002819D014
:102ED0005A185768401EBC4697680022CA503146AF
:102EE00010390A556146791A72465143114A5043C6
:102EF0004A088018FEF7AEF801467059224600F0E5
:102F0000BDFA05E00A481038015D00290AD000200A
:102F10007051E100084A091B705B89184873000A68
:102F20008873F8BD01210155F3E70000B4170020B4
:102F3000A801002060EA00005C020020F0B53F49D3
:102F40003D48497D022902D0002902D003E03C48D7
:102F500001E03948BE303B49FF230A683A493B3318
:102F60004A433A49FF2452181213801A384A7D34D2
:102F700012685A4352181213801A364A962312685E
:102F80005A4351180913431A3348C26A991A6143C4
:102F9000324C0919091406D1934200DD01219342F4
:102FA00001DA0021C94356182D49C662FF240A6878
:102FB000E400121B00250A60002A00DA0D60294A8D
:102FC00013681B1B136000D51560274B1F683C1B43
:102FD0001C6000D51D600C68FF212D314C43234936
:102FE0001268C82564186A43641352186442521365
:102FF000A21A1B68AF24634359184913036B511A73
:10300000C91A1D2901DD1D2104E01C22D243914271
:1030100000DA114642895B18D10951404A024A4000
:1030200092B2510B51404181C906C90E594001630A
:10303000701800B2F0BD000033FAFFFF3C1700200B
:10304000EBF7FFFFD0010020A10200000F080000F5
:10305000D4010020D8010020A0020020FF7F000042
:10306000DC010020E0010020E4010020FA0F000054
:10307000F8B532490120324C0860E0880026314D15
:10308000002807D08E2812D0962826D0E680A68069
:103090000220F8BDFEF734FC2B48C179142901D277
:1030A0001421C1718E20E08028480068E060012072
:1030B000FEF73CFA07463221E068FEF741FA074383
:1030C0003804000CA08013D02670667029463F2279
:1030D0001F48FFF7ECF89620E0800120FEF726FA63
:1030E00080B2A0802178627891421CD100281AD148
:1030F0000420F8BD8801491C40198906890EA0608A
:103100006170FEF73BFE13490028086000D00120E3
:103110001149124B08701249A27808781A54401CC1
:103120000007000F0870207861788842E2D10D48CE
:103130000168102211430160CDE700004C0200201D
:10314000800100203C0700205C0200204402002097
:103150003006002058020020930200201C1C002092
:103160005102002048020020FEB5054680007C493F
:1031700028184418277DA800D83146181434002F89
:1031800057D001E05038207120795028FAD801E05A
:103190005038E070E0785028FAD8B9094ED0691E4E
:1031A00049077048490F405C002842D03088401CD5
:1031B00080B23080A278637811021943884239D3F3
:1031C0002079410040180090E07841004418B8068A
:1031D000800E401C4100401801900098844202DD9E
:1031E0002046009C009078065F4F07D55D4839194E
:1031F00003223338FDF761FFE41C12E0009803223C
:10320000391858483338FDF758FF0098C01E009011
:1032100007E05449381903223339FDF74EFF01986E
:10322000241800988442F4DD4E48012141550020C5
:103230003080FEBD4B4900204855FEBD7907C90FBF
:103240000091A378617832881B020B43D11831803A
:10325000002144483FE0434901204855318882031A
:10326000891A3180F94389070FD0B907890F0229DC
:1032700035D001294ED03B483C38405D002832D043
:103280002146009800F046FC31E0364821463C38A3
:10329000405D0028009802D000F03CFC01E000F006
:1032A000FDFB2079E178401AC0B2F90601D5401E35
:1032B000C0B2B90601D5401CC0B2B178491C49B2B0
:1032C000B170814213DB0020B07026483C38415D6C
:1032D000002902D00021415509E00121FBE72148E6
:1032E00000213C3841552146009800F0D7FB318839
:1032F0001E488142AFD838079FD58804020E19486E
:10330000174B3C383733405D19465031002814D0F4
:10331000207907E013493C394855B1E71A54451E56
:103320000D54401EE5788542F8DB0098002884D1D2
:10333000E8B21A542079E2780FE0E07803E01A54FA
:10334000451C0D54401C25798542F8DC0098002866
:10335000EDD1E8B21A54E07822798854FEBD00001D
:103360002C1B0020F80100203C1A0020FF3F000029
:1033700070B53E4908203E4C0860E088FF26723652
:10338000811BB0424CD00ADC3A4D002811D0FF38E6
:10339000673816D0062835D0082806D139E0032929
:1033A00055D006295BD00A2919D00020E080A080E2
:1033B00026E0314914200870FF206730E08028683B
:1033C000E0600820FEF7B2F80546FF21F531E0681D
:1033D000FEF7B6F805432804000CA08035D020780D
:1033E000002801D0FEF7BAF86078002801D0401E0E
:1033F000607004210020FFF761FDFF206D30E08048
:10340000022070BD04210120FFF758FDFF206F301E
:10341000F5E708210220FFF751FDE6802868E0600B
:103420000820FEF783F80546FA21E068FEF788F8E1
:1034300005432804000CA08007D00F4900201C3150
:1034400000F068FDFF207530D9E7042070BD0A49FF
:1034500001202A3100F05EFDFF207830CFE7002107
:10346000022000F057FDFF207C30C8E74C0200200E
:1034700090010020440200203C17002002460F4823
:10348000824201D108467047881A7F21C943884289
:1034900001DA08460FE0802801DD80200BE00028DB
:1034A00009D0C10F431C5843C3175B0E1818C01135
:1034B000002900D04042101870470000FFFFFF7F36
:1034C00030B5FF2304780D789B1A5C43554364198B
:1034D000E5172D0E2C192412047044784D785C43A6
:1034E00055436419E5172D0E2C1924124470847865
:1034F00089785C4351436118CA17120E511809129A
:10350000817030BDF8B531490220314C0860E08847
:103510000021002808D02F4A801831D0092845D032
:10352000E180A1800220F8BD2B4A00208300002109
:10353000D1529B18D970401C99700628F6DBFF22E7
:10354000C0212648FDF7D9FD002501277F052E461D
:10355000F6193801C01B070968002818310C4018FB
:103560000521FDF777FD1E4948556D1CFF2DEFD94C
:103570000020087017484042E0801A4800686063E5
:103580000220FDF7D3FFFF2105462D3113E0A0787F
:10359000002801D1FEF78AFF00F06AFD00F05AFC16
:1035A000F3208000E0800F48006860630220FDF790
:1035B000BDFF05460D21606BFDF7C2FF05432804E2
:1035C000000CA080E3D10420F8BD00004C020020D4
:1035D000B40100203DFCFFFF041C00202C1900203A
:1035E000E41700204402002008B5FEF7B3F86F4846
:1035F00001220168007B120482404A606D4C6C48D5
:10360000606103210D1F2846FFF726FC0026A661F6
:103610000720206102212846FFF71EFC664801684A
:10362000496A007BC140C807C00F00D00120634930
:103630000870FEF72FFC624C002801D001200AE040
:10364000FEF748FD002805D0FEF724FC002801D035
:10365000022000E00320A0605A48018901221203E1
:1036600011430181574840300189C214114301813F
:10367000554FB88908210843B881544800683880FC
:1036800000BF00BFFFF70AFA388000BF00BFB9894A
:1036900008208143B98104276078042804D126706A
:1036A000FFF7E6FC60702570A078042805D10120A2
:1036B0002070FFF727FFA0702570E078042805D15F
:1036C0000220207000F05AFAE0702570207904285A
:1036D00005D103202070FFF74BFE20712570607923
:1036E000042804D1277000F0C1F860712570A0791A
:1036F000042805D10520207000F060FEA07125701F
:103700006178032914D0A278032A16D0E378032B1A
:1037100019D02079844603281BD060798646032877
:103720001DD0A079009003281ED0022923D024E0C8
:103730002670FFF79DFC60701BE001202070FFF7F2
:10374000E1FEA07015E00220207000F017FAE07092
:103750000FE003202070FFF70BFE207109E02770B7
:1037600000F084F8607104E00520207000F026FE6F
:10377000A071257090E703216170022A01D1032016
:10378000A070022B01D10320E0706046022801D115
:10379000032020717046022801D103206071009837
:1037A0000228E7D10320A07176E70000344700101B
:1037B000FF7C000000E000E0244700109C02002095
:1037C00038020020000005400000024800030348C2
:1037D000024908880988000408437047000002482D
:1037E000FEB50446FFF7F4FFFF21012301319B02E0
:1037F00001400340C2B2594301D0012700E0002735
:10380000012101234902DB0201400340594300D05A
:1038100001218003400F0191410045180021124809
:103820006B18C65C66541818C37868464354491C24
:103830000329F4D301462046FFF742FE002F07D0AC
:1038400000201F21225C0A432254401C0328F9D384
:103850000198002807D00020215C4906490E215418
:10386000401C0328F8D3FEBDC446001070B53F4984
:1038700010203F4C0860E0880026002806D033283E
:1038800006D051286CD0E680A68067E03320E08027
:103890001020FDF74BFE0004000CA08001D1042095
:1038A00070BD3448A178334D405C491C0007000FBF
:1038B0000907090FE0701035A17000281AD00128FF
:1038C0001BD002281DD003281ED0042821D0052893
:1038D00022D0062825D0072828D0FEF747FEE6701C
:1038E0002078E1780143083000062970000E20702E
:1038F00023D024E03C22204901E020493722681CE3
:1039000018E028221E49FAE71D4928222831681CA0
:1039100010E03C221B49F2E71A493C223C31681C6A
:1039200008E018493C227831681C03E015493C2224
:10393000B431681CFDF7C1FBD2E7082020700D48A8
:103940003E211030FDF7ACFD0A493F223031887727
:1039500020390D48FEF7EFFC5120E080022070BDB9
:103960006078A17888429CD190E700004C0200204A
:10397000500200201C1C00203C1700202C1B0020A3
:10398000EC1900203C1A002030060020F3B5364820
:1039900081B0814202D2491C8EB200E00126FF2292
:1039A000541C21463148FDF7A8FB72B63048216807
:1039B00088472E4F044601203D460004C03584420E
:1039C00020D1019838803C467E803C222949381D10
:1039D000FDF773FB3846372227494030FDF76DFB72
:1039E0003846502225497830FDF767FBC421201D59
:1039F000FDF742FD2881FF20013042681C4938460E
:103A000090470446FF22511C1848FDF776FB012021
:103A10000004844204D10012016819488847044612
:103A200001200004844214D1019838803C467E80F5
:103A3000F0221449381DFDF740FBF021201DFDF751
:103A40001BFDA886FF20013042680D4907489047BA
:103A5000044601200004844201D1012000E000203E
:103A60000949087062B6FEBDFFFF00006C1C002013
:103A7000004E00103C1700202C1B0020EC190020E9
:103A8000004F00103C1A00209602002010B50B7861
:103A90004A788978FEF72AFB10BDFFFFF8B5074684
:103AA00008790D4641004618E8784100401800901A
:103AB000E8784100411814484418002F04D103222B
:103AC00021461248FDF7F9FA0098E11C321A204607
:103AD000FDF7F3FA002F0FD028790D490A5C002A70
:103AE00009D05031085C4100411807480918801975
:103AF000C01EFFF7E5FCF8BD034803228019034907
:103B0000FDF7DBFAF8BD00003C1A0020C2010020DE
:103B1000631B0020F8B5074608790E46410045189A
:103B2000F07841004418002F05D1114803224119B3
:103B30001048FDF7C2FA2A1B0D4D29190C46C81C66
:103B4000FDF7BBFA002F0DD0F0780B490A5C002A74
:103B500007D05031085C410040184119E01CFFF7C4
:103B6000AFFCF8BD204603220249FDF7A6FAF8BDD6
:103B70003C1A0020BF010020631B0020F8B5A049BB
:103B80000420A04C08602089FF218D31421A9E4FED
:103B90009E4E88427ED009DC002811D0FF3836388E
:103BA00015D0212868D0512806D1B1E0062A72D05C
:103BB0000C2A71D0112A57D000202081E0800EE11C
:103BC000FEF778FFFF20363020813868E06304205C
:103BD000FDF7ACFC05466421E06BFDF7B1FC054345
:103BE0002804000CE0807DD00220FF25205E0135F6
:103BF000FF30296A1230884700B2A081002814D112
:103C00006088801C00B26080FF30296A12308847CB
:103C100000B2A081002808D16088801C00B26080BA
:103C2000FF30296A12308847A0810420205E296A6B
:103C3000FF301230884700B2E081002814D1A088FC
:103C4000801C00B2A080FF30296A1230884700B281
:103C5000E081002808D1A088801C00B2A080FF303D
:103C6000296A12308847E081FDF72AFCA063FF2013
:103C7000573020813868E0630420FDF757FC054683
:103C80006421E06BFDF75CFC05432804000CE08038
:103C900075D002E061E089E0A3E0FFF74FF9A16B86
:103CA00045185B48A5630078002801D0FF35AF3583
:103CB0005848594900680968401858490968401827
:103CC000C02148435649FDF7DBF975210901081A5F
:103CD000616B884201D2491E6163884201D9491C47
:103CE000616300E04BE075200001814203D8692048
:103CF0000001814201D2606300E0606B4543E80A45
:103D0000FF30C130A063FF20873020813868E06336
:103D10000420FDF70BFC05466421E06BFDF710FC69
:103D200005432804000CE08029D070793179000621
:103D300000140843C117090F09180911411AA06B93
:103D4000C217120F1018001108183071000A707194
:103D5000FF208D3020813868E0630420FDF7E6FB0A
:103D600005466421E06BFDF7EBFB05432804000CDE
:103D7000E08004D02B48417A002902D009E00420D9
:103D8000F8BD717932790906091411430173090AE2
:103D90004173417B007B09060914014319482182C4
:103DA000153000F0ADFAFF20933017E01D48C17BBD
:103DB000002907D1717932790906091411438174F8
:103DC000090AC174C17C807C0906091401430D48AD
:103DD0002182183000F094FAFF20993020810220CF
:103DE000F8BD1048417E007E0906091401430548CC
:103DF0002182123000F084FAFF209E30EEE70000AE
:103E00004C020020A0020020440200205D0200209D
:103E10009C020020D0010020D4010020D801002005
:103E2000D02F00003C170020084B10B500010849B6
:103E30001C581A4682180968002C01D0916000E0D5
:103E400051601958491C195010BD0000B4170020CA
:103E500044020020F0B5002089B007460646102431
:103E60000546069027488078002806D0254803227A
:103E700025491730FDF721F921E024482449005D48
:103E80000190085C009001980322410041181F48EE
:103E9000503009181B481730FDF70FF9009800281B
:103EA0000DD01B4901985031085C009A410041181F
:103EB00016485030091813481730FFF701FB114915
:103EC00020461731FFF7E2FD202D09DA0D4806994B
:103ED000173002785118069141788078CF198619E9
:103EE000641C6D1C502CBDDB06480699C762066336
:103EF000816272B6C0210548C03800F0D7FA62B6B8
:103F000009B0F0BDB4010020C0460010EC1900203B
:103F1000631B0020F8B5054606204F4B6843C618C2
:103F2000344609344D4F707A022D06D0012829D02D
:103F3000032827D0052825D029E0484980071631D5
:103F4000800F05D0012805D0022819D0002020704C
:103F5000762000E0AA206071987E4870987E0871F3
:103F600000206070A0708870C87020780870B87EDB
:103F70003B494843FF217F30FDF76CF8044666E07B
:103F8000FF20E8E7FF79002F0BD0012812D000288E
:103F900009D0012847D80878000290420DDB487804
:103FA0003CE0002020702D488279407912061214DE
:103FB0000243F0E70C22B25EEDE7DE7E70004018AF
:103FC0002038837F1B02934201DCC07F26E0012062
:103FD00027E04300CB5C1B029A4203D1400040180B
:103FE00040781BE09A421BDA400040180646203E0B
:103FF000B17F40780F02D91B10D0F67FD21B801BF7
:104000005043CA0F521852101018FDF739F8801992
:1040100001D5002002E0FF2800DDFF20607102E0F2
:10402000401C8642D5DC284600F086F80C490C1A64
:10403000002D04D0012D06D0022D0CD107E0214621
:104040000848FDF72DFD21460748FDF729FD2146CB
:104050000648FDF725FDF8BD3C1700205C02002056
:104060001027000098050020C005002070050020E2
:10407000F0B5002787B03E463D463C46284880784C
:10408000002806D02648032226491430FDF715F8EB
:1040900021E025482549005D0190085C00900198C9
:1040A0000322410041182048503009181C481430A0
:1040B000FDF703F8009800280DD01C4901985031F5
:1040C000085C009A410041181748503009181448FC
:1040D0001430FFF7F5F9124814300178C9198FB27E
:1040E0004178807889198EB240190D4985B2143112
:1040F0002046FFF7CBFC641C102CBFDB08480021D6
:10410000C761066245620A48C943416400210160F3
:10411000014624220748FDF746FF07B0F0BD000026
:10412000B4010020C0460010EC190020631B0020E1
:10413000E418002024060020F0B507460620394682
:104140004143664887B00D18F900CA1B6449FF2433
:10415000511808310091C1786248A40041432246B9
:1041600001A80935FCF7A0FF5C483901783009182F
:104170008889029A019E801800B28881A04202DDDF
:10418000001B8881761C0098297801700098697955
:104190004170A9786A7809021143009A681C9170ED
:1041A000090AD1707900504A0591545A297803912F
:1041B000042911D005290FD068794A494843FF21C5
:1041C000FCF748FF03990906090F0A2921D0811B32
:1041D000A14220DDA41922E0434AB9000832515817
:1041E000424A91421BD0427803781002184302469B
:1041F000963A8A42EEDC421F8A4201DD241D0EE01F
:10420000024696328A4209DB401D884207DA241FA3
:1042100005E0044603E08119A142FADAA41B022F4B
:1042200013D02F482E4E8179407909060A14024393
:10423000707F002800D001206946087427488179E2
:104240000902914206DC012109E02948844232DA60
:10425000044633E041790902914202DD00216B46B8
:1042600019746946097C002913D0C179214D0B02CC
:1042700093420ADA007A401A010200D54942D01A64
:104280001D4A5043FCF7FCFE4519AC4210DA2C469F
:104290000EE0154810384078002804D10398022811
:1042A00001D0042804D17D200001844200DA0446B4
:1042B0006846007C70770B488442C9DC2002011BF1
:1042C0000E4808180749FCF7DBFE0099064A0871FA
:1042D0000599A0B2505207B0F0BD00003C17002075
:1042E0005C02002010270000A0010020FFFFFF7FDC
:1042F00013120000B80B0000581B000088130000C8
:10430000F3B5214D0C46E8792E460002083681B0FF
:10431000A04214DD0322291D0198FCF7CEFEE978A6
:104320000802A04228DAEA79201A511ACA0F521854
:1043300052101018FCF7A4FEC2B2314619E0E87A18
:10434000114F00020C37A04217DD032231460198BD
:10435000FCF7B3FEE9790802A0420DDAEA7A201AE6
:10436000511ACA0F521852101018FCF789FEC2B227
:1043700039460198FFF7A4F8FEBD0322394601989B
:10438000FCF79BFEFEBD00002C1B00200A4A101803
:10439000C07B50280ED242008018074AC0B20B786A
:1043A000F03A1354401CC0B24B781354401CC0B2B6
:1043B00089781154704700002C1B0020F8B5314952
:1043C0002020314C0860A0880025304E002807D0FE
:1043D0000B2809D0212845D0A58065800220F8BD92
:1043E0000B20A0803068A0602020FDF79FF80746D2
:1043F00027493DE02749C879002801D0401EC871EF
:10440000254F3878002808D0FDF764FE002804D036
:10441000FDF740FD002800D03D703878002815D108
:104420001E488078002811D11D48007800280DD141
:104430001C480068032809D0207800280BD0401EB3
:104440002070C0B2042806D9012005E020780F288A
:10445000F7D2401CF4E70020134908702120A08007
:104460003068A0602020FDF761F87D210746C90073
:10447000A068FDF765F807433804000C6080B9D1E7
:104480000420F8BD4C020020E0020020440200207D
:10449000140500005C020020940200209801002016
:1044A000A002002040020020B6010020F0B5012744
:1044B000154ABF0540251346013924D40478012646
:1044C00030442406082600BF00BF00BFBFF36F8F33
:1044D00064001F60BFF36F8F00BF00BF00BF00BF4D
:1044E00000D2156000BFBFF36F8F013E1560E3D0AF
:1044F00000BF00BFBFF36F8FBFF36F8F00BF00BF60
:1045000000BF00BFE4E7F0BD040004401400FF0555
:10451000002D32374100E80300003300E8030000BB
:104520003301CA080000AA071D331E401F4D207327
:1045300021AD22D923FF1D331E401F4D207321AD15
:1045400022D923FF0000000000FF0019FF0000280F
:1045500000FF00410000FFFFFFFFFFFF09660600AC
:104560000B00000000000000000000000000000040
:1045700000000000000000000000FF000000000A32
:1045800001040705060708090A0B000102030400DD
:1045900003060902030405060708090A0B000100C7
:1045A00003060902030405060708090A0B000100B7
:1045B00000000000000000000000000000000000FB
:1045C00000000000000000000000000000000000EB
:1045D000FF0E7F7F00FA0006DB0032D70058F6009E
:1045E000769400B40000FF004AFF0094FF00DFFF54
:1045F00000FFAA0000000000000000000000000012
:1046000000000000000000000000000000000000AA
:10461000000000000000000000000000000000009A
:10462000000000000000000000000000000000008A
:10463000000000000000000000000000000000007A
:10464000000000000000000000000000000000006A
:10465000000000000000000000000000000000005A
:10466000000000000000000000000000000000004A
:10467000000000000000000000000000000000003A
:10468000000000000000000000000000000000002A
:10469000000000000000000000000000000000001A
:1046A000000000000000000000000000000000000A
:1046B000000000000000000000000000000000FFFB
:1046C0000000FF000000FF0055AA00AAAA00FF009A
:1046D00055AA00FF0000AA00555500AA0000FFFFE0
:1046E0001F0000000F000000030000000500000094
:1046F0000000000010000000000000001C0300206B
:104700000002044008000000000100000000010059
:1047100000000000000004408000000001000000D4
:104720000500000000000440000000000000000040
:1047300000000000000004408000000000000100B4
:104740000600000000000000000000000000000063
:1047500000000000000000000006014000020440CC
:104760001000000000000000000000002D0100000B
:1047700005030002000100000006014000020440A1
:104780001000000000000000000000001D010000FB
:104790000403030109010000000601400002044077
:1047A0001000000000000000010000000D000000EB
:1047B000030302000601000060BB8151C0B3309EBC
:1047C000BAF10100B847001001000000000000002D
:1047D000000001000000010000000100A000000036
:1047E0000000010001008D05000000000000000035
:1047F0000000000000000000D0470010D447001067
:10480000D847001000000000000000000000000079
:10481000000000010000000000000008C847001070
:10482000010000000000044007000000DC47001009
:1048300060050020010000000000000000000100F1
:104840000000010000000100A000000000000100C5
:1048500001008D051C0100000000000000000000A8
:10486000000000003C480010404800104448001080
:104870000000000000000000000000000000000137
:10488000000000000000002034480010010000007B
:1048900000000440090000004848001060050020A6
:1048A0000100000000000000000001000000010005
:1048B00000000100A00000000000010001008D05C3
:1048C0001C010000000000000000000000000000CB
:1048D000A8480010AC480010B048001000000000CC
:1048E00000000000000000000000000100000000C7
:1048F00000000010A048001001000000000004406B
:1049000008000000B44800106005002000020440C8
:104910000A000000000204400B000000B00000008C
:10492000010000000000000000000000E805002079
:10493000B91C00100C490010F00500200000000018
:104940000000000000000000000000000000000067
:1049500000000000144900101C4900100000000075
:104960000000000000000000000000000000000047
:104970000000000000000000000000000000000037
:104980000000000000000000000000000000000027
:104990000000000000000000000000000000000017
:1049A0000000000000000000000000000000008087
:1049B0000202040001000000B0000000010000003D
:1049C00010000000010000000008070008080108AE
:1049D00000000000000004400F000000B849001073
:1049E000C8490010012200107918001000000000D2
:1049F00000000000000000000000000000000000B7
:104A0000D449001000020000060000002C4A0010EB
:104A1000000000203C060000581100108C4D0010D2
:104A20003C06002064380000AC2E00108D2F48FE9C
:104A3000E70411CA4710E904A920290C091E04093A
:104A4000262C091268091A20890441320132021306
:104A50004310331004320532063207320832095A45
:104A60000A20320C5A0D0C1391212A1008690413E4
:104A700045181B104F041A5904291032175A182CC4
:104A8000CB9D242C29044BB9250832213222322314
:104A90005A2430A9043229322A322B322C322D32B8
:104AA0002E02142FE2502BD00702216DFFFFFF7F53
:104AB00004812B0101FA013E0A35FF373BFF030158
:104AC00011F203B20833110F0A39149519ED2112AE
:104AD0000F525A0B18E1AC8D2BFF7F042B33FA30A9
:104AE00021A35007A9A013F846121052011481EC1B
:104AF000021B20F4041AF8041AEC181AE004134CF0
:104B0000052B20E424314B02042900FF0021104230
:104B10002063308440A550C660E770088129914A1F
:104B2000A16BB18CC1ADD1CEE1EFF13112100273A6
:104B3000325222B5529442F772D662399318837B6F
:104B4000B35AA3BDD39CC3FFF3DEE36224433420F6
:104B5000040114E664C774A44485546AA54BB528BF
:104B6000850995EEE5CFF5ACC58DD5533672261186
:104B7000163006D776F6669556B4465BB77AA7190F
:104B8000973887DFF7FEE79DD7BCC7C448E558864E
:104B900068A7784008611802282338CCC9EDD98E5F
:104BA000E9AFF9488969990AA92BB9F55AD44AB7E6
:104BB0007A966A711A500A333A122AFDDBDCCBBFAF
:104BC000FB9EEB799B588B3BBB1AABA66C877CE4B6
:104BD0004CC55C222C033C600C411CAEED8FFDECFF
:104BE000CDCDDD2AAD0BBD688D499D977EB66ED5C6
:104BF0005EF44E133E322E511E700E9FFFBEEFDD4F
:104C0000DFFCCF1BBF3AAF599F788F10148891A952
:104C100081CAB1EBA10CD12DC14EF16FE18010A181
:104C200030F0C230E3200450254046706760B983FD
:104C30009893FBA3DAB33DC31CD37FE35EF3B102C9
:104C40009012F322D2323542145277625672EAB58C
:104C5000CBA5A89589856EF54FE52CD50DC5E23419
:104C6000C324A01481046674476424540544DBA75C
:104C7000FAB79987B8975FE77EF71DC73CD7D32669
:104C8000F2369106B01657667676154634564CD9EC
:104C90006DC90EF92FE9C899E9898AB9ABA94458B9
:104CA000654806782768C018E1088238A3287DCBBC
:104CB0005CDB3FEB1EFBF98BD89BBBAB9ABB754A09
:104CC000545A376A167AF10AD01AB32A923A2EFD4C
:104CD0000FED6CDD4DCDAABD8BADE89DC98D267C59
:104CE000076C645C454CA23C832CE01CC10C1FEF9C
:104CF0003EFF5DCF7CDF9BAFBABFD98FF89F176EA9
:104D0000367E554E745E932EB23ED10EF01EFFFFDE
:104D1000102A210571132005021020131E033320D1
:104D200002134447192A8303483302012C90D0030D
:104D300007213A04183AE424190C1A020419192913
:104D40005B2951B2402310275B5048281A04042ADB
:104D5000031509102923421F6ABC282A035431294C
:104D60006D2908CA04283CD0DD06145AB823796C92
:104D7000011B4C0407052E12021C482C492B3A0635
:104D8000821B48E00C136C1D02002000FFFFFFFF98
:104D9000FFFFFFFFFFFFFFFFFFFFFFFFFFFFFFFF23
:104DA000FFFFFFFFFFFFFFFFFFFFFFFFFFFFFFFF13
:104DB000FFFFFFFFFFFFFFFFFFFFFFFFFFFFFFFF03
:104DC000FFFFFFFFFFFFFFFFFFFFFFFFFFFFFFFFF3
:104DD000FFFFFFFFFFFFFFFFFFFFFFFFFFFFFFFFE3
:104DE000FFFFFFFFFFFFFFFFFFFFFFFFFFFFFFFFD3
:104DF000FFFFFFFFFFFFFFFFFFFFFFFFFFFFFFFFC3
:044E0000190CDEC0EB
:0400000510001019BE
:00000001FF
