:020000041000EA
:10100000803C00202D1000100000000000000000B7
:1010100000040100000000800348854600F080F8CD
:10102000004800475D350010803C00200549064A15
:1010300030200A600431401EFBD104488047044838
:101040000047FEE70000002000BFFEE77720001009
:101050001910001030B50B46014600202022012453
:1010600009E00D46D5409D4205D31D469540491BDC
:101070002546954040191546521E002DF1DC30BD25
:1010800070B500242546002801DA012440420029D9
:1010900001DA01254942FFF7DDFFAC4200D04042B2
:1010A000002C00D0494270BD10B50B4604461146D5
:1010B0001846FFF7E5FF03C410BD10B5431A93426D
:1010C00009D28318881803E0401E01785B1E19704E
:1010D000521EF9D210BD03460B439B0703D009E013
:1010E00008C9121F08C0042AFAD203E00B78037063
:1010F000401C491C521EF9D210BDD2B201E0027050
:10110000401C491EFBD270470022F6E710B513467B
:101110000A4604461946FFF7F0FF204610BD0000BE
:10112000064C0125064E05E0E36807CC2B430C3C3A
:1011300098471034B442F7D3FFF772FFEC49001020
:101140000C4A001070B58C180578401C6B075B0FBB
:1011500001D10378401C2A1106D10278401C03E01B
:1011600006780E70401C491C5B1EF9D12B0705D474
:101170000023521E0DD40B70491CFAE70378401C63
:10118000CB1A921C03E01D780D70491C5B1C521E8B
:10119000F9D5A142D8D3002070BD0000F8B50446AF
:1011A000007E02286FD1E06800F0BAFAA16800233F
:1011B0000E46377819463943777805463F0239435A
:1011C000B778F678E0683F043943360640681A4637
:1011D000314301F0A1FDA16800220E463778114687
:1011E00039437778E0683F023943B778F6783F04AF
:1011F0003943360640680123314301F08DFDE06834
:101200006168406801F056FDE06805224168206889
:10121000D201406889180068086000262068B10083
:101220004058E16842794B6801798900C918FF315B
:1012300081310B68012797403B430B600068002811
:1012400002D000F057F80543761C3606360EE5D07E
:10125000E068617E406801F069FD216908784A68AC
:1012600040B2FF2100280FDB86081F4BB600F6189E
:1012700033688007C00E81408B439107090E81407F
:101280000B43336011E02DE003071B0F083B9E0862
:10129000164BB600F318DE698007C00E81408E43FE
:1012A0009107090E81400E43DE612069007840B24B
:1012B000002805DBC106C90E012088400C490860E2
:1012C0006069002800D08047A07E002809D0E0682F
:1012D0004068FF30FF300230416801225202114362
:1012E00041602576207EF8BD00E400E000ED00E0DE
:1012F00000E100E010B5044640680078002806D1FF
:101300002068002800D08047616801200870002014
:1013100010BD02780021002A01D101220270084686
:10132000704700000A4B10B50246184604E040041E
:10133000040C10786040521C491EF8D205498842BE
:1013400001D1184610BD0028FCD1034810BD000093
:10135000BAAB0000FFFF0000BABA000030B5034688
:1013600000200246044C03E09D5C4540605D521C39
:101370008A42F9DB30BD00001C14002010B5164C69
:101380000022216AE0692262E261144A00025143AC
:10139000CA0F521852108018FFF75CFE6421803883
:1013A00048430F4AA16A914209D0D12251432F22CA
:1013B000504308188030C117090E08180012052183
:1013C0004902084A4118A062914201D3012100E07C
:1013D0000021217000B210BDB402002033030000D0
:1013E000FFFFFF7F01690000034A014613691840AF
:1013F00013698B43136170474402002008B5054A06
:10140000D2681209101A0090884201D3022008BD48
:10141000002008BD44020020F0B53448344B024699
:1014200001783C3A1170D9718378FF21FF2B02D0EB
:10143000C378D37081700379FF2B08D0437953713F
:1014400083799371C379D371037A137201714178EF
:101450000027284B55293BD09F70002106240D46BC
:1014600065432E18747AFF2C0BD0AD186C7264078C
:10147000A40F012C34D0022C35D0032C01D0B48918
:10148000AC81491C0229E9DB417DFF2902D051755D
:10149000018B1183C17EFF2918D0D17600214C0029
:1014A0002518A4186E7F66772D7F491C257707299C
:1014B000F5DB00214C0025182035A4182034EE7AE5
:1014C000E672AD7A491CA5720729F3DB1F70F0BDE7
:1014D00099780029C1D10121074C99702170BCE78E
:1014E000B47BAC73CDE774896C81CAE758150020D2
:1014F0007402002090010020AD020020F0B53249B6
:1015000000250A460D7054321078FF272F4EFF2811
:1015100001D0307017709078FF280FD00020810024
:101520008B188919DC78CC709C798C715C794C7142
:101530001B79401C0B710328F1DB977000201118F8
:10154000CB7BFF2B02D03418E373CF73401C0328EE
:10155000F5DB1D487430817C1C4820308174907C00
:10156000FF2801D0B0749774D07CFF2801D0F074AC
:10157000D77400208100431899180C7D9B191C75A5
:101580008C7D4D7D24022C435C75240A9C750C7E59
:101590001C76CC7DDC750D4C85000023D83463535C
:1015A0002C19E370A370401C0F750628E2DB064976
:1015B00000204C310B54401C0828FBDB70780028BD
:1015C00001D053707370F0BDB80100200C190020D9
:1015D00010B52248FFF79DFE00283ED1204800F0BC
:1015E000E5F8002839D11F4800F044F9002834D12B
:1015F0001D48FFF7D3FD00282FD11C4800F03AF911
:1016000000282AD11A4800F035F9002825D11948B8
:1016100000F0CCF8002820D1174800F0C7F80028C7
:101620001BD1164800F036F8002816D1144800F0F7
:1016300017F9002811D1134800F0F4FB00280CD151
:10164000114800F027F8002807D1104800F06EFD7F
:10165000002802D10E4800F01DF810BD250300201F
:10166000384700104C0300200803002074030020BA
:101670009C0300205847001078470010F4460010E3
:10168000A4470010040400200447001010040020A8
:101690001447001010B50446017B0068221D01F0BC
:1016A0002BF8627B217B206801F05EF8002010BDE2
:1016B00010B50121014802F0F5FB10BD784700107C
:1016C00010B50021014802F0EDFB10BD5847001095
:1016D00010B50548054A0168007B82404A60022136
:1016E000034802F0DFFB10BDF446001001000100CA
:1016F0003847001010B507493F220878401C800683
:10170000800E0870044980014118044800F011FD62
:1017100010BD0000800100201C04002010040020E7
:1017200010B50446007C022816D12168606801F0DB
:10173000CFFAA068016C026C03239B029A43114309
:101740000122D20311430164607C012802D1606848
:1017500001F0FCFA00202074207C10BD10B5044676
:10176000407B002809D1217BA06800F083FEFF2187
:10177000A0680131C16001206073002010BD00002D
:1017800010B5094B0020C1B200224C000906C91057
:10179000490F4C40521CE1B2082AF6DB1954401C98
:1017A000FF28F0DD10BD00001C14002070B50446B9
:1017B000017F22464068083200F09EFF2246A17E4B
:1017C0001032206800F079FFE17E0122206800F0ED
:1017D00088FF18202056627EFF2100280EDB850836
:1017E0001B4BAD00EB181D688007C00E81408D4378
:1017F0009107090E81400D431D6010E003071B0F88
:10180000083B9D08134BAD00ED18EB698007C00E37
:1018100081408B439107090E81400B43EB61607F50
:10182000012812D118216156002905DBCA06D20E03
:1018300001469140084A116018216156002904DBD5
:10184000C906C90E884005490860002070BD000027
:1018500000E400E000ED00E080E200E000E100E0F4
:1018600010B50024006800F08BFF012800D001248F
:10187000204610BD70B50446007F0125002802D027
:101880000225284670BD2068C06CFFF767FF00285E
:1018900002D000202077F4E72068816BA06800F078
:1018A000F9FD2068A168408848632068A1688088A5
:1018B000C8632068816B0968890103D5416B606842
:1018C00000F0F4FE61682069086161686069086180
:1018D000204600F05AF8204600F0CEF820683C215F
:1018E000095C012905D14421095C826C006C00F07F
:1018F00003FF26680125B16BF06C097900680A07BF
:10190000120F29469140FFF7A5FB2062257730781A
:1019100000250128B5D1204600F01EF80546B0E7A5
:1019200070B50E460446217F0120002911D00949D7
:101930008E420ED8A568286B8A1B80B2401C50438B
:10194000FFF788FB80B2E8636168206908610020C6
:10195000666270BD1027000010B5027F0121012AC8
:1019600001D0032A0FD1417B01231C4642688C40E1
:10197000D460016820310978002901D18168CB60E9
:10198000022101770021084610BD10B50446006809
:1019900001214269A06800F095FD2068022182695A
:1019A000A06800F08FFD20680321C269A06800F0E4
:1019B00089FD206820300178002903D04278A06892
:1019C00000F039FE206820308178002903D0C278E9
:1019D000A06800F046FE206820300179002902D07E
:1019E000A06800F0CEFD206820304179002902D0A7
:1019F000A06800F0D5FD206820308179002902D050
:101A0000A06800F0B6FD20682030C179002902D01E
:101A1000A06800F0CDFD20682030017A002904D0B4
:101A2000837A427AA06800F0CBFD20682030817B69
:101A300003290FD1C27B017CA06800F020FE206842
:101A40002030407B012805D1A06841690122520461
:101A500011434161206801462031CA7A022A0AD125
:101A6000097B032907D1C2698169A06800F04FFD95
:101A7000A06800F0EFFD10BD10B504460068817944
:101A8000012908D1427B0021A06800F0B2FD0021AD
:101A9000A06800F07EFD2068C179012908D1827B11
:101AA0000221A06800F0A5FD0221A06800F071FDF0
:101AB0002068017A012908D1C27B0321A06800F0C7
:101AC00098FD0321A06800F064FD2068417A012997
:101AD00007D1027CA06800F08CFD0121A06800F015
:101AE00058FD2068817A012908D1427C0821A0682C
:101AF00000F07FFD0821A06800F04BFD2068C17A4E
:101B0000012908D1827C0921A06800F072FD092119
:101B1000A06800F03EFD2068017B012908D1C27C4D
:101B20000A21A06800F065FD0A21A06800F031FDDF
:101B300010BD000070B52D4C2B49204600F002FF6F
:101B4000E06B08218843E063606B012528436063F4
:101B5000606B0F210906884308436063606B3F2177
:101B60000904884308436063C80361690D221207B2
:101B700091430143616160697F2109028843002626
:101B800029020843606105223146204600F004FF27
:101B900000220321204600F0FFFE002204212046FF
:101BA00000F0FAFE00220521204600F0F5FE206C30
:101BB00000090001284320640B4A0D4D103A0A2108
:101BC000284600F099FD00220A21284600F0CCFDAD
:101BD000084A0B21284600F08FFD002210212046E4
:101BE00001F04EF8304670BDD403002000020048DA
:101BF00000020440FC480010F8B53B4F0546007851
:101C0000F978884201D10120F8BDF870FF21B97040
:101C1000C00867D03E212846FFF7A0FB3349087073
:101C20003E21495D814201D00220F8BD2878314E25
:101C300044072F48640F0179C27809021143491CF7
:101C4000C170090A0171002C0FD0012C1ED0022C8A
:101C500022D0032C23D0042C31D0052C32D0062CDA
:101C600034D0072C36D00520F8BD3078002839D183
:101C70006878FF2802D020483C2213E0A878C108E9
:101C80001F292FD14007400FB8702BE03078002873
:101C900028D11A48372205E01948282202E01848BE
:101CA000283028221749124B0978D971691CFFF78F
:101CB00004FA0120002C11D0012C12D012E012489D
:101CC0003C22F3E710483C303C22EFE70E487830E6
:101CD0003C22EBE70C48B4303C22E7E70B490870A4
:101CE00000E030700020F8BD80010020AA02002032
:101CF00074020020B8010020581500200C020020BA
:101D0000CC1700201C1500201C180020900100207A
:101D1000F8B53548012606703448354F0670002462
:101D2000C4213846FFF7FEFA324D31496880BC3194
:101D30000989A980884201D001241AE03C22394651
:101D40002D48FFF7BAF93C222B492C48FFF7B5F98B
:101D5000274937223C312A48FFF7AFF93722284973
:101D60002848FFF7AAF92249502274312648FFF784
:101D7000A4F9264FF0213846FFF7D4FA23496880AA
:101D8000DC31898AA980884201D0012406E0F02252
:101D900039461F48FFF791F9002C21D03C221D49FC
:101DA0001648FFF78AF93C221A491348FFF785F9CC
:101DB000372219491348FFF780F93722164910488E
:101DC000FFF77BF9502215490F48FFF776F9F0210C
:101DD0000F48FFF799F9242211490D48FFF76DF9D3
:101DE00020467040F8BD000090010020B80100209E
:101DF000044E0010AE0200201C15002058150020D3
:101E00000C1900200C020020CC170020044F0010F9
:101E10001C180020AC450010E84500101F460010BB
:101E20006F46001040684068004710B503465C6884
:101E3000012080342479022C02D1184600F002F8E7
:101E400010BD0000F8B5054601260220AC68002947
:101E50007BD0002A79D0274620373B78002B75D1DC
:101E60002068082800D9022601203870701E8240A0
:101E700062600020A161A060217F286800F09AFDC7
:101E800068686030007F002827D028680121C903D6
:101E9000FF300130816117E02868C11DF9314A69BE
:101EA000D204D20FFBD17978012912D0A268A1699E
:101EB000022E10D0895C227F92001018FF308130F2
:101EC0000160A0688019A060A16860688142E3D3C6
:101ED00026E02049EFE7895AEDE7286800F0F0FD99
:101EE0008028FAD07878012825D0A168A069022E30
:101EF00029D0405C227F2968920051188031086007
:101F0000A0688019A0602868816C4905FCD5012271
:101F1000C16C92021143C164A16860688142DCD344
:101F2000286800F0CDFD8028FAD00020387060606D
:101F3000A0600BE009E0074A207F29688000401874
:101F400080300260DCE7405AD4E7032001212034CE
:101F5000A170F8BDFFFF000010B503484188034899
:101F600001F042FD10BD0000004E0010210C0000E9
:101F700070B50124E40310282ADA224DAE884E43BE
:101F800031196E882D8856435D4332192B191E4C2A
:101F9000090212021B022478090E120E1B0E002CDD
:101FA00003D01A4C615CA25CE35CFF252D020C049B
:101FB0005D192C4315062C43154D800040194460D3
:101FC000104811434038427819438918417070BD58
:101FD0000C4D1038AD1DAE8880064E4331196E8809
:101FE0002D8856435D4332192B19800E4400001989
:101FF000074C090C120C1B0C48340019027041707C
:10200000837070BDF8010020AC020020C4150020D0
:10201000C41600200248C1681031C160704700003A
:10202000440200200EB5044A6B4607CA07C368463F
:1020300000F0E8FB0EBD0000E846001010B50949AD
:10204000086809680004000E074CC9B2002806D0D1
:10205000000241180548FEF7FDFF400000E004487B
:10206000206010BD00030140FC3F0020000024F46C
:102070000048E801704710B5FFF7FCFFFFF7D2FFFB
:1020800010BD000070B5264E0025244A0E213046B2
:1020900000F032FB21490924E4060831204600F013
:1020A0009DFC00221146204600F0E2FD00220321A3
:1020B000204600F0DDFD00220521204600F0D8FD7D
:1020C000002306221946204600F0FEFC206C000981
:1020D0000001801C2064114A0F21083A304600F0AC
:1020E0000BFB00221021204600F0CAFD0122102126
:1020F000204600F001FD01221321204600F0FCFCE7
:1021000008490868FF221204904332011043086016
:10211000054910130860284670BD0000A049001052
:102120000000044008E400E000E100E0406840688E
:10213000004710B503465C6804202034A479002CC5
:1021400002D1184600F001F810BD70B5044665686C
:1021500004232035AD798068002D2CD1457E0223E3
:10216000002D28D1002925D0002A23D0026141600A
:10217000012141760021416160682030007A002809
:10218000206810D05903FF3001308161114620468C
:1021900000F076F8206803214907FF300130C2685B
:1021A0000A43C26004E00321026C89030A4302640B
:1021B000002300E00323184670BD10B503465C6899
:1021C000042020346479022C02D1184600F068F80B
:1021D00010BD70B505468468406800262030007A3E
:1021E000002820D12FE022696169914201D308467D
:1021F00007E000F0E7FB6269616888546069401C91
:102200006061216988420ED16676286803214907FA
:10221000FF300130C2688A43C26068688068002865
:1022200008D0804706E0FF212868153109580907C2
:10223000C90FD8D021696069884203D2091A28469B
:1022400000F01EF870BD21696069884208D22868D4
:1022500000F0B8FB6269616888546069401C606185
:1022600021698842EED1667628680321026C8903D1
:102270008A430264686880680028E3D0804770BDA4
:1022800010B542682032137A01229A40914201D25D
:102290004A1E00E0521E0068194600F038FC10BDCE
:1022A000F8B50446032016460F46002936D0002E06
:1022B00034D0A16802200A7E002A2FD1012008769E
:1022C00060682030C079002805D020680121C9034A
:1022D000FF300130816100250FE02030C0790028F7
:1022E00006D02068FF3001304169C904C90FFBD115
:1022F000795D206800F0B6FB6D1C6068B542ECD3D8
:102300002030C079002806D02068FF3001304169B4
:102310000905C90FFBD0A26800201076F8BD0000A7
:1023200010B50248FFF755FF10BD00001004002053
:1023300010B51948194B017819480029807C09D03B
:10234000DC21414319800102091A5980A721414328
:10235000998013E0FF211C314143124C0A46A142EF
:1023600000DD2146198021468A4200DD22465A803E
:10237000A02242438A4200DD0A469A808C2102460E
:102380004A430649891D0A80EA2242434A800202E2
:102390008018888010BD0000AC020020F8010020E9
:1023A0002C190020FFFF000070B52048007800289D
:1023B00001D0FFF7A3F81E4CA07C2546F03D502825
:1023C00004D241004018401901F006FAE07C502880
:1023D00004D241004018401901F0FEF915490020CF
:1023E00002F028F81449012002F024F813490220D1
:1023F00002F020F82078002816D10D4850213730FF
:10240000FEF782FE002000F059FE012000F056FE8B
:10241000022000F053FE032000F050FE042000F0E4
:102420004DFE052000F04AFE70BD0000B8010020FE
:102430000C190020C7020020CA020020C40200209C
:102440000548006881B20548C2698918C161016AFE
:10245000491C01627047000000030348B4020020D9
:10246000034910B5884202D1042000F03FFA10BDA4
:102470000000044870B50D460446FFF7F1FFFF2049
:102480000130E0602068032189038843A9030143E8
:10249000216070BD0A6842618A889204D20F1205D9
:1024A00042600A791207120F42628A881205120FDF
:1024B00002628A88D204D20F826109790906090F63
:1024C000C1627047F0B50668491E4C0023460327D9
:1024D00010333D469D40AE4355789D4035430B46F5
:1024E000163301269E40B54396789E402346193305
:1024F0009F40D4782E439C408B00BE430F21344331
:1025000099408C431178994021430160F0BD10B58A
:10251000046803239B049C434B789B0423430324BC
:102520002405A343547824051C430123DB059C4365
:102530008B78DB05234301242406A34394782406E7
:102540001C430323DB069C43CB780978DB0623433B
:1025500003246407A343D478090164071C43F023D0
:102560009C431B0112782143994312020A430260E3
:1025700010BD426803239B039A43890311434160C2
:102580007047426803239B029A43890211434160CA
:1025900070478030426A01238B401A434262704781
:1025A000426803231B029A430902114341607047AA
:1025B000426803231B039A43090311434160704798
:1025C00070B5446945680326B604B54389042943B8
:1025D000416001210906012A06D08C430121C90569
:1025E000002B03D00C4302E00C43F7E78C4344611B
:1025F00070BD10B58030846A0B0000F0BDFB0A0688
:10260000060909141414140C1014032300210DE0FE
:102610000C2302210AE003231B02082106E0032306
:102620009B020A2102E003231B030C219C438A40E6
:102630002243826210BD43689B089B000B434360AA
:10264000416901239B02012A02D0994341617047ED
:102650001943FBE741680122120491431143416091
:10266000704710B543680C24A343890019434160A7
:102670004169A301994312020A43426110BD10B59A
:10268000436801246404A343234343604369240152
:10269000002A01D0234300E0A3430122920501292F
:1026A00002D09343436110BD1343FBE702680B0C58
:1026B0009A4389B211430160704770B515460E46C2
:1026C000044600F00DF82168B0000F2282409143CB
:1026D0002A6882401143216000196968016170BD58
:1026E000704789000818016A302392079943920EB7
:1026F0001143016270470000F0B58B089B001C1865
:1027000023698D07ED0EF826AE40B343AC46236136
:10271000436F4E000325B540AB434367CB089B0096
:102720001B181E6C4D07ED0E0427AF40BE431E6400
:102730005678AE401D6C2E431E640A4B984204D15D
:10274000036E01258D40AB43036613781B0602D54B
:1027500053688B4043601078614688402169084384
:102760002061F0BD0002044010B5436F490003240E
:102770008C40A3434367436F8A401343436710BDB4
:10278000F8B505460126022000F02CF8144CA1896A
:1027900008200143A18100214A00AA5A2280A28870
:1027A000D207D20FFBD0491C89B20529F4D3A189E5
:1027B0008143A18121886846018021880180218888
:1027C0000180218802880A400280A87A00F00AF875
:1027D000A0894007800F00D100263046F8BD0000D8
:1027E0000000024803498A8906239A4340000243B5
:1027F0008A81704700000248014800687047000065
:10280000FC3F002010B5024600F092F85168906835
:10281000084307490B680F242404A34318430860A6
:102820000449C32048621178507800F00FF810BDB9
:10283000000301400000014003498968014201D0C2
:10284000012070470020704700030140F8B50D4695
:10285000044600F06DF8204A106811680004030E69
:102860001E4801401E482943014311601168490078
:10287000FCD41C49A3420DD910E0002B00D1012348
:1028800015689B000D401E02354305431560156811
:102890006D00FCD49D00A542EFD30DE0A60009E039
:1028A00015689B080D401F023D43054315601568E0
:1028B0006D00FCD49E42F3D313680B4021020B43FE
:1028C0000343136010684000FCD40749C3204862EA
:1028D000FFF7B4FBF8BD00000003014000FF0FC08C
:1028E0000000F03FFF000FC00000014000B50246AD
:1028F00000F01EF8054908691043086108684000A7
:10290000FCD40349C320486200BD0000000301401D
:10291000000001400148008870470000401001405D
:1029200002488188012211438180704720100140B4
:102930000348C0214162416A4907FCD47047000046
:102940000000014070B50C46054600F09FF8607924
:1029500000280CD120792168002804D002222846C2
:1029600000F036F903E00222284600F0E3F80948B7
:10297000686351200001A8636079002803D1A07921
:102980000B210843E8630020C043E86420892864E1
:1029900070BD000002013F0789000818C16940238B
:1029A000994310231943C161C169C908C900114382
:1029B000C1617047026CC02389079A43090E0A431C
:1029C00002647047C11DF931CA685201520F02D02A
:1029D000C86980B27047406DFBE7000070B50C46D7
:1029E0000546102600F052F8207A002800D006464E
:1029F0002079216800283246284602D000F0E8F805
:102A000001E000F097F8E079710809024000FF3119
:102A1000801E01310843032100220904D243401CD7
:102A20000843E86360790E49000640186863A0799E
:102A300001210904002805D06B6B0004401A0343F0
:102A40006B6305E0686B63791B04591A084368637C
:102A500005200002A863EA646089286470BD000054
:102A6000020100FFFF22093212585201520F02D018
:102A7000FF30813008E08023826B1A40802AFBD02F
:102A800001225203C26480300160704710B50446D1
:102A90000920C006844202D00748844202D1074878
:102AA00000F0F8F80320E060E068C007FCD0206C7C
:102AB00000090001206410BD000200480800004821
:102AC000806B80210840704730B5FF300130C4680A
:102AD00007252D06AC43C4601B020B4311060B43B4
:102AE000C168044A11400B43012109070B43C3602D
:102AF00030BD0000C0C0FFEF10B5FF300130C3682B
:102B000007248C40A3438A401343C36010BD10B513
:102B1000FF300130C36807242406A343C360C368A1
:102B20003F2424021202A343134309060B43C3604C
:102B300010BD0000F7B584B017460C46642941D398
:102B4000002F3FD0FFF758FE6421FEF783FA0646B8
:102B500064212046FEF77EFA01211B4C7843029146
:102B6000054600940191304629466043FEF772FA0B
:102B7000014689050122800A890D9202904205D200
:102B8000009A914202D2029400910190641EEAD10F
:102B900001210298C9030843049908610498406917
:102BA0000A49BA02084001218902511A08430199D1
:102BB000012209041204891A08430499486100207B
:102BC00007B0F0BD0120FBE7FF030000EF8000FC31
:102BD000F7B582B017460D46FFF70EFE294679433A
:102BE00001260191009088423BDDFEF749FA044638
:102BF0001D48844204D30199761C71430098F4E780
:102C00002146794371430098FEF724FA611C794309
:102C1000019071430098FEF71DFA0199281A691A6C
:102C2000002800DA4042002900DA4942884200DAEE
:102C3000641C01218902081B0A011043029A1061D9
:102C400002984069094A1040BA02511A0843012209
:102C500031041204891A084302994861002005B022
:102C6000F0BD0120FBE70000FF030000EF8000FC47
:102C700089000818C169C908C9001143C1617047BA
:102C800010B5836907248C40A3438A4013438361B2
:102C900010BD0000064910B5884207D10820FFF793
:102CA00025FE0820FFF7C8FD0028FAD110BD00005E
:102CB00008000048054B4A68FF301A43FF300230D5
:102CC00002608968012211434160704700808000E2
:102CD00070B505460C460120FFF708FE2069286004
:102CE0002846803061680162A16841620521C901FE
:102CF0006918E0680860064908680122D203104399
:102D0000D2109043086003490120086070BD0000A4
:102D10004040034800050140034A11409A00101842
:102D200080300162704700001F070000042900D3B3
:102D3000091FFF300130026C0F231B049A43026409
:102D4000026C09040A430264704700008030016885
:102D50000122D20711430160064800E000BF01686C
:102D6000090F0329FAD100E000BF0168090F032908
:102D7000FAD070474040034830B47446641E25784A
:102D8000641CAB4200D21D46635D5B00E31830BC9F
:102D9000184700008307FF22DB0E9A408907090EBF
:102DA0009940002808DB830809489B001B18186815
:102DB00090430843186070470007000F08388308E5
:102DC00004489B001B18D86990430843D86170479A
:102DD00000E400E000ED00E002E008C8121F08C1B6
:102DE000002AFAD170477047002001E001C1121F8C
:102DF000002AFBD170470000F8B5264A04460701B7
:102E0000D059A500244E8E46002831D0BB185968F1
:102E1000401E8C4699680023D3513246143A13550C
:102E20000B466146591A724651431C4A50434A08A0
:102E30008018FEF70FF97159194A914216D0401ABD
:102E4000D201904201DA10460FE0802801DD802097
:102E50000BE0002809D0C20F431C5843C3175B0E78
:102E60001818C011002A00D040420818705108E01C
:102E700009481438015D002901D00020F6E701213E
:102E80000155E100074A091B705B89184873000A65
:102E90008873F8BD94150020AC01002000A60E0038
:102EA000FFFFFF7F74020020F0B539493748497DA4
:102EB000022902D0002902D003E0364801E033485D
:102EC000BE303549FF230A6834493B334A4334490D
:102ED000FF2452181213801A324A7D3412685A4362
:102EE00052181213801A304A962312685A43511806
:102EF0000913431A2D48C26A991A61432C4C0919C7
:102F0000091406D1934200DD0121934201DA002128
:102F1000C94356182749C662FF240A68E400121BF9
:102F200000250A60002A00DA0D60234A13681B1B83
:102F3000136000D51560214B1F683C1B1C6000D539
:102F40001D600C68FF212D314C431D491268C825B6
:102F500064186A436413521864425213A21A1B681D
:102F6000AF24634359184913036B511AC91A1D2919
:102F700001DD1D2104E01C22D243914200DA1146FA
:102F800059180163701800B2F0BD000033FAFFFF5A
:102F90001C150020EBF7FFFFD8010020A102000064
:102FA0000F080000DC010020E0010020B402002036
:102FB000FF7F0000E4010020E8010020EC01002078
:102FC000FA0F0000F8B532490120324C0860E08861
:102FD0000026314D002807D0A82813D0B02827D0CC
:102FE000E680A6800220F8BDFEF7CAFB2B48C17917
:102FF000142901D21421C171A820E080284800685A
:103000000009E0600120FEF7EFF907463221E06891
:10301000FEF7F4F907433804000CA08013D02670A3
:10302000667029463F221F48FFF783F8B020E080F2
:103030000120FEF7D9F980B2A08021786278914210
:103040001CD100281AD10420F8BD8801491C401960
:103050008906890EA0606170FEF7CEFD1249002836
:10306000086000D001201149114B08701149A27865
:1030700008781A54401C0007000F08702078617807
:103080008842E2D10C480168102211430160CDE76B
:1030900060020020800100201C0400207402002037
:1030A00050020020100400206C020020AB0200201F
:1030B000FC1900206502002054020020FEB50546E0
:1030C00080007C4928184418277DA800D83146186C
:1030D0001434002F57D001E0503820712079502847
:1030E000FAD801E05038E070E0785028FAD8B909F1
:1030F0004ED0691E49077048490F405C002842D0F5
:103100003088401C80B23080A27863781102194365
:10311000884239D32079410040180090E07841007E
:103120004418B806800E401C4100401801900098D9
:10313000844202DD2046009C009078065F4F07D550
:103140005D48391903223B38FDF7B7FFE41C12E054
:1031500000980322391858483B38FDF7AEFF009815
:10316000C01E009007E05449381903223B39FDF78F
:10317000A4FF0198241800988442F4DD4E480121F0
:10318000415500203080FEBD4B4900204855FEBD12
:103190007907C90F0091A378617832881B020B432D
:1031A000D1183180002144483FE04349012048556F
:1031B00031888203891A3180F94389070FD0B90712
:1031C000890F022935D001294ED03B484438405D53
:1031D000002832D02146009800F0CAFC31E0364881
:1031E00021464438405D0028009802D000F0C0FC21
:1031F00001E000F081FC2079E178401AC0B2F906C4
:1032000001D5401EC0B2B90601D5401CC0B2B1788C
:10321000491C49B2B170814213DB0020B0702648CE
:103220004438415D002902D00021415509E00121C7
:10323000FBE721480021443841552146009800F021
:103240005BFC31881E488142AFD838079FD588047F
:10325000020E1948174B44383733405D1946503138
:10326000002814D0207907E0134944394855B1E7C4
:103270001A54451E0D54401EE5788542F8DB00982F
:10328000002884D1E8B21A542079E2780FE0E0787F
:1032900003E01A54451C0D54401C25798542F8DC86
:1032A00000980028EDD1E8B21A54E07822798854C9
:1032B000FEBD00000C190020040200201C18002094
:1032C000FF3F000070B530490820304C0860E088AE
:1032D0002F4D00280AD0FF38733810D00C2830D07A
:1032E000122842D00020E080A08028E02949142044
:1032F0000870FF207330E08028680009E060082033
:10330000FEF772F8FF210546F53133E020780028FA
:1033100001D0FEF781F86078002801D0401E60706F
:1033200004210020FFF768FD04210120FFF764FD60
:1033300008210220FFF760FDFF207F30E08002209F
:1033400070BD144900201C3100F03AFE11490120E3
:103350002A3100F035FE0021022000F031FEFF206E
:103360008530E08028680009E0600820FEF73CF81E
:103370000546FA21E068FEF741F805432804000CF1
:10338000A080C3D1042070BD600200209001002005
:10339000500200201C15002030B5FF2304780D7862
:1033A0009B1A5C4355436419E5172D0E2C19241202
:1033B000047044784D785C4355436419E5172D0E2D
:1033C0002C1924124470847889785C435143611825
:1033D000CA17120E51180912817030BDF8B548494C
:1033E0000220484C0860E1883F20000100290AD0F3
:1033F000081A0DD015285ED01C2872D00020E0805D
:10340000A0800220F8BDE0803F4800680009E0632A
:103410000220FDF7E9FF0546FF212D31E06BFDF7A6
:10342000EDFF05432804000CA08067D0374A002038
:1034300083000021D1529B18D970401C9970062836
:10344000F6DB002501277F052E46F6193801C01B43
:10345000070968002818310C40180521FDF7FAFD0E
:103460002B4948556D1CFF2DEFD900200870FEF741
:1034700045F826483C21B838C07C4843A0632078F2
:10348000002804D0FEF73AF80020E06104E0E0698B
:10349000002801D0401E02E0FEF74AFF0A20E0614A
:1034A000A06B00280DD0401EA0631A48E08016488B
:1034B00000680009E0630220FDF796FF0546102131
:1034C00014E0A078002801D1FEF76EFF00F026FE80
:1034D00000F012FD0F48C01DE0800B480068000995
:1034E000E0630220FDF780FF05460D21E06BFDF74C
:1034F00085FF05432804000CA080C0D10420F8BD3E
:1035000060020020B801002050020020E4190020D1
:10351000C415002005040000F0B50D4DA8690D4E3E
:103520000D4F80B2002472B6A969401A80B2B04231
:1035300002D962B60020F0BD38190F2101F006F85B
:10354000A86980B262B60F34C02CECD30120F0BD64
:1035500000E000E00E0600000C1700201FB5FEF78B
:1035600037F88D4801220168007B120482404A60CE
:103570008B4C8A48606103210D1F2846FFF70AFC27
:103580000020A0610720206102212846FFF702FCED
:103590008448012686808449844C087C497C024604
:1035A0000A430BD0A161606181480168496A007BD0
:1035B000C140C807C00F06D0012105E01920606195
:1035C0007320A061F0E700217A480170FEF7A0FBAC
:1035D000002801D0A6600BE0FEF7BEFC002805D055
:1035E000FEF796FB002801D0022000E00320A06037
:1035F0007148018901221203114301816E48403054
:103600000189C214114301816C4FB8890821084314
:10361000B8816B480068388000BF00BFFFF77AF9B7
:10362000388000BF00BFB98908208143B9810427D1
:103630006078042805D100202070FFF7C3FC60707B
:103640002570A078042804D12670FFF7C7FEA0706B
:103650002570E078042805D10220207000F0BCFA23
:10366000E07025702079042805D103202070FFF731
:1036700029FE207125706079042804D1277000F09C
:10368000F1F860712570A079042805D1052020701B
:1036900000F0E8FEA0712570607803283DD0A07886
:1036A000032840D0E078032842D02079032845D071
:1036B0006079032848D0A07903284AD03A48C17CD1
:1036C0000391807C019061690091A0690290FFF7ED
:1036D00021F9024603990198FF3A0B1A0099123A10
:1036E000501A43430298411A01984A104843181847
:1036F0008018FDF7C5FC08280BD8324AC02151625A
:1037000001072848090F403082891209120111432C
:1037100081816078022823D024E000202070FFF708
:1037200051FC60701AE02670FFF758FEA07015E09B
:103730000220207000F050FAE0700FE003202070AB
:10374000FFF7C0FD207109E0277000F08BF8607171
:1037500004E00520207000F085FEA071257067E769
:1037600003206070A078022801D10320A070E078C7
:10377000022801D10320E0702079022801D1032022
:1037800020716079022801D103206071A07902289C
:10379000E5D10320A0714BE714470010FF7C000027
:1037A00000E000E020100140200F00104402002043
:1037B00004470010AC020020000005400000024851
:1037C00000030348000001400249088809880004FA
:1037D0000843704700000248FEB50446FFF7F4FFB7
:1037E000FF21012301319B0201400340C2B2594332
:1037F00001D0012700E00027012101234902DB025B
:1038000001400340594300D001218003400F019142
:1038100041004518002112486B18C65C6654181800
:10382000C37868464354491C0329F4D30146204613
:10383000FFF7B2FD002F07D000201F21225C0A43B2
:103840002254401C0328F9D30198002807D00020F7
:10385000215C4906490E2154401C0328F8D3FEBDC3
:103860009846001070B554491020544C0860E08808
:103870000026002807D03C2807D067286FD0E680B4
:10388000A680022070BD3C20E0801020FDF7ACFD3A
:103890000004000CA0807DD04948A178484D405CD0
:1038A000491C0007000F0907090FE0701035A170CF
:1038B000002831D0012832D0022834D0032835D056
:1038C000042838D0052839D006283CD007283FD016
:1038D0003A491120103108702020487039483A4A7E
:1038E0008078127840001043384A2B461278D20074
:1038F0001043227A1201104388703622581CFDF7BB
:10390000DCFBE6702078E17801430830000629707E
:10391000000E207024D025E03C222D4901E02D49E5
:103920003722681C18E028222B49FAE72A49282266
:103930002831681C10E03C222849F2E727493C2244
:103940003C31681C08E025493C227831681C03E0C2
:1039500022493C22B431681CFDF7AFFBD2E714E0EA
:103960000820207016483E211030FDF7F7FC14495E
:103970003F223031887720391948FEF71EFC672036
:10398000E080184800680009E0601020FDF72CFD79
:10399000054600E00EE00221E068FDF72FFD05433B
:1039A0002804000CA08005D06078A178884200D05F
:1039B00072E768E7042070BD600200206402002006
:1039C000FC19002098010020B4020020AD02002064
:1039D0001C1500200C190020CC1700201C180020FA
:1039E0001004002050020020F3B5364881B0814217
:1039F00002D2491C8EB200E00126FF22541C21464F
:103A00003148FDF77AFB72B63048216888472E4F5F
:103A1000044601203D460004C035844220D101986F
:103A200038803C467E803C222949381DFDF745FB05
:103A30003846372227494030FDF73FFB38465022B1
:103A400025497830FDF739FBC421201DFDF76AFCBC
:103A50002881FF20013042681C49384690470446BF
:103A6000FF22511C1848FDF748FB01200004844246
:103A700004D1001201681948884704460120000457
:103A8000844214D1019838803C467E80F02214494B
:103A9000381DFDF712FBF021201DFDF743FCA88621
:103AA000FF20013042680D49074890470446012035
:103AB0000004844201D1012000E00020094908707F
:103AC00062B6FEBDFFFF00004C1A0020004E001041
:103AD0001C1500200C190020CC170020004F0010EE
:103AE0001C180020AE02002010B50B784A788978A7
:103AF000FEF73EFA10BD0000F8B5074608790D46FE
:103B000041004618E878410040180090E8784100EC
:103B1000411814484418002F04D1032221461248AA
:103B2000FDF7CBFA0098E11C321A2046FDF7C5FAE2
:103B3000002F0FD028790D490A5C002A09D0503196
:103B4000085C41004118074809188019C01EFFF79A
:103B500023FCF8BD0348032280190349FDF7ADFAA1
:103B6000F8BD00001C180020C601002043190020E9
:103B7000F8B5074608790E4641004518F07841002F
:103B80004418002F05D11148032241191048FDF7B0
:103B900094FA2A1B0D4D29190C46C81CFDF78DFA05
:103BA000002F0DD0F0780B490A5C002A07D0503165
:103BB000085C410040184119E01CFFF7EDFBF8BD1F
:103BC000204603220249FDF778FAF8BD1C180020B0
:103BD000C301002043190020F8B5A7490420A74CD1
:103BE00008602089FF218E31421AA54FA54E8842D8
:103BF0007ED009DC002811D0FF38363816D02128B5
:103C00006AD0522806D1BEE0062A72D00C2A71D0A2
:103C1000112A58D000202081E0801CE1FEF780FEB0
:103C2000FF203630208138680009E0630420FDF76A
:103C3000DBFB05466421E06BFDF7E0FB0543280450
:103C4000000CE0807ED00220FF25205E0135FF3091
:103C5000296A1230884700B26081002814D1608838
:103C6000801C00B26080FF30296A1230884700B2A1
:103C70006081002808D16088801C00B26080FF301D
:103C8000296A1230884760810420205E296AFF304B
:103C90001230884700B2A081002814D1A088801C6F
:103CA00000B2A080FF30296A1230884700B2A0819C
:103CB000002808D1A088801C00B2A080FF30296AAB
:103CC00012308847A081FDF759FBA063FF205730D1
:103CD000208138680009E0630420FDF785FB054674
:103CE0006421E06BFDF78AFB05432804000C02E029
:103CF0006FE097E0B1E0E0807DD0FFF7D5F8A16BF1
:103D000045186148A5630078002801D0FF35AF351C
:103D10005E485F490068096840185E4909684018B4
:103D2000C02148435C49FDF7ABF975210901081A28
:103D3000616B884201D2491E6163884201D9491CE6
:103D4000616300E057E075200001814203D86920DB
:103D50000001814201D2606300E0606B05214543B0
:103D6000E80AFF30C1304902A06340184B4988423D
:103D700001D3012000E000202070FF208830208146
:103D800038680009E0630420FDF72EFB0546642136
:103D9000E06BFDF733FB05432804000CE0802AD0DC
:103DA00070793179000600140843C117090F09180A
:103DB0000911401AA16BCA17120F511809114018A6
:103DC0003071000A7071FF208E3020813868000940
:103DD000E0630420FDF708FB05466421E06BFDF776
:103DE0000DFB05432804000CE08004D02C48417AE8
:103DF000002902D009E00420F8BD71793279090662
:103E0000091411430173090A4173417B007B0906C0
:103E1000091401431948E181133000F0C5FAFF206D
:103E2000943017E01E48C17B002907D1717932799F
:103E30000906091411438174090AC174C17C807C8C
:103E40000906091401430D48E181163000F0ACFA6F
:103E5000FF209A3020810220F8BD1148417E007E6B
:103E60000906091401430548E181103000F09CFA6D
:103E7000FF209F30EEE7000060020020B402002027
:103E80005002002075020020AC020020D801002062
:103E9000DC010020E0010020D02F000001690000BB
:103EA0001C15002030B54268526A007FC240D0071E
:103EB0000D4AC00F50540D488069FD22D201101ADE
:103EC0000B4BC20A09010B485D581C460C190068CF
:103ED000002D02D01043A06001E0104360605858EC
:103EE000401C585030BD0000A001002000E000E060
:103EF0009415002050020020F0B5002089B007463C
:103F0000064610240546069029488078002806D0E9
:103F10002748032227491730FDF7CFF821E026482C
:103F20002649005D0190085C009001980322410041
:103F300041182148503009181D481730FDF7BDF8C9
:103F4000009800280DD01D4901985031085C009A56
:103F50004100411818485030091815481730FFF72C
:103F60001BFA134920461731FFF7BEFD202D09DA51
:103F70000F480699173002785118069141788078D9
:103F8000CF198619641C6D1C502CBDDB084806999E
:103F900007634663C162FFF7BFFA002805D1FFF748
:103FA000BBFA002801D1FFF7B7FA09B0F0BD000055
:103FB000B801002094460010CC17002043190020BF
:103FC000F8B5054606204F4B6843C61834460934F9
:103FD0004D4F707A022D06D0012829D0032827D012
:103FE000052825D029E0484980071631800F05D0E3
:103FF000012805D0022819D0002020708C2000E074
:10400000BF206071987E4870987E087100206070B3
:10401000A0708870C87020780870B87E3B4948430B
:10402000FF217F30FDF716F8044666E0FF20E8E741
:10403000FF79002F0BD0012812D0002809D00128C9
:1040400047D80878000290420DDB48783CE0002019
:1040500020702D4882794079120612140243F0E74D
:104060000C22B25EEDE7DE7E700040182038837FC0
:104070001B02934201DCC07F26E0012027E04300C1
:10408000CB5C1B029A4203D14000401840781BE0F1
:104090009A421BDA400040180646203EB17F407825
:1040A0000F02D91B10D0F67FD21B801B5043CA0FC2
:1040B000521852101018FCF7E3FF801901D50020A8
:1040C00002E0FF2800DDFF20607102E0401C864214
:1040D000D5DC284600F086F80C490C1A002D04D0D7
:1040E000012D06D0022D0CD107E021460848FDF72E
:1040F00017FC21460748FDF713FC21460648FDF74B
:104100000FFCF8BD1C1500207402002010270000D1
:10411000740300209C0300204C030020F0B500270E
:1041200087B03E463D463C4628488078002806D069
:104130002648032226491430FCF7BFFF21E025481A
:104140002549005D0190085C009001980322410020
:1041500041182048503009181C481430FCF7ADFFB6
:10416000009800280DD01C4901985031085C009A35
:104170004100411817485030091814481430FFF70F
:104180000BF9124814300178C9198FB24178807840
:1041900089198EB240190D4985B214312046FFF7B6
:1041A000A3FC641C102CBFDB084800210762466298
:1041B00085620A48C9434164002101600146242206
:1041C0000748FDF732FE07B0F0BD0000B80100203F
:1041D00094460010CC17002043190020C41600207C
:1041E00004040020F0B507460620394641436748DD
:1041F00087B00D18F900CA1B6549FF245118083112
:104200000091C1786348A4004143224601A80935C2
:10421000FCF74AFF5D483901783009188889029A0D
:10422000019E801800B28881A04202DD001B8881B7
:10423000761C009829780170009869794170A978F6
:104240006A7809021143009A681C9170090AD170BA
:104250007900514A0591545A29780391042911D0C3
:1042600005290FD068794B494843FF21FCF7F2FE3E
:1042700003990906090F0A2921D0811BA14220DDDB
:10428000A41922E0444AB900921D5158434A914270
:104290001BD042780378100218430246963A8A42AD
:1042A000EEDC421F8A4201DD241D0EE002469632FA
:1042B0008A4209DB401D884207DA241F05E00446D4
:1042C00003E08119A142FADAA41B324D022F13D068
:1042D0002F482F4F82794179100600140843797FC7
:1042E000002900D001216A46117428498A791202F6
:1042F000824206DC012209E02948844234DA04467D
:1043000035E04A791202824202DD00226B461A74BD
:104310006A46127C7D263601002A1AD00B7A1A02D0
:10432000824201DA284610E0C9790A0282420BDA99
:10433000591A090200D54942801A7D229201504340
:10434000FCF79EFE801900E03046844209DA0446FC
:1043500007E00398022801D0042802D1B44200DA11
:1043600034466846017C7977AC4200DD2C46200259
:10437000011B0C4808182946FCF782FE0099064AE2
:1043800008710599A0B2505207B0F0BD1C1500206D
:104390007402002010270000A6010020FFFFFF7F0D
:1043A0007215000088130000F3B5214D0C46E87922
:1043B0002E460002083681B0A04214DD0322291DDA
:1043C0000198FCF77AFEE9780802A04228DAEA7937
:1043D000201A511ACA0F521852101018FCF750FE2A
:1043E000C2B2314619E0E87A114F00020C37A04200
:1043F00017DD032231460198FCF75FFEE9790802D8
:10440000A0420DDAEA7A201A511ACA0F5218521035
:104410001018FCF735FEC2B239460198FEF7BCFF12
:10442000FEBD032239460198FCF747FEFEBD0000A1
:104430000C1900200A4A1018C07B50280ED24200E6
:104440008018074AC0B20B78F03A1354401CC0B22F
:104450004B781354401CC0B2897811547047000047
:104460000C190020F8B530492020304C0860A08895
:1044700000252F4E002807D00C280AD0222843D030
:10448000A58065800220F8BD0C20A080306800095E
:10449000A0602020FCF7A8FF074626493AE02649FD
:1044A000C879002801D0401EC871244F38780028F0
:1044B00008D0FDF751FD002804D0FDF729FC0028A5
:1044C00000D03D703878002811D11D488078002830
:1044D0000DD11C480068032809D0207800280BD093
:1044E000401E2070C0B2042806D9012005E02078C3
:1044F0000F28F7D2401CF4E700201349087022204F
:10450000A08030680009A0602020FCF76DFF7D21AD
:104510000746C900A068FCF771FF07433804000C88
:104520006080BCD10420F8BD60020020F4020020AD
:1045300050020020B414000074020020AD020020DC
:10454000980100204C020020BA010020F0B501279C
:10455000154ABF0540251346013924D404780126A5
:1045600030442406082600BF00BF00BFBFF36F8F92
:1045700064001F60BFF36F8F00BF00BF00BF00BFAC
:1045800000D2156000BFBFF36F8F013E1560E3D00E
:1045900000BF00BFBFF36F8FBFF36F8F00BF00BFBF
:1045A00000BF00BFE4E7F0BD040004401400FF05B5
:1045B000002D32374100E80300003300E80300001B
:1045C0003301CA080000BF071C401D4D1E7820990A
:1045D00022B324D926FF1C401D4D1E78209922B3FA
:1045E00024D926FF0000000000FF0019FF0000286A
:1045F00000FF00410000FFFFFFFFFFFF096606000C
:104600000B0000000000000000000000000000009F
:1046100000000000000000000000FF050000000A8C
:1046200001040705060708090A0B0001020304013B
:1046300004070A0104070A0000000000000000004F
:10464000000000000000000000000000000000006A
:10465000000000000000000000000000000000005A
:10466000000000000000000000000000000000004A
:10467000FF0E7F7F00FA0006DB0032D70058F600FD
:10468000769400B40000FF004AFF0094FF00DFFFB3
:1046900000FFAA000000FF000000FF0055AA00AACA
:1046A000AA00FF0055AA00FF0000AA00555500AA65
:1046B0000000FF001F000000000000810003002038
:1046C000B84600100F0000000300000005000000C5
:1046D0000000000010000000000000002403002083
:1046E000000204400800000000010000000001007A
:1046F00000000000000004408000000001000000F5
:104700000500000000000440000000000000000060
:1047100000000000000004408000000000000100D4
:104720000600000000000000000000000000000083
:1047300000000000000000000006014000020440EC
:104740001000000000000000000000002D0100002B
:1047500005030002000100000006014000020440C1
:104760001000000000000000000000001D0100001B
:104770000403030109010000000601400002044097
:104780001000000000000000010000000D0000000B
:10479000030302000601000060BB8151C0B3309EDC
:1047A000BAF101009847001001000000000000006D
:1047B000000001000000010000000100A000000056
:1047C0000000010001008D057104000000000000E0
:1047D0000000000000000000B0470010B4470010C7
:1047E000B8470010000000000000000000000000BA
:1047F000000000010000000000000008A8470010B1
:10480000010000000000044007000000BC47001049
:104810003C03002001000000000000000000010037
:104820000000010000000100A000000000000100E5
:1048300001008D051C0100000000000000000000C8
:10484000000000001C480010204800102448001000
:104850000000000000000000000000000000000157
:1048600000000000000000201448001001000000BB
:104870000000044009000000284800103C0300200C
:104880000100000000000000000001000000010025
:1048900000000100A00000000000010001008D05E3
:1048A0001C010000000000000000000000000000EB
:1048B000884800108C48001090480010000000004C
:1048C00000000000000000000000000100000000E7
:1048D00000000010804800100100000000000440AB
:1048E00008000000944800103C030020000204402F
:1048F0000A000000000204400B000000B0000000AD
:10490000010000000000000000000000D4030020AF
:10491000351B0010EC480010C4030020000000000C
:104920000000000000000000000000000000000087
:1049300000000000F4480010FC48001000000000D7
:104940000000000000000000000000000000000067
:104950000000000000000000000000000000000057
:104960000000000000000000000000000000000047
:104970000000000000000000000000000000000037
:1049800000000000000000000000000000000080A7
:104990000202050001000000B0000000010000005C
:1049A00010000000010000000008070000080801D6
:1049B00008000000000004400F00000098490010AB
:1049C000A849001085200010F51600100000000016
:1049D00000000000000000000000000000000000D7
:1049E000B449001000020000060000000C4A00104C
:1049F000000000201C04000044110010484B00106F
:104A00001C04002064380000E82D00108D2F48FEA3
:104A1000E70411CA4710E904A920290C091E04095A
:104A2000262C091268091A20890441320132021326
:104A30004310331004320532063207320832095A65
:104A40000A20320C5A0D0C1315202A100869041381
:104A5000B1161B10C1041AD104291032175A182C90
:104A6000CB21232C29044B4124083221322232232A
:104A70005A2430A9043229322A322B322C322D32D8
:104A80002E02142F0214502BD007026DFFFFFF7F60
:104A900004812B0101FE01460A36FF383A03011159
:104AA000021703F208331120023C14120F0A1E5A97
:104AB000942CFFFF7F043C33FAFFD7A35007A9A82B
:104AC00013D846121022011ABC081ACC041AB404D6
:104AD0001328032B20C418311B02041D312B24473B
:104AE000108303482A02174C90D0031E3A04183A48
:104AF000C424190C1A02041919294129EBB2401ACD
:104B0000D4885B3048281A0404298D0911292342CE
:104B10001F6A9C282A035431296D2908CA04285A7F
:104B2000B81B817CD0DD062539C501174C0507056A
:104B30003A120214480C491B10E0F8311B48C00C13
:104B4000134C1B02002000000000000000000000C9
:104B50000000000000000000000000000000000055
:104B60000000000000000000000000000000000045
:104B70000000000000000000000000000000000035
:104B80000000000000000000000000000000000025
:084E0000210CDEC020110000AE
:0400000510001019BE
:00000001FF
