:020000041000EA
:10100000283F0020D9100010000000000000000060
:10101000000401000000008000F002F800F030F849
:101020000CA030C8083824182D18A246671EAB46FD
:1010300054465D46AC4201D100F022F87E460F3E98
:101040000FCCB6460126334200D0FB1AA246AB466F
:10105000334318475C3F00007C3F0000002300241E
:1010600000250026103A01D378C1FBD8520700D3DF
:1010700030C100D50B6070471FB51FBD10B510BD46
:1010800003488546FFF7F8FF02F0C0FC00F0B4F912
:10109000283F002003B4FFF7F1FF03BC00F0B4F9D0
:1010A00070B505460C46164602E00FCC0FC5103E43
:1010B000102EFAD2082E02D303CC03C5083E042E0C
:1010C00007D301CC01C5361F03E021782970641CC9
:1010D0006D1C761EF9D270BD0549064A30200A60A3
:1010E0000431401EFBD10448804704480047FEE716
:1010F0000000002000BFFEE7E324001019100010DC
:1011000010B50B4604461146184600F0D2F803C449
:1011100010BDF8B5042A2CD3830712D00B78491CD4
:101120000370401C521E83070BD00B78491C0370C0
:10113000401C521E830704D00B78491C0370401CCE
:10114000521E8B079B0F05D0C91ADF002023DE1B20
:1011500008C90AE0FFF7A4FFF8BD1D4608C9FD4015
:101160001C46B4402C4310C0121F042AF5D2F308C9
:10117000C91A521EF0D40B78491C0370401C521E31
:10118000EAD40B78491C0370401C012AE4D4097886
:101190000170F8BD431A70B593421BD289188018AC
:1011A00004E0491E401E0B78521E03709307F8D1CD
:1011B00006E01039103878C9103978C01038103A64
:1011C000102AF6D203E0091F001F0B680360121FEC
:1011D000F9D570BDFFF764FF70BDF8B5064614463B
:1011E0000843800707D0751AA54219D20819102D97
:1011F00013D2311907E03046FFF7CCFFF8BD401E8F
:10120000491E02780A70641EF9D2F8BD471B2A46AF
:101210003946FFF77EFF641B3846A542F6D3011B13
:1012200022463046FFF775FFF8BDD2B210B5130263
:101230009A1813049A1800F00EF810BD01E004C0CB
:10124000091F0429FBD28B0701D50280801CC90726
:1012500000D00270704700290BD0C30702D0027083
:10126000401C491E022904D3830702D50280801C3A
:10127000891EE3E70022EEE70022DFE70378C27869
:101280001946437812061B0219438378C0781B0461
:10129000194311430902090A000608437047002256
:1012A00003098B422CD3030A8B4211D300239C46A3
:1012B0004EE003460B433CD4002243088B4231D31B
:1012C00003098B421CD3030A8B4201D394463FE0AF
:1012D000C3098B4201D3CB01C01A524183098B420F
:1012E00001D38B01C01A524143098B4201D34B01F8
:1012F000C01A524103098B4201D30B01C01A52415B
:10130000C3088B4201D3CB00C01A524183088B42E1
:1013100001D38B00C01A524143088B4201D34B00CA
:10132000C01A5241411A00D201465241104670473C
:101330005DE0CA0F00D04942031000D34042534041
:1013400000229C4603098B422DD3030A8B4212D301
:10135000FC22890112BA030A8B420CD38901921133
:101360008B4208D3890192118B4204D389013AD070
:10137000921100E08909C3098B4201D3CB01C01A45
:10138000524183098B4201D38B01C01A5241430958
:101390008B4201D34B01C01A524103098B4201D346
:1013A0000B01C01A5241C3088B4201D3CB00C01AB3
:1013B000524183088B4201D38B00C01A5241D9D2CB
:1013C00043088B4201D34B00C01A5241411A00D24C
:1013D0000146634652415B10104601D34042002B48
:1013E00000D54942704763465B1000D3404201B5C7
:1013F0000020C046C04602BD10B50446C046C046E7
:101400002046FFF747FE10BD01491820ABBEFEE79E
:1014100026000200704770B58C180578401C6B07D9
:101420005B0F01D10378401C2A1106D10278401CC1
:1014300003E00678401C0E70491C5B1EF9D12B0797
:1014400005D40023521E0DD40B70491CFAE7037813
:10145000401CCB1A921C03E01D780D70491C5B1CCC
:10146000521EF9D5A142D8D3002070BDF8B504466C
:10147000007E02286FD1E06800F064FBA1680023C1
:101480000E46377819463943777805463F02394387
:10149000B778F678E0683F043943360640681A4664
:1014A000314301F06FFEA16800220E4637781146E5
:1014B00039437778E0683F023943B778F6783F04DC
:1014C0003943360640680123314301F05BFEE06892
:1014D0006168406801F024FEE068052241682068E8
:1014E000D201406889180068086000262068B100B1
:1014F0004058E16842794B6801798900C918FF3189
:1015000081310B68012797403B430B60006800283E
:1015100002D000F057F80543761C3606360EE5D0AB
:10152000E068617E406801F037FE216908784A680A
:1015300040B2FF2100280FDB86081F4BB600F618CB
:1015400033688007C00E81408B439107090E8140AC
:101550000B43336011E02DE003071B0F083B9E088F
:10156000164BB600F318DE698007C00E81408E432B
:101570009107090E81400E43DE612069007840B278
:10158000002805DBC106C90E012088400C4908600F
:101590006069002800D08047A07E002809D0E0685C
:1015A0004068FF30FF30023041680122520211438F
:1015B00041602576207EF8BD00E400E000ED00E00B
:1015C00000E100E010B5044640680078002806D12C
:1015D0002068002800D08047616801200870002042
:1015E00010BD02780021002A01D1012202700846B4
:1015F000704710B500F03DF810BDF0B5002821D0BF
:10160000C268017C134644688A402240CA40426056
:101610000468217C657CA94201D111460DE0D10707
:10162000C90F0125266805E05208D7074900FF0FBA
:1016300039436D1CB542F7D34160E268514019400F
:1016400041600846F0BD002811D0036801221978D6
:10165000491E8A40511E11438260C160002202610E
:10166000587C084000D001205874002070470120A9
:101670007047F0B5076804468BB0B86860600D46E7
:1016800021690391019161690791A16916460020C2
:1016900002913EE029788C46397C089101296168E5
:1016A00014D0019A3B78083A9A18D14062465140CA
:1016B000029AC9B25143079A8918009139680829DA
:1016C00006D0102907D020290BD013E0019AECE7AF
:1016D000009800780EE000984178027808021043E4
:1016E00008E00098FFF7CAFD00990002C978000AD7
:1016F000090608430899012961680ED0039A082356
:101700009A1A9140E268039B41409A4011406D1C37
:101710006160761EBED20BB0F0BD090A4140E2689E
:10172000019BF2E70A4610B501460648FFF761FF44
:101730000448FFF762FF401C034980B2884200D191
:10174000002010BD4C050020FFFF000030B503460F
:1017500000200246044C03E09D5C4540605D521C45
:101760008A42F9DB30BD00008416002010B5164C0B
:101770000022216AE0692262E261144A00025143B8
:10178000CA0F521852108018FFF789FD6421803863
:1017900048430F4AA16A914209D0D12251432F22D6
:1017A000504308188030C117090E0818001205218F
:1017B0004902084A4118A062914201D3012100E088
:1017C0000021217000B210BDB802002033030000D8
:1017D000FFFFFF7F01690000034A014613691840BB
:1017E00013698B43136170474C02002008B5054A0A
:1017F000D2681209101A0090884201D3022008BD55
:10180000002008BD4C020020F0B53648364B01469A
:10181000027865390A70DA718378FF22FF2B02D0D3
:10182000C378CB7082700379FF2B08D043794B715A
:1018300083798B71C379CB71037A0B720271427811
:1018400000262A4C552A3CD0A670002206231546B5
:101850005D432F187B7AFF2B0FD06D186B725B07DF
:101860009B0F012B35D0022B36D0032B05D07B7B71
:101870003F7B1B061B143B43AB81521C022AE5DB5A
:10188000427DFF2A06D04A75427E037E120612145C
:101890001A430A83C27EFF2A11D0CA7600256A0045
:1018A00013185F7F521857771F7F17772033203226
:1018B000DF7AD7729B7A6D1C9372072DEFDB26704F
:1018C000F0BDA278002AC0D10122094BA2701A7083
:1018D000BBE7BB7BAB73D0E7FB7ABF7A1B023B4312
:1018E0006B81CAE7E91700207C02002090010020EC
:1018F000B6020020F0B5324900250A460D70543278
:101900001078FF272F4EFF2801D030701770907885
:10191000FF280FD0002081008B188919DC78CC704B
:101920009C798C715C794C711B79401C0B7103287C
:10193000F1DB977000201118CB7BFF2B02D03418FD
:10194000E373CF73401C0328F5DB1D487430817CA2
:101950001C4820308174907CFF2801D0B0749774AB
:10196000D07CFF2801D0F074D77400208100431888
:1019700099180C7D9B191C758C7D4D7D24022C4380
:101980005C75240A9C750C7E1C76CC7DDC750D4C38
:1019900085000023D83463532C19E370A370401CD6
:1019A0000F750628E2DB064900204C310B54401C21
:1019B0000828FBDB7078002801D053707370F0BDED
:1019C000C0010020B01B002010B52748FFF709FE1A
:1019D000002848D1254800F0FBF8002843D12448CE
:1019E00000F05AF900283ED12248FFF73FFD0028B9
:1019F00039D1214800F050F9002834D11F4800F0B7
:101A00004BF900282FD11E4800F0E2F800282AD117
:101A10001C4800F0DDF8002825D11B4800F044F8F0
:101A2000002820D1194800F02DF900281BD11848B2
:101A300000F02EFC002816D1164800F035F80028DA
:101A400011D11548FFF7FFFD00280CD1134800F015
:101A5000A3FD002807D1124800F0BAF8002802D1EF
:101A6000104800F019F910BD35030020704C00102B
:101A70008C05002018030020B4050020DC050020A0
:101A8000904C0010B04C00103C4C0010FC4C00106E
:101A90006C0600204C4C00104C05002078060020FD
:101AA000D04C00100406002010B50446017B0068ED
:101AB000221D01F057F8627B217B206801F08AF833
:101AC000002010BD10B50121014802F05DFC10BDE1
:101AD000B04C001010B50021014802F055FC10BDBB
:101AE000904C001010B50548054A0168007B824003
:101AF0004A600221034802F047FC10BD3C4C001034
:101B000001000100704C001010B50321014802F0E3
:101B10003BFC10BDD04C001010B507493F2208789F
:101B2000401C8006800E087004498001411804485A
:101B300000F035FD10BD000080010020840600206B
:101B40007806002010B50446007C022816D12168D2
:101B5000606801F0F3FAA068016C026C03239B0239
:101B60009A4311430122D20311430164607C01288E
:101B700002D1606801F020FB00202074207C10BDA1
:101B800010B50446407B002809D1217BA06800F0F5
:101B9000A7FEFF21A0680131C16001206073002011
:101BA00010BD000010B5094B0020C1B200224C004E
:101BB0000906C910490F4C40521CE1B2082AF6DB55
:101BC0001954401CFF28F0DD10BD000084160020D1
:101BD00070B50446017F22464068083200F0C2FF1B
:101BE0002246A17E1032206800F09DFFE17E012296
:101BF000206800F0ACFF18202056627EFF210028EC
:101C00000EDB85081B4BAD00EB181D688007C00E6E
:101C100081408D439107090E81400D431D6010E006
:101C200003071B0F083B9D08134BAD00ED18EB6934
:101C30008007C00E81408B439107090E81400B4302
:101C4000EB61607F012812D118216156002905DB64
:101C5000CA06D20E01469140084A11601821615609
:101C6000002904DBC906C90E884005490860002028
:101C700070BD000000E400E000ED00E080E200E064
:101C800000E100E010B50024006800F0AFFF01287B
:101C900000D00124204610BD70B50446007F012508
:101CA000002802D00225284670BD2068C06CFFF7CE
:101CB00067FF002802D000202077F4E72068816BBE
:101CC000A06800F01DFE2068A16840884863206875
:101CD000A1688088C8632068816B0968890103D581
:101CE000416B606800F018FF6168206908616168F5
:101CF00060690861204600F05AF8204600F0CEF8EE
:101D000020683C21095C012905D14421095C826CD1
:101D1000006C00F027FF26680125B16BF06C097993
:101D200000680A07120F29469140FFF7B8FA2062AF
:101D30002577307800250128B5D1204600F01EF81F
:101D40000546B0E770B50E460446217F0120002904
:101D500011D009498E420ED8A568286B8A1B80B223
:101D6000401C5043FFF79BFA80B2E863616820692A
:101D700008610020666270BD1027000010B5027F68
:101D80000121012A01D0032A0FD1417B01231C46E6
:101D900042688C40D460016820310978002901D163
:101DA0008168CB60022101770021084610BD10B583
:101DB0000446006801214269A06800F0B9FD20686E
:101DC00002218269A06800F0B3FD20680321C26986
:101DD000A06800F0ADFD206820300178002903D014
:101DE0004278A06800F05DFE2068203081780029EC
:101DF00003D0C278A06800F06AFE20682030017924
:101E0000002902D0A06800F0F2FD2068203041795E
:101E1000002902D0A06800F0F9FD20682030817907
:101E2000002902D0A06800F0DAFD20682030C179D6
:101E3000002902D0A06800F0F1FD20682030017A6E
:101E4000002904D0837A427AA06800F0EFFD206870
:101E50002030817B03290FD1C27B017CA06800F078
:101E600044FE20682030407B012805D1A0684169EC
:101E70000122520411434161206801462031CA7A8F
:101E8000022A0AD1097B032907D1C2698169A068A6
:101E900000F073FDA06800F013FE10BD10B50446FD
:101EA00000688179012908D1427B0021A06800F0F7
:101EB000D6FD0021A06800F0A2FD2068C1790129AB
:101EC00008D1827B0221A06800F0C9FD0221A06830
:101ED00000F095FD2068017A012908D1C27B032119
:101EE000A06800F0BCFD0321A06800F088FD206818
:101EF000417A012907D1027CA06800F0B0FD0121E0
:101F0000A06800F07CFD2068817A012908D1427C1C
:101F10000821A06800F0A3FD0821A06800F06FFD73
:101F20002068C17A012908D1827C0921A06800F0CB
:101F300096FD0921A06800F062FD2068017B01295F
:101F400008D1C27C0A21A06800F089FD0A21A0689E
:101F500000F055FD10BD000070B52D4C2B492046FA
:101F600000F026FFE06B08218843E063606B0125E9
:101F700028436063606B0F21090688430843606350
:101F8000606B3F210904884308436063C8036169AB
:101F90000D22120791430143616160697F210902AB
:101FA0008843002629020843606105223146204605
:101FB00000F028FF00220321204600F023FF00222A
:101FC0000421204600F01EFF00220521204600F0DB
:101FD00019FF206C00090001284320640B4A0D4DB5
:101FE000103A0A21284600F0BDFD00220A212846A9
:101FF00000F0F0FD084A0B21284600F0B3FD002256
:102000001021204601F072F8304670BD3C060020D9
:102010000002004800020440C04E0010F8B54F4FC7
:1020200004460078F978884201D10120F8BDF870A3
:10203000FF21B970C0083AD03E212046FFF786FB49
:10204000474908703E21095D814201D00220F8BD58
:102050002078454E450743486D0F0179C278090243
:102060001143491CC170090A0171002D0FD0012DC7
:102070001ED0022D22D0032D2FD0042D58D0052D97
:1020800059D0062D5BD0072D5DD00520F8BD3078E6
:10209000002860D16078FF2802D034483C220FE04D
:1020A000A078C1081F2956D14007400FB87052E0F0
:1020B000307800284FD12E48372201E02D482822C1
:1020C0002D49284B0978D971611CFFF722F80120AE
:1020D000002D3CD0012D3DD03DE0257F274F641CD5
:1020E000FF2D12DA072D00DD072524486E0021465A
:1020F00032461C310D30FFF70CF82048214632469D
:102100002A311B30FFF705F83D73607AFF2805D0B0
:102110002146062209311948FEF7FBFFE07BFF2824
:1021200019D0214606220F31B81DFEF7F2FF12E04A
:1021300013483C22C8E712483C303C22C4E7104810
:1021400078303C22C0E70E48B4303C22BCE70D4951
:10215000087000E030700020F8BD00008001002011
:10216000B40200207C020020C0010020E9170020FA
:1021700014020020701A002084170020C0170020CD
:10218000C01A002090010020FEB53248019032486C
:10219000009035490120087034492D4A08702F4FAE
:1021A0002F4E304D0024EE211046FFF7BBFA294A8E
:1021B0000146203A507C127C0002104381421DD11E
:1021C000F2210198FFF7AEFA224A0146E032507D33
:1021D000127D00021043814210D11D481C4F773000
:1021E0001C4E1B4D1B4900903F1D393E4035F022CF
:1021F000091D1F48FEF78DFF012409E01C48CC2172
:102200002430FFF737F824221A491948FEF781FFD6
:10221000502219480099FEF77CFF3C2239461748A6
:10222000FEF777FF3C2215491548FEF772FF292279
:1022300031461448FEF76DFF372229461248FEF753
:1022400068FF372210491148FEF763FF2046FEBDA4
:1022500000FE001000FF0010544B0010E14A001077
:10226000B84A00101D4B001090010020C001002052
:10227000C01A0020A44B0010701A00208417002000
:10228000E9170020C0170020B01B00201402002016
:1022900040684068004710B503465C680120803400
:1022A0002479022C02D1184600F002F810BD00007B
:1022B000F8B5054601260220AC6800297BD0002A2B
:1022C00079D0274620373B78002B75D12068082825
:1022D00000D9022601203870701E82406260002002
:1022E000A161A060217F286800F09AFD68686030D5
:1022F000007F002827D028680121C903FF30013062
:10230000816117E02868C11DF9314A69D204D20FF2
:10231000FBD17978012912D0A268A169022E10D0D0
:10232000895C227F92001018FF3081300160A06824
:102330008019A060A16860688142E3D326E020494B
:10234000EFE7895AEDE7286800F0F0FD8028FAD021
:102350007878012825D0A168A069022E29D0405C98
:10236000227F29689200511880310860A068801986
:10237000A0602868816C4905FCD50122C16C9202DD
:102380001143C164A16860688142DCD3286800F011
:10239000CDFD8028FAD0002038706060A0600BE08E
:1023A00009E0074A207F29688000401880300260D9
:1023B000DCE7405AD4E7032001212034A170F8BDA6
:1023C000FFFF000010B503484188034801F072FD8B
:1023D00010BD000000FE0010220C000070B50124AA
:1023E000E40310282ADA224DAE884E4331196E8854
:1023F0002D8856435D4332192B191E4C09021202D7
:102400001B022478090E120E1B0E002C03D01A4C4E
:10241000615CA25CE35CFF252D020C045D192C437A
:1024200015062C43154D8000401944601048114397
:102430004038427819438918417070BD0C4D1038EE
:10244000AD1DAE8880064E4331196E882D885643E7
:102450005D4332192B19800E44000019074C090CFA
:10246000120C1B0C4834001902704170837070BD4F
:1024700000020020B7020020681800206819002020
:102480000248C1681031C160704700004C02002052
:102490000EB5044A6B4607CA07C3684600F0E8FB5E
:1024A0000EBD0000304C001010B5094908680968DD
:1024B0000004000E074CC9B2002806D000024118E3
:1024C0000548FEF7ECFE400000E00448206010BD27
:1024D00000030140FC3F0020000024F40048E80114
:1024E000704710B5FFF7FCFFFFF7D2FF10BD0000EB
:1024F00070B5264E0025244A0E21304600F032FBEE
:1025000021490924E4060831204600F09DFC002200
:102510001146204600F0E2FD00220321204600F093
:10252000DDFD00220521204600F0D8FD0023062213
:102530001946204600F0FEFC206C00090001801CBA
:102540002064114A0F21083A304600F00BFB0022AC
:102550001021204600F0CAFD01221021204600F083
:1025600001FD01221321204600F0FCFC0849086807
:10257000FF221204904332011043086005491013F2
:102580000860284670BD0000644F00100000044041
:1025900008E400E000E100E040684068004710B552
:1025A00003465C6804202034A479002C02D118462C
:1025B00000F001F810BD70B50446656804232035AD
:1025C000AD798068002D2CD1457E0223002D28D1C5
:1025D000002925D0002A23D00261416001214176E3
:1025E0000021416160682030007A0028206810D006
:1025F0005903FF30013081611146204600F076F822
:10260000206803214907FF300130C2680A43C260D5
:1026100004E00321026C89030A430264002300E002
:102620000323184670BD10B503465C6804202034AF
:102630006479022C02D1184600F068F810BD70B51C
:1026400005468468406800262030007A002820D1A2
:102650002FE022696169914201D3084607E000F04A
:10266000E7FB6269616888546069401C60612169A8
:1026700088420ED16676286803214907FF30013071
:10268000C2688A43C26068688068002808D08047B2
:1026900006E0FF212868153109580907C90FD8D06D
:1026A00021696069884203D2091A284600F01EF8A1
:1026B00070BD21696069884208D2286800F0B8FBC3
:1026C0006269616888546069401C60612169884260
:1026D000EED1667628680321026C89038A4302647E
:1026E000686880680028E3D0804770BD10B54268F4
:1026F0002032137A01229A40914201D24A1E00E010
:10270000521E0068194600F038FC10BDF8B50446AA
:10271000032016460F46002936D0002E34D0A1687B
:1027200002200A7E002A2FD101200876606820301E
:10273000C079002805D020680121C903FF3001308D
:10274000816100250FE02030C079002806D0206884
:10275000FF3001304169C904C90FFBD1795D2068A0
:1027600000F0B6FB6D1C6068B542ECD32030C07938
:10277000002806D02068FF30013041690905C90FE3
:10278000FBD0A26800201076F8BD000010B502480A
:10279000FFF755FF10BD00007806002010B519485E
:1027A000194B017819480029807C09D0DC2141436C
:1027B00019800102091A5980A7214143998013E029
:1027C000FF211C314143124C0A46A14200DD214643
:1027D000198021468A4200DD22465A80A0224243C7
:1027E0008A4200DD0A469A808C2102464A43064905
:1027F000891D0A80EA2242434A80020280188880AA
:1028000010BD0000B702002000020020D01B0020F5
:10281000FFFF000070B520480078002801D0FFF7C6
:1028200069F81E4CA07C2546F03D502804D241009A
:102830004018401901F014FAE07C502804D24100FD
:102840004018401901F00CFA1549002002F078F800
:102850001449012002F074F81349022002F070F8C4
:102860002078002816D10D4850213730FEF702FDA0
:10287000002000F047FE012000F044FE022000F09E
:1028800041FE032000F03EFE042000F03BFE052048
:1028900000F038FE70BD0000C0010020B01B002019
:1028A000CB020020CE020020C802002005480068AC
:1028B00081B20548C2698918C161016A491C016277
:1028C0007047000000030348B8020020034910B518
:1028D000884202D1042000F03FFA10BD00000448F5
:1028E00070B50D460446FFF7F1FFFF200130E060B0
:1028F0002068032189038843A9030143216070BD37
:102900000A6842618A889204D20F120542600A79ED
:102910001207120F42628A881205120F02628A8819
:10292000D204D20F826109790906090FC16270478A
:10293000F0B50668491E4C002346032710333D4678
:102940009D40AE4355789D4035430B4616330126D6
:102950009E40B54396789E40234619339F40D478D5
:102960002E439C408B00BE430F21344399408C433F
:102970001178994021430160F0BD10B5046803232C
:102980009B049C434B789B04234303242405A343CB
:10299000547824051C430123DB059C438B78DB051D
:1029A000234301242406A343947824061C430323D1
:1029B000DB069C43CB780978DB06234303246407BA
:1029C000A343D478090164071C43F0239C431B01F3
:1029D00012782143994312020A43026010BD4268F3
:1029E00003239B039A438903114341607047426864
:1029F00003239B029A438902114341607047803050
:102A0000426A01238B401A434262704742680323A3
:102A10001B029A4309021143416070474268032335
:102A20001B039A43090311434160704770B5446921
:102A300045680326B604B543890429434160012152
:102A40000906012A06D08C430121C905002B03D0B9
:102A50000C4302E00C43F7E78C43446170BD10B5B2
:102A60008030846A0B0000F0BDFB0A0606090914D9
:102A70001414140C1014032300210DE00C23022164
:102A80000AE003231B02082106E003239B020A211C
:102A900002E003231B030C219C438A4022438262F1
:102AA00010BD43689B089B000B43436041690123B1
:102AB0009B02012A02D09943416170471943FBE709
:102AC000416801221204914311434160704710B5DF
:102AD00043680C24A3438900194341604169A30161
:102AE000994312020A43426110BD10B543680124A4
:102AF0006404A3432343436043692401002A01D0B3
:102B0000234300E0A34301229205012902D093430D
:102B1000436110BD1343FBE702680B0C9A4389B273
:102B200011430160704770B515460E46044600F02B
:102B30000DF82168B0000F22824091432A6882403C
:102B40001143216000196968016170BD70478900F7
:102B50000818016A302392079943920E11430162CB
:102B600070470000F0B58B089B001C1823698D0787
:102B7000ED0EF826AE40B343AC462361436F4E00E2
:102B80000325B540AB434367CB089B001B181E6C65
:102B90004D07ED0E0427AF40BE431E645678AE408D
:102BA0001D6C2E431E640A4B984204D1036E01250E
:102BB0008D40AB43036613781B0602D553688B40E8
:102BC0004360107861468840216908432061F0BD68
:102BD0000002044010B5436F490003248C40A34316
:102BE0004367436F8A401343436710BDF8B50546FA
:102BF0000126022000F02CF8144CA1890820014382
:102C0000A18100214A00AA5A2280A288D207D20FAD
:102C1000FBD0491C89B20529F4D3A1898143A18144
:102C200021886846018021880180218801802188CF
:102C300002880A400280A87A00F00AF8A0894007BA
:102C4000800F00D100263046F8BD00000000024889
:102C500003498A8906239A43400002438A817047C8
:102C6000000002480148006870470000FC3F002057
:102C700010B5024600F092F8516890680843074981
:102C80000B680F242404A343184308600449C3209D
:102C900048621178507800F00FF810BD0003014031
:102CA0000000014003498968014201D001207047BA
:102CB0000020704700030140F8B50D46044600F0BF
:102CC0006DF8204A106811680004030E1E48014088
:102CD0001E4829430143116011684900FCD41C4976
:102CE000A3420DD910E0002B00D1012315689B00F1
:102CF0000D401E0235430543156015686D00FCD478
:102D00009D00A542EFD30DE0A60009E015689B08E1
:102D10000D401F023D430543156015686D00FCD44E
:102D20009E42F3D313680B4021020B43034313600D
:102D300010684000FCD40749C3204862FFF7B4FB89
:102D4000F8BD00000003014000FF0FC00000F03F8D
:102D5000FF000FC00000014000B5024600F01EF861
:102D6000054908691043086108684000FCD403491C
:102D7000C320486200BD0000000301400000014084
:102D800001480088704700004010014002488188D7
:102D90000122114381807047201001400348C02167
:102DA0004162416A4907FCD47047000000000140BD
:102DB00070B50C46054600F09FF8607900280CD1EC
:102DC00020792168002804D00222284600F036F934
:102DD00003E00222284600F0E3F809486863512026
:102DE0000001A8636079002803D1A0790B21084372
:102DF000E8630020C043E8642089286470BD0000B7
:102E000002013F0789000818C16940239943102334
:102E10001943C161C169C908C9001143C161704743
:102E2000026CC02389079A43090E0A430264704763
:102E3000C11DF931CA685201520F02D0C86980B26F
:102E40007047406DFBE7000070B50C460546102644
:102E500000F052F8207A002800D006462079216838
:102E600000283246284602D000F0E8F801E000F0E1
:102E700097F8E079710809024000FF31801E0131A6
:102E80000843032100220904D243401C0843E8639D
:102E900060790E49000640186863A0790121090491
:102EA000002805D06B6B0004401A03436B6305E0F8
:102EB000686B63791B04591A084368630520000294
:102EC000A863EA646089286470BD0000020100FF05
:102ED000FF22093212585201520F02D0FF308130C6
:102EE00008E08023826B1A40802AFBD00122520323
:102EF000C26480300160704710B504460920C006E6
:102F0000844202D00748844202D1074800F0F8F812
:102F10000320E060E068C007FCD0206C00090001DD
:102F2000206410BD0002004808000048806B80212A
:102F30000840704730B5FF300130C46807252D06C2
:102F4000AC43C4601B020B4311060B43C168044A27
:102F500011400B43012109070B43C36030BD000042
:102F6000C0C0FFEF10B5FF300130C36807248C40AC
:102F7000A3438A401343C36010BD10B5FF30013036
:102F8000C36807242406A343C360C3683F24240204
:102F90001202A343134309060B43C36010BD000094
:102FA000F7B584B017460C46642941D3002F3FD0B3
:102FB000FFF758FE6421FEF772F9064664212046A9
:102FC000FEF76DF901211B4C7843029105460094F0
:102FD0000191304629466043FEF761F901468905B3
:102FE0000122800A890D9202904205D2009A9142F4
:102FF00002D2029400910190641EEAD1012102984C
:10300000C903084304990861049840690A49BA024F
:10301000084001218902511A08430199012209043B
:103020001204891A084304994861002007B0F0BDD2
:103030000120FBE7FF030000EF8000FCF7B582B042
:1030400017460D46FFF70EFE2946794301260191EA
:10305000009088423BDDFEF72CF904461D4884426F
:1030600004D30199761C71430098F4E72146794313
:1030700071430098FEF713F9611C79430190714385
:103080000098FEF70CF90199281A691A002800DA4D
:103090004042002900DA4942884200DA641C0121DA
:1030A0008902081B0A011043029A106102984069C4
:1030B000094A1040BA02511A08430122310412048D
:1030C000891A084302994861002005B0F0BD01202B
:1030D000FBE70000FF030000EF8000FC89000818F8
:1030E000C169C908C9001143C161704710B583693E
:1030F00007248C40A3438A401343836110BD000022
:10310000064910B5884207D10820FFF725FE0820A0
:10311000FFF7C8FD0028FAD110BD000008000048E4
:10312000054B4A68FF301A43FF300230026089685D
:1031300001221143416070470080800070B5054650
:103140000C460120FFF708FE2069286028468030E1
:1031500061680162A16841620521C9016918E068DE
:103160000860064908680122D2031043D210904338
:10317000086003490120086070BD0000404003481A
:1031800000050140034A11409A0010188030016286
:10319000704700001F070000042900D3091FFF30FB
:1031A0000130026C0F231B049A430264026C090471
:1031B0000A43026470470000803001680122D20790
:1031C00011430160064800E000BF0168090F0329B0
:1031D000FAD100E000BF0168090F0329FAD0704757
:1031E0004040034830B47446641E2578641CAB42EA
:1031F00000D21D46635D5B00E31830BC1847000039
:103200008307FF22DB0E9A408907090E99400028A8
:1032100008DB830809489B001B1818689043084383
:10322000186070470007000F0838830804489B00A7
:103230001B18D86990430843D861704700E400E048
:1032400000ED00E0F8B5254B0701DA59244D840064
:103250008E46002A31D0FE187168521E8C46B16825
:103260000026DE512B46183B1E540E466146711A4D
:10327000704641431B48424348081018FEF70FF8B8
:103280002959194A914216D0401AD201904201DAC6
:1032900010460FE0802801DD80200BE0002809D0D7
:1032A000C20F431C5843C3175B0E1818C011002AE5
:1032B00000D040420818285108E0094918390A5C32
:1032C000002A01D00020F6E701220A540749285BB2
:1032D00009594871000A8871F8BD000028180020BB
:1032E000B001002000A60E00FFFFFF7FF84B00108A
:1032F000F0B539493748497D022902D0002902D06A
:1033000003E0364801E03348BE303549FF230A6800
:1033100034493B334A433449FF2452181213801A6C
:10332000324A7D3412685A4352181213801A304AB6
:10333000962312685A4351180913431A2D48C26A3A
:10334000991A61432C4C0919091406D1934200DDE6
:103350000121934201DA0021C94356182749C66268
:10336000FF240A68E400121B00250A60002A00DA24
:103370000D60234A13681B1B136000D51560214B99
:103380001F683C1B1C6000D51D600C68FF212D319F
:103390004C431D491268C82564186A4364135218C7
:1033A00064425213A21A1B68AF246343591849138D
:1033B000036B511AC91A1D2901DD1D2104E01C22CD
:1033C000D243914200DA114659180163701800B2D5
:1033D000F0BD000033FAFFFF84170020EBF7FFFF7A
:1033E000E0010020A10200000F080000E40100201D
:1033F000E8010020B8020020FF7F0000EC0100205F
:10340000F0010020F4010020FA0F0000F8B5324965
:103410000120324C0860E0880026314D002807D09A
:10342000A82813D0B02827D0E680A6800220F8BDB7
:10343000FEF7B8FB2B48C179142901D21421C171C0
:10344000A820E080284800680009E0600120FEF71D
:10345000C3F907463221E068FEF7C8F9074338048C
:10346000000CA08013D02670667029463F221F48AA
:10347000FFF795F8B020E0800120FEF7ADF980B2AB
:10348000A0802178627891421CD100281AD10420B2
:10349000F8BD8801491C40198906890EA060617039
:1034A000FEF7BCFD12490028086000D00120114938
:1034B000114B08701149A27808781A54401C000773
:1034C000000F0870207861788842E2D10C480168CA
:1034D000102211430160CDE7680200208001002026
:1034E000840600207C02002058020020780600207C
:1034F00074020020B5020020A01C00206D020020F4
:103500005C020020FEB5054680007C49281844185E
:10351000277DA800D83146181434002F57D001E079
:103520005038207120795028FAD801E05038E070E6
:10353000E0785028FAD8B9094ED0691E490770487A
:10354000490F405C002842D03088401C80B2308057
:10355000A278637811021943884239D32079410057
:1035600040180090E07841004418B806800E401CD6
:103570004100401801900098844202DD2046009CE2
:10358000009078065F4F07D55D48391903223B3814
:10359000FDF7BFFDE41C12E00098032239185848DB
:1035A0003B38FDF7B6FD0098C01E009007E0544977
:1035B000381903223B39FDF7ACFD01982418009817
:1035C0008442F4DD4E480121415500203080FEBD8B
:1035D0004B4900204855FEBD7907C90F0091A378DB
:1035E000617832881B020B43D11831800021444896
:1035F0003FE043490120485531888203891A3180D0
:10360000F94389070FD0B907890F022935D001295D
:103610004ED03B484438405D002832D021460098C7
:1036200000F018FD31E0364821464438405D00285E
:10363000009802D000F00EFD01E000F0CFFC2079F0
:10364000E178401AC0B2F90601D5401EC0B2B906F1
:1036500001D5401CC0B2B178491C49B2B170814259
:1036600013DB0020B07026484438415D002902D0A9
:103670000021415509E00121FBE7214800214438A0
:1036800041552146009800F0A9FC31881E4881422E
:10369000AFD838079FD58804020E1948174B443815
:1036A0003733405D19465031002814D0207907E0A7
:1036B000134944394855B1E71A54451E0D54401E6C
:1036C000E5788542F8DB0098002884D1E8B21A54E6
:1036D0002079E2780FE0E07803E01A54451C0D549D
:1036E000401C25798542F8DC00980028EDD1E8B22D
:1036F0001A54E07822798854FEBD0000B01B0020E7
:103700000C020020C01A0020FF3F0000F8B54A4913
:1037100008204A4C0860FF27E0888A37C11BBD1F7C
:10372000B8425DD011DC0146FF398439444EA842CD
:103730003ED005DC002814D0FF387D280DD119E0DB
:1037400002293CD0042908D142E003295FD0052991
:1037500065D007296BD009291AD00020E080A0800D
:1037600034E0384914200870FF207D30E080306854
:103770000009E0600820FEF72FF80646FF21F5312A
:10378000E068FEF733F806433004000CA0803CD01C
:103790002078002801D0FEF737F86078002801D0A3
:1037A000401E607004210020FFF74CFDE5800DE015
:1037B00004210120FFF746FDFF20863005E00821A7
:1037C0000220FFF73FFDFF208830E0800220F8BD97
:1037D00004210320FFF736FDE78030680009E06030
:1037E0000820FDF7F9FF0546FA21E068FDF7FEFF26
:1037F00005432804000CA08007D01249032049315A
:1038000000F050FEFF208D30DFE70420F8BD0D49A9
:1038100000201C3100F046FEFF208F30D5E709491B
:1038200001202A3100F03EFEFF209130CDE700F06C
:1038300025FFFF209330C8E7680200209001002098
:10384000580200208417002030B5FF2304780D783B
:103850009B1A5C4355436419E5172D0E2C1924124D
:10386000047044784D785C4355436419E5172D0E78
:103870002C1924124470847889785C435143611870
:10388000CA17120E51180912817030BDF8B5484997
:103890000220484C0860E1883F20000100290AD03E
:1038A000081A0DD015285ED01C2872D00020E080A8
:1038B000A0800220F8BDE0803F4800680009E06376
:1038C0000220FDF789FF0546FF212D31E06BFDF752
:1038D0008DFF05432804000CA08067D0374A0020E4
:1038E00083000021D1529B18D970401C9970062882
:1038F000F6DB002501277F052E46F6193801C01B8F
:10390000070968002818310C40180521FDF7C7FC8D
:103910002B4948556D1CFF2DEFD900200870FDF78D
:10392000E9FF26483C21B838C07C4843A063207892
:10393000002804D0FDF7DEFF0020E06104E0E0692C
:10394000002801D0401E02E0FEF728FF0A20E061B7
:10395000A06B00280DD0401EA0631A48E0801648D6
:1039600000680009E0630220FDF736FF05461021DC
:1039700014E0A078002801D1FEF74CFF00F01AFEF9
:1039800000F02CFD0F48C01DE0800B4800680009C6
:10399000E0630220FDF720FF05460D21E06BFDF7F7
:1039A00025FF05432804000CA080C0D10420F8BDE9
:1039B00068020020C001002058020020881C00205E
:1039C0006818002005040000F0B50D4DA8690D4EE3
:1039D0000D4F80B2002472B6A969401A80B2B0427D
:1039E00002D962B60020F0BD38190F2101F034F879
:1039F000A86980B262B60F34C02CECD30120F0BDB0
:103A000000E000E00E060000B01900201FB5FDF731
:103A1000DBFF864C8448606103210D1F2846FFF7B9
:103A2000EFFB0027A7610720206102212846FFF74E
:103A3000E7FB7F48012686807E497F4C087C497CD5
:103A400002460A430AD0A16160617C4900200870E7
:103A5000FEF79AFB002806D0A66010E019206061EE
:103A60007320A061F1E7FEF7ADFC002805D0FEF75A
:103A70008BFB002801D0022000E00320A0607048EA
:103A8000018901221203114301816D4840300189EF
:103A9000C214114301816B4FB88908210843B881D2
:103AA00069480068388000BF00BFFFF769F93880B7
:103AB00000BF00BFB98908208143B981042760781D
:103AC000042805D100202070FFF7A0FC607025704D
:103AD000A078042804D12670FFF7D8FEA0702570C6
:103AE000E078042805D10220207000F0E7FAE070A9
:103AF00025702079042805D103202070FFF706FEE9
:103B0000207125706079042804D1277000F0EEF848
:103B100060712570A079042805D10520207000F07F
:103B200027FFA0712570607803283DD0A078032876
:103B300040D0E078032842D02079032845D060792E
:103B4000032848D0A07903284AD03A48C17C039181
:103B5000807C019061690091A0690290FFF710F9E3
:103B6000024603990198FF3A0B1A0099123A501A2B
:103B700043430298411A01984A1048431818801884
:103B8000FDF797FB08280BD8304AC0215162010786
:103B90002748090F4030828912091201114381819F
:103BA0006078022823D024E000202070FFF72EFC4C
:103BB00060701AE02670FFF769FEA07015E0022021
:103BC000207000F07BFAE0700FE003202070FFF718
:103BD0009DFD207109E0277000F088F8607104E015
:103BE0000520207000F0C4FEA071257067E7032057
:103BF0006070A078022801D10320A070E07802282C
:103C000001D10320E0702079022801D10320207126
:103C10006079022801D103206071A0790228E5D1E2
:103C20000320A0714BE70000FF7C000000E000E0F3
:103C300020100140200F00104C020020B70200208D
:103C40000000054000000248000303480000014056
:103C500002490888098800040843704700000248A8
:103C6000FEB50446FFF7F4FFFF21012301319B025B
:103C700001400340C2B2594301D0012700E00027B0
:103C8000012101234902DB0201400340594300D0D6
:103C900001218003400F0191410045180021124885
:103CA0006B18C65C66541818C37868464354491CA0
:103CB0000329F4D301462046FFF7C6FD002F07D0A5
:103CC00000201F21225C0A432254401C0328F9D300
:103CD0000198002807D00020215C4906490E215494
:103CE000401C0328F8D3FEBDDC4B0010F8B5644936
:103CF0001020644C0860E088002808D03C2808D0D8
:103D000067287CD00020E080A0800220F8BD3C2005
:103D1000E0801020FDF760FD0004000CA0806FD053
:103D20005948A178584D405C491C0007000F09070D
:103D3000090FE0701035A170002832D0012833D06F
:103D4000022835D0032836D004285AD005285BD065
:103D500006285ED0072861D04A491120103108702A
:103D60002020487049484A4A807812784000104321
:103D7000484A2B461278D2001043227A120110438F
:103D800088703822581CFDF7C4F90020E0702078B4
:103D9000E1780143083000062970000E207044D0FD
:103DA00045E03C223C4901E03C493722681C39E0AF
:103DB00028223B49FAE76E1C3C223749681CFDF774
:103DC000A8F9384F0622387BF0763046394609305C
:103DD000FDF79FF930460622B91D0F30FDF799F91E
:103DE000387B3946420030460D311C30FDF791F9E1
:103DF000387B394642001B3130462A3012E029E038
:103E00003BE03C222849D1E727493C223C31681C51
:103E100008E025493C227831681C03E022493C2215
:103E2000B431681CFDF775F9B1E708202070164819
:103E30003E211030FDF78AFC13493F22303188774C
:103E400020391A48FEF7EFFB6720E0801848006829
:103E50000009E0601020FDF7BFFC05460221E06884
:103E6000FDF7C4FC05432804000CA08005D0607851
:103E7000A178884200D053E749E70420F8BD00004C
:103E8000680200206C020020A01C00209801002085
:103E9000B8020020B602002084170020B01B0020CA
:103EA000701A0020C0170020C01A002078060020D9
:103EB00058020020F8B507463B4C3C482546814255
:103EC00002D2491C8EB200E00126FF22511C364866
:103ED000FDF7ABF9A670300AE0702770380A607001
:103EE0003C223349201DFDF714F920463722314981
:103EF0004030FDF70EF9204629222F49C730FDF743
:103F000008F9204650222D497730FDF702F9EE21BD
:103F10002548FDF707FCE0342074000A607472B68F
:103F2000FF200130016826488847012109048842A2
:103F300001D062B634E0FF200130426820491A48BF
:103F4000904762B601210904884229D10112FF225B
:103F50001548FDF76AF9AE70300AE8702F70380A1C
:103F60006870F0221749281DFDF7D3F8F2210E489A
:103F7000FDF7D8FB2075000A607572B6FF2001308E
:103F8000114D01682846884701242404A042D0D15D
:103F90000012426829460448904762B6A04201D008
:103FA0000020F8BD0120F8BDF01C0020FFFF00003C
:103FB00084170020B01B0020C0170020701A0020BA
:103FC00000FE0010C01A002000FF001010B50B7892
:103FD0004A788978FEF702FA10BD0000F8B5074666
:103FE00008790D4641004618E878410040180090D5
:103FF000E8784100411814484418002F04D10322E6
:1040000021461248FDF785F80098E11C321A204637
:10401000FDF7E3F8002F0FD028790D490A5C002A3C
:1040200009D05031085C410041180748091880192F
:10403000C01EFFF709FCF8BD03480322801903499D
:10404000FDF767F8F8BD0000C01A0020CE0100207F
:10405000E71B0020F8B5074608790E4641004518D1
:10406000F07841004418002F05D11148032241196E
:104070001048FDF74EF82A1B0D4D29190C46C81C97
:10408000FDF7ABF8002F0DD0F0780B490A5C002A41
:1040900007D05031085C410040184119E01CFFF77F
:1040A000D3FBF8BD204603220249FDF732F8F8BDE4
:1040B000C01A0020CB010020E71B0020F8B5A7495B
:1040C0000420A74C08602089FF218E31421AA54F99
:1040D000A54E88427ED009DC002811D0FF38363842
:1040E00016D021286AD0522806D1BEE0062A72D006
:1040F0000C2A71D0112A58D000202081E0801CE1C8
:10410000FEF744FEFF203630208138680009E06366
:104110000420FDF761FB05466421E06BFDF766FBBB
:1041200005432804000CE0807ED00220FF25205E9D
:104130000135FF30296A1230884700B260810028BB
:1041400014D16088801C00B26080FF30296A123070
:10415000884700B26081002808D16088801C00B2C6
:104160006080FF30296A1230884760810420205E19
:10417000296AFF301230884700B2A081002814D18C
:10418000A088801C00B2A080FF30296A12308847C6
:1041900000B2A081002808D1A088801C00B2A080B5
:1041A000FF30296A12308847A081FDF7DFFAA0634B
:1041B000FF205730208138680009E0630420FDF7B4
:1041C0000BFB05466421E06BFDF710FB054328045B
:1041D000000C02E06FE097E0B1E0E0807DD0FFF7F7
:1041E00087F8A16B45186148A5630078002801D0C5
:1041F000FF35AF355E485F490068096840185E4981
:1042000009684018C02148435C49FDF752F8752100
:104210000901081A616B884201D2491E6163884214
:1042200001D9491C616300E057E07520000181421B
:1042300003D869200001814201D2606300E0606B15
:1042400005214543E80AFF30C1304902A063401808
:104250004B49884201D3012000E000202070FF205C
:104260008830208138680009E0630420FDF7B4FA43
:1042700005466421E06BFDF7B9FA05432804000CFC
:10428000E0802AD070793179000600140843C11704
:10429000090F09180911401AA16BCA17120F5118FA
:1042A000091140183071000A7071FF208E30208192
:1042B00038680009E0630420FDF78EFA05466421A2
:1042C000E06BFDF793FA05432804000CE08004D06E
:1042D0002C48417A002902D009E00420F8BD717908
:1042E00032790906091411430173090A4173417BAC
:1042F000007B0906091401431948E181133000F0DD
:10430000D9FAFF20943017E01E48C17B002907D15D
:10431000717932790906091411438174090AC1744B
:10432000C17C807C0906091401430D48E1811630E7
:1043300000F0C0FAFF209A3020810220F8BD114819
:10434000417E007E0906091401430548E1811030D1
:1043500000F0B0FAFF209F30EEE700006802002076
:10436000B8020020580200207D020020B702002081
:10437000E0010020E4010020E8010020D02F00002F
:10438000016900008417002030B54268526A007F3E
:10439000C240D0070D4AC00F50540D488069FD221D
:1043A000D201101A0B4BC20A09010B485D581C467A
:1043B0000C190068002D02D01043A06001E01043EA
:1043C00060605858401C585030BD0000A0010020CB
:1043D00000E000E02818002058020020F0B500207E
:1043E00089B007460646102405460690294880787D
:1043F000002806D02748032227491730FCF789FEFA
:1044000021E026482649005D0190085C0090019853
:104410000322410041182148503009181D48173027
:10442000FCF777FE009800280DD01D490198503107
:10443000085C009A41004118184850300918154886
:104440001730FFF701FA134920461731FFF7BEFD79
:10445000202D09DA0F480699173002785118069175
:1044600041788078CF198619641C6D1C502CBDDBF7
:104470000848069907634663C162FFF7A5FA00285A
:1044800005D1FFF7A1FA002801D1FFF79DFA09B085
:10449000F0BD0000C0010020D84B0010701A0020B1
:1044A000E71B0020F8B53C4B82009C583B4A054670
:1044B000D37E072B01DD072301E0002B66DD227888
:1044C000012A03D0032A01D0052A05D1344EF679FA
:1044D000002E0BD0012A12D0002A09D0012A47D879
:1044E0000A78120282420DDB48781EE0002020701C
:1044F0002B4886794279300600141043F0E726797C
:10450000E278F8E75A005218203A967F360286423F
:1045100001DCD07F09E0012228E056008E5D3602E2
:10452000B04204D1500040184078607120E0B042A1
:104530001BDA520051180F46203FBA7F13024A7807
:10454000F11A10D0FE7FC31A901BCA0F521858439D
:1045500052101018FCF7ADFE821901D5002202E0BE
:10456000FF2A00DDFF22627102E0521C9A42D4DB76
:10457000284600F0B9F80B49091A002D07D0012D83
:1045800007D0032D02D10848FDF7DCFBF8BD074832
:10459000FAE70748F8E70000C84B0010841700202E
:1045A0007C0200201027000004060020B405002033
:1045B000DC050020F0B5002787B03E463D463C466E
:1045C00028488078002806D026480322264914303F
:1045D000FCF766FD21E025482549005D0190085C57
:1045E00000900198032241004118204850300918DA
:1045F0001C481430FCF78DFD009800280DD01C4994
:1046000001985031085C009A410041181748503019
:10461000091814481430FFF717F9124814300178BC
:10462000C9198FB24178807889198EB240190D4925
:1046300085B214312046FFF7C9FC641C102CBFDB87
:10464000084800210762466285620A48C9434164FE
:1046500000210160014624220748FDF71CFE07B037
:10466000F0BD0000C0010020D84B0010701A0020DF
:10467000E71B0020681900206C06002070B5164862
:10468000164A437D15309C07A40F00239168002C27
:1046900004D0012C04D0022C04D003708C2402E03E
:1046A000BF2400E0FF2444714C7044790C714370C6
:1046B0001D0A85708B701B0ACB700078087090689B
:1046C000074900794843FF217F30FCF7E8FD0146A8
:1046D0000448FDF737FB70BD84170020F84B00102D
:1046E000102700008C050020F0B504468BB0800038
:1046F000684908900E586848FF27C1786748BF008E
:1047000041433A4606A8FCF7FBFC63482101A4306C
:1047100009188889079A069D801800B28881B842D6
:1047200002DDC01B88816D1C60005D4909903778EF
:104730000C5A3807000F0390042810D005280ED01B
:10474000707956494843FF21FCF7A9FD3906090F46
:104750000A2925D0411BA14224DD641928E05049D3
:1047600008980A3109584F48814223D0B2787378AB
:10477000100218430246963A8A4201DD641919E094
:10478000421F8A4201DD241D14E0024696328A420D
:1047900001DA641B0EE0401D88420BDA241F09E099
:1047A000044607E04119A14201DA641B00E0044617
:1047B000039830703C4882794179100600143A4AD7
:1047C0000843517F002900D001216B4619753249F9
:1047D0008B791B02834201DC012304E04B791B022D
:1047E000834202DD00236D462B756B461B7D53779C
:1047F0006B461A7D7D252D01002A1CD00A7A1302F2
:10480000834201DC254D12E0C9790B0283420EDAA6
:10481000511A090200D549427D22C01A9201504323
:10482000CA0F521852101018FCF743FD4519AC423C
:104830000EDA2C460CE01A4816384078002803D1CE
:10484000022F01D0042F03D1AC4201DA2C4603E041
:104850001248844200DD044611490998A7B20F525C
:10486000124908980D583078287070796870B078BF
:10487000717800020843A870000AE87020020C4911
:10488000001B40184900FCF714FD287138460BB096
:10489000F0BD0000C84B0010841700201027000056
:1048A000A6010020FFFFFF7F7C020020F84B0010D4
:1048B00088130000F3B5214D0C46E8792E4600021E
:1048C000083681B0A04214DD0322291D0198FCF7AF
:1048D00020FCE9780802A04228DAEA79201A511A65
:1048E000CA0F521852101018FCF7E3FCC2B231463E
:1048F00019E0E87A114F00020C37A04217DD0322BD
:1049000031460198FCF705FCE9790802A0420DDA6E
:10491000EA7A201A511ACA0F521852101018FCF7CE
:10492000C8FCC2B239460198FEF78EFFFEBD0322D5
:1049300039460198FCF7EDFBFEBD0000B01B0020DE
:104940000A4A1018C07B50280ED242008018074A2D
:10495000C0B20B78F03A1354401CC0B24B781354D9
:10496000401CC0B28978115470470000B01B002071
:10497000F8B530492020304C0860A08800252F4E23
:10498000002807D00C280AD0222843D0A5806580B3
:104990000220F8BD0C20A08030680009A060202013
:1049A000FCF71AFF074626493AE02649C87900284D
:1049B00001D0401EC871244F3878002808D0FDF778
:1049C00001FD002804D0FDF7DFFB002800D03D707A
:1049D0003878002811D11D48807800280DD11C4856
:1049E0000068032809D0207800280BD0401E2070D2
:1049F000C0B2042806D9012005E020780F28F7D29C
:104A0000401CF4E70020134908702220A080306881
:104A10000009A0602020FCF7DFFE7D210746C900C9
:104A2000A068FCF7E3FE07433804000C6080BCD1AB
:104A30000420F8BD68020020F8020020580200207F
:104A4000B41400007C020020B6020020980100206F
:104A500054020020C2010020F0B50127154ABF050D
:104A600040251346013924D4047801263044240615
:104A7000082600BF00BF00BFBFF36F8F64001F6038
:104A8000BFF36F8F00BF00BF00BF00BF00D2156033
:104A900000BFBFF36F8F013E1560E3D000BF00BFC2
:104AA000BFF36F8FBFF36F8F00BF00BF00BF00BFAA
:104AB000E4E7F0BD0400044000E80300003300E830
:104AC00003000033071D331E4D1F78208C21B022B8
:104AD000D923FF1D331E4D1F78208C21B022D923EE
:104AE000FF1400FF05002D32374100E803000033BA
:104AF00000E80300003301CA080000BF071D331E91
:104B00004D1F78208C21B022D923FF1D331E4D1F4D
:104B100078208C21B022D923FF0000000000FF0084
:104B200019FF00002800FF00410000FFFFFFFFFF0A
:104B3000FF096606000B00000000000000000000F6
:104B4000000000000000000000000000000000FF66
:104B5000050000000A01040705060708090A0B0002
:104B6000010203040104070A0104070A000000000F
:104B70000000000000000000000000000000000035
:104B80000000000000000000000000000000000025
:104B90000000000000000000000000000000000015
:104BA0000000000000FF0E7F7F00FA0006DB0032ED
:104BB000D70058F600769400B40000FF004AFF00CA
:104BC00094FF00DFFF00FFAA8D170020931700203D
:104BD00099170020C01700200000FF000000FF0010
:104BE00055AA00AAAA00FF0055AA00FF0000AA00CB
:104BF000555500AA0000FF00840200208B0200200F
:104C000092020020A00200201F0000000F00000000
:104C1000030000000500000000000000100000007C
:104C200000000000340300200002044000000000E7
:104C3000000100000000010000000000000004402E
:104C4000800000000100000005000000000004409A
:104C5000C000000000000100000000000000000093
:104C60000000000000000000000000000000000044
:104C70000006014000020440100000000000000097
:104C8000000000002D0100000503010201010000E9
:104C90000006014000020440100000000000000077
:104CA000010000001D0000000403020106010000D5
:104CB0000006014000020440100000000000000057
:104CC000040000000D0100000303000002010000C9
:104CD0000006014000020440100000000000000037
:104CE000040000003D01000006030303080100006A
:104CF00060BB8151C0B3309EBAF10100F04C00108E
:104D000001000000000000000000010000000100A0
:104D100000000100900000000000010001008D056E
:104D20000000000000000000000000000000000083
:104D3000084D00100C4D0010104D00100000000038
:104D40000000000000000000000000010000000062
:104D500000000004004D00100100000000010440AC
:104D600000000000144D00107C0500200100000030
:104D70000000000000000100000001000000010030
:104D8000900000000000010001008D051C010000E2
:104D9000000000000000000000000000744D001042
:104DA000784D00107C4D0010000000000000000055
:104DB00000000000000000010000000000000008EA
:104DC0006C4D0010010000000001044001000000D3
:104DD000804D00107C050020010000000000000054
:104DE0000000010000000100000001009000000030
:104DF0000000010001008D051C0100000000000002
:104E00000000000000000000E04D0010E44D001024
:104E1000E84D00100000000000000000000000004D
:104E2000000000010000000000000010D84D00103C
:104E3000010000000001044002000000EC4D0010E1
:104E40007C050020010000000000000000000100BF
:104E500000000100000001009000000000000100BF
:104E600001008D051C010000000000000000000092
:104E7000000000004C4E0010504E0010544E001028
:104E80000000000000000000000000000000000121
:104E90000000000000000020444E0010010000004F
:104EA0000001044003000000584E00107C05002063
:104EB000000204400A000000000204400B00000051
:104EC000B000000001000000000000000000000031
:104ED0003C060020591F0010B04E00102C06002088
:104EE00000000000000000000000000000000000C2
:104EF0000000000000000000B84E0010C04E00107E
:104F000000000000000000000000000000000000A1
:104F10000000000000000000000000000000000091
:104F20000000000000000000000000000000000081
:104F30000000000000000000000000000000000071
:104F40000000000000000000000000000000000061
:104F5000000000800202050001000000B000000017
:104F60000100000010000000010000000008070020
:104F70000008080108000000000004400F000000C5
:104F80005C4F00106C4F0010F1240010191B001032
:104F90000000000000000000000000000000000011
:104FA00000000000784F0010000200000600000022
:104FB000D04F0010000000208406000016140010DE
:104FC0003453001084060020A43800005C10001048
:104FD0008D2F48FEE70411CA4710E904A920290CC7
:104FE000091E0409262C091268091A208904413275
:104FF00001320213EF103310043205320632073249
:105000000832095A0A20320C5A0D0C1381242A1036
:1050100008690413C51A1B10D5041AE50413091BEB
:105020003310175A182CCB8D272C29044BAD280888
:105030003221322232235A2430A9043229322A3230
:105040002B322C322D322E02142F0214504BD0074B
:105050000221ADFFFFFF7F048104490101010A36EF
:10506000FF383A030111021703F208331120023806
:1050700014120F0A1E5A902CFFFF7F043C33FAFFD4
:10508000D3A35007A9A413204C1210520514810475
:10509000031B200C041A10041A14181A08041B68A5
:1050A00005142924315402040100FF00211042207C
:1050B00063308440A550C660E770088129914AA1F9
:1050C0006BB18CC1ADD1CEE1EFF131121002733270
:1050D0005222B5529442F772D662399318837BB349
:1050E0005AA3BDD39CC3FFF3DEE362244334200400
:1050F0000114E664C774A44485546AA54BB5288599
:105100000995EEE5CFF5ACC58DD55336722611164F
:105110003006D776F6669556B4465BB77AA71997E8
:105120003887DFF7FEE79DD7BCC7C448E5588668D7
:10513000A7784008611802282338CCC9EDD98EE938
:10514000AFF9488969990AA92BB9F55AD44AB77AAF
:10515000966A711A500A333A122AFDDBDCCBBFFB88
:105160009EEB799B588B3BBB1AABA66C877CE44CBF
:10517000C55C222C033C600C411CAEED8FFDECCDD8
:10518000CDDD2AAD0BBD688D499D977EB66ED55E8F
:10519000F44E133E322E511E700E9FFFBEEFDDDF28
:1051A000FCCF1BBF3AAF599F788F10148891A9810B
:1051B000CAB1EBA10CD12DC14EF16FE18010A1203D
:1051C000EDC230E3200450254046706760B98398F3
:1051D00093FBA3DAB33DC31CD37FE35EF3B102902C
:1051E00012F322D2323542145277625672EAB5CBAC
:1051F000A5A89589856EF54FE52CD50DC5E234C37C
:1052000024A01481046674476424540544DBA7FA7F
:10521000B79987B8975FE77EF71DC73CD7D326F2CB
:10522000369106B01657667676154634564CD96DCB
:10523000C90EF92FE9C899E9898AB9ABA94458651B
:105240004806782768C018E1088238A3287DCB5C1F
:10525000DB3FEB1EFBF98BD89BBBAB9ABB754A546B
:105260005A376A167AF10AD01AB32A923A2EFD0FEB
:10527000ED6CDD4DCDAABD8BADE89DC98D267C07BB
:105280006C645C454CA23C832CE01CC10C1FEF3EBF
:10529000FF5DCF7CDF9BAFBABFD98FF89F176E360B
:1052A0007E554E745E932EB23ED10EF01E32102A01
:1052B0002105B11338050210201336033320022BC9
:1052C0005C4C338303483302012C90D00307213A0E
:1052D00004182B1C4D24190C4A0110291C293CB21E
:1052E000042310276A88282A022C498C2979B24085
:1052F00023421F6AF4282A032C09145129285B60D1
:105300004E282A042C296509105129285AB84381AE
:105310007CD0DD064D293301184C0507053A1202F1
:105320001B48D06C3B48065E1448844F1410F01D97
:10533000020020000000000000000000000000004B
:10534000000000000000000000000000000000005D
:10535000000000000000000000000000000000004D
:10536000000000000000000000000000000000003D
:10537000000000000000000000000000000000002D
:08FE0000220CDEC020110000FD
:0400000510001019BE
:00000001FF
