:020000041000EA
:10100000883C00202D1000100000000000000000AF
:1010100000040100000000800348854600F080F8CD
:101020000048004719360010883C00200549064A50
:1010300030200A600431401EFBD104488047044838
:101040000047FEE70000002000BFFEE7B7200010C9
:101050001910001030B50B46014600202022012453
:1010600009E00D46D5409D4205D31D469540491BDC
:101070002546954040191546521E002DF1DC30BD25
:1010800070B500242546002801DA012440420029D9
:1010900001DA01254942FFF7DDFFAC4200D04042B2
:1010A000002C00D0494270BD10B50B4604461146D5
:1010B0001846FFF7E5FF03C410BD10B5431A93426D
:1010C00009D28318881803E0401E01785B1E19704E
:1010D000521EF9D210BD03460B439B0703D009E013
:1010E00008C9121F08C0042AFAD203E00B78037063
:1010F000401C491C521EF9D210BDD2B201E0027050
:10110000401C491EFBD270470022F6E710B513467B
:101110000A4604461946FFF7F0FF204610BDFFFFC0
:10112000064C0125064E05E0E36807CC2B430C3C3A
:1011300098471034B442F7D3FFF772FF684A0010A3
:10114000884A001070B58C180578401C6B075B0F3F
:1011500001D10378401C2A1106D10278401C03E01B
:1011600006780E70401C491C5B1EF9D12B0705D474
:101170000023521E0DD40B70491CFAE70378401C63
:10118000CB1A921C03E01D780D70491C5B1C521E8B
:10119000F9D5A142D8D3002070BDFFFFF8B50446B1
:1011A000007E02286FD1E06800F0DAFAA16800231F
:1011B0000E46377819463943777805463F0239435A
:1011C000B778F678E0683F043943360640681A4637
:1011D000314301F0F1FDA16800220E463778114637
:1011E00039437778E0683F023943B778F6783F04AF
:1011F0003943360640680123314301F0DDFDE068E4
:101200006168406801F0A2FDE0680522416820683D
:10121000D201406889180068086000262068B10083
:101220004058E16842794B6801798900C918FF315B
:1012300081310B68012797403B430B600068002811
:1012400002D000F057F80543761C3606360EE5D07E
:10125000E068617E406801F0B9FD216908784A685C
:1012600040B2FF2100280FDB86081F4BB600F6189E
:1012700033688007C00E81408B439107090E81407F
:101280000B43336011E02DE003071B0F083B9E0862
:10129000164BB600F318DE698007C00E81408E43FE
:1012A0009107090E81400E43DE612069007840B24B
:1012B000002805DBC106C90E012088400C490860E2
:1012C0006069002800D08047A07E002809D0E0682F
:1012D0004068FF30FF300230416801225202114362
:1012E00041602576207EF8BD00E400E000ED00E0DE
:1012F00000E100E010B5044640680078002806D1FF
:101300002068002800D08047616801200870002014
:1013100010BD02780021002A01D101220270084686
:101320007047FFFF0A4B10B50246184604E0400420
:10133000040C10786040521C491EF8D205498842BE
:1013400001D1184610BD0028FCD1034810BD000093
:10135000BAAB0000FFFF0000BABA000030B5034688
:1013600000200246044C03E09D5C4540605D521C39
:101370008A42F9DB30BD00002004002010B5164C75
:101380000022216AE0692262E261144A00025143AC
:10139000CA0F521852108018FFF75CFE6421803883
:1013A00048430F4AA16A914209D0D12251432F22CA
:1013B000504308188030C117090E08180012052183
:1013C0004902084A4118A062914201D3012100E07C
:1013D0000021217000B210BDB802002033030000CC
:1013E000FFFFFF7F01690000034A014613691840AF
:1013F00013698B43136170474802002008B5054A02
:10140000D2681209101A0090884201D3022008BD48
:10141000002008BD48020020F0B53448344B024695
:1014200001783C3A1170D9718378FF21FF2B02D0EB
:10143000C378D37081700379FF2B08D0437953713F
:1014400083799371C379D371037A137201714178EF
:101450000027284B55293BD09F70002106240D46BC
:1014600065432E18747AFF2C0BD0AD186C7264078C
:10147000A40F012C34D0022C35D0032C01D0B48918
:10148000AC81491C0229E9DB417DFF2902D051755D
:10149000018B1183C17EFF2918D0D17600214C0029
:1014A0002518A4186E7F66772D7F491C257707299C
:1014B000F5DB00214C0025182035A4182034EE7AE5
:1014C000E672AD7A491CA5720729F3DB1F70F0BDE7
:1014D00099780029C1D10121074C99702170BCE78E
:1014E000B47BAC73CDE774896C81CAE75C150020CE
:1014F0007802002090010020B1020020F0B53249AE
:1015000000250A460D7058321078FF272F4EFF280D
:1015100001D0307017709078FF280FD00020810024
:101520008B188919DC78CC709C798C715C794C7142
:101530001B79401C0B710328F1DB977000201118F8
:10154000CB7BFF2B02D03418E373CF73401C0328EE
:10155000F5DB1D487830817C1C4820308174907CFC
:10156000FF2801D0B0749774D07CFF2801D0F074AC
:10157000D77400208100431899180C7D9B191C75A5
:101580008C7D4D7D24022C435C75240A9C750C7E59
:101590001C76CC7DDC750D4C85000023D83463535C
:1015A0002C19E370A370401C0F750628E2DB064976
:1015B000002050310B54401C0828FBDB70780028B9
:1015C00001D053707370F0BDB801002010190020D5
:1015D00010B50E480078002816D10C48502137303D
:1015E000FFF792FD002001F0A1FD012001F09EFD1A
:1015F000022001F09BFD032001F098FD042001F082
:1016000095FD052001F092FD10BD0000101900208D
:1016100010B52248FFF77DFE00283ED1204800F09B
:10162000E5F8002839D11F4800F044F9002834D1EA
:101630001D48FFF7B3FD00282FD11C4800F03AF9F0
:1016400000282AD11A4800F035F9002825D1194878
:1016500000F0CCF8002820D1174800F0C7F8002887
:101660001BD1164800F036F8002816D1144800F0B7
:1016700017F9002811D1134800F0F4FB00280CD111
:10168000114800F027F8002807D1104800F06EFD3F
:10169000002802D10E4800F01DF810BD29030020DB
:1016A000B4470010500300200C03002078030020F2
:1016B000A0030020D4470010F4470010704700102A
:1016C0002048001008040020804700101404002067
:1016D0009047001010B50446017B0068221D01F000
:1016E0003FF8627B217B206801F072F8002010BD7A
:1016F00010B50121014802F013FC10BDF4470010A1
:1017000010B50021014802F00BFC10BDD4470010B9
:1017100010B50548054A0168007B82404A600221F5
:10172000034802F0FDFB10BD7047001001000100EE
:10173000B447001010B507493F220878401C8006C6
:10174000800E0870044980014118044800F011FD22
:1017500010BD00008001002020050020140400209E
:1017600010B50446007C022816D12168606801F09B
:1017700001FBA068016C026C03239B029A43114396
:101780000122D20311430164607C012802D1606808
:1017900001F02CFB00202074207C10BD10B5044605
:1017A000407B002809D1217BA06800F097FEFF2133
:1017B000A0680131C16001206073002010BDFFFFEF
:1017C00010B5094B0020C1B200224C000906C91017
:1017D000490F4C40521CE1B2082AF6DB1954401C58
:1017E000FF28F0DD10BD00002004002070B5044685
:1017F000017F22464068083200F0B2FF2246A17EF7
:101800001032206800F08DFFE17E0122206800F098
:101810009CFF18202056627EFF2100280EDB8508E1
:101820001B4BAD00EB181D688007C00E81408D4337
:101830009107090E81400D431D6010E003071B0F47
:10184000083B9D08134BAD00ED18EB698007C00EF7
:1018500081408B439107090E81400B43EB61607F10
:10186000012812D118216156002905DBCA06D20EC3
:1018700001469140084A116018216156002904DB95
:10188000C906C90E884005490860002070BD0000E7
:1018900000E400E000ED00E080E200E000E100E0B4
:1018A00010B50024006800F09FFF012800D001243B
:1018B000204610BD70B50446007F0125002802D0E7
:1018C0000225284670BD2068C06CFFF767FF00281E
:1018D00002D000202077F4E72068816BA06800F038
:1018E0000DFE2068A168408848632068A168808850
:1018F000C8632068816B0968890103D5416B606802
:1019000000F008FF6168206908616168606908612A
:10191000204600F05AF8204600F0CEF820683C211E
:10192000095C012905D14421095C826C006C00F03E
:1019300017FF26680125B16BF06C097900680A076A
:10194000120F29469140FFF785FB206225773078FA
:1019500000250128B5D1204600F01EF80546B0E765
:1019600070B50E460446217F0120002911D0094997
:101970008E420ED8A568286B8A1B80B2401C50434B
:10198000FFF768FB80B2E8636168206908610020A6
:10199000666270BD1027000010B5027F0121012A88
:1019A00001D0032A0FD1417B01231C4642688C40A1
:1019B000D460016820310978002901D18168CB60A9
:1019C000022101770021084610BD10B504460068C9
:1019D00001214269A06800F0A9FD20680221826906
:1019E000A06800F0A3FD20680321C269A06800F090
:1019F0009DFD206820300178002903D04278A0683E
:101A000000F04DFE206820308178002903D0C27894
:101A1000A06800F05AFE206820300179002902D029
:101A2000A06800F0E2FD206820304179002902D052
:101A3000A06800F0E9FD206820308179002902D0FB
:101A4000A06800F0CAFD20682030C179002902D0CA
:101A5000A06800F0E1FD20682030017A002904D060
:101A6000837A427AA06800F0DFFD20682030817B15
:101A700003290FD1C27B017CA06800F034FE2068EE
:101A80002030407B012805D1A06841690122520421
:101A900011434161206801462031CA7A022A0AD1E5
:101AA000097B032907D1C2698169A06800F063FD41
:101AB000A06800F003FE10BD10B5044600688179EF
:101AC000012908D1427B0021A06800F0C6FD002159
:101AD000A06800F092FD2068C179012908D1827BBD
:101AE0000221A06800F0B9FD0221A06800F085FD88
:101AF0002068017A012908D1C27B0321A06800F087
:101B0000ACFD0321A06800F078FD2068417A01292E
:101B100007D1027CA06800F0A0FD0121A06800F0C0
:101B20006CFD2068817A012908D1427C0821A068D7
:101B300000F093FD0821A06800F05FFD2068C17AE5
:101B4000012908D1827C0921A06800F086FD0921C5
:101B5000A06800F052FD2068017B012908D1C27CF9
:101B60000A21A06800F079FD0A21A06800F045FD77
:101B700010BDFFFF70B52D4C2B49204600F02EFF05
:101B8000E06B08218843E063606B012528436063B4
:101B9000606B0F210906884308436063606B3F2137
:101BA0000904884308436063C80361690D22120772
:101BB00091430143616160697F21090288430026E6
:101BC00029020843606105223146204600F030FFBB
:101BD00000220321204600F02BFF00220421204692
:101BE00000F026FF00220521204600F021FF206C96
:101BF00000090001284320640B4A0D4D103A0A21C8
:101C0000284600F0ADFD00220A21284600F0E0FD44
:101C1000084A0B21284600F0A3FD0022102120468F
:101C200001F07AF8304670BDD80300200002004869
:101C30000002044078490010F8B53B4F0546007893
:101C4000F978884201D10120F8BDF870FF21B97000
:101C5000C00867D03E212846FFF780FB3349087053
:101C60003E21495D814201D00220F8BD2878314EE5
:101C700044072F48640F0179C27809021143491CB7
:101C8000C170090A0171002C0FD0012C1ED0022C4A
:101C900022D0032C23D0042C31D0052C32D0062C9A
:101CA00034D0072C36D00520F8BD3078002839D143
:101CB0006878FF2802D020483C2213E0A878C108A9
:101CC0001F292FD14007400FB8702BE03078002833
:101CD00028D11A48372205E01948282202E018487E
:101CE000283028221749124B0978D971691CFFF74F
:101CF000E4F90120002C11D0012C12D012E012487E
:101D00003C22F3E710483C303C22EFE70E487830A5
:101D10003C22EBE70C48B4303C22E7E70B49087063
:101D200000E030700020F8BD80010020AE020020ED
:101D300078020020B80100205C150020100200206D
:101D4000D01700202015002020180020900100202E
:101D5000F8B53548012606703448354F0670002422
:101D6000C4213846FFF7DEFA324D31496880BC3174
:101D70000989A980884201D001241AE03C22394611
:101D80002D48FFF79AF93C222B492C48FFF795F98B
:101D9000274937223C312A48FFF78FF93722284953
:101DA0002848FFF78AF92249502274312648FFF764
:101DB00084F9264FF0213846FFF7B4FA23496880AA
:101DC000DC31898AA980884201D0012406E0F02212
:101DD00039461F48FFF771F9002C21D03C221D49DC
:101DE0001648FFF76AF93C221A491348FFF765F9CC
:101DF000372219491348FFF760F93722164910486E
:101E0000FFF75BF9502215490F48FFF756F9F0210B
:101E10000F48FFF779F9242211490D48FFF74DF9D2
:101E200020467040F8BD000090010020B80100205D
:101E3000044E0010B2020020201500205C15002086
:101E40001019002010020020D0170020044F0010AD
:101E50002018002028460010644600109B46001001
:101E6000EB46001040684068004710B503465C68C8
:101E7000012080342479022C02D1184600F002F8A7
:101E800010BDFFFFF8B5054601260220AC68002909
:101E90007BD0002A79D0274620373B78002B75D19C
:101EA0002068082800D9022601203870701E824060
:101EB00062600020A161A060217F286800F0C6FD5B
:101EC00068686030007F002827D028680121C90396
:101ED000FF300130816117E02868C11DF9314A697E
:101EE000D204D20FFBD17978012912D0A268A1695E
:101EF000022E10D0895C227F92001018FF308130B2
:101F00000160A0688019A060A16860688142E3D385
:101F100026E02049EFE7895AEDE7286800F01CFE2B
:101F20008028FAD07878012825D0A168A069022EEF
:101F300029D0405C227F29689200511880310860C6
:101F4000A0688019A0602868816C4905FCD5012231
:101F5000C16C92021143C164A16860688142DCD304
:101F6000286800F0F9FD8028FAD000203870606001
:101F7000A0600BE009E0074A207F29688000401834
:101F800080300260DCE7405AD4E70320012120348E
:101F9000A170F8BDFFFF000010B503484188034859
:101FA00001F060FD10BD0000004E0010290C000083
:101FB00070B50124E40310282ADA224DAE884E437E
:101FC00031196E882D8856435D4332192B191E4CEA
:101FD000090212021B022478090E120E1B0E002C9D
:101FE00003D01A4C615CA25CE35C0F252D030C044A
:101FF0005D192C4315062C43154D80004019446093
:10200000104811434438427819438918417070BD13
:102010000C4D1038AD1DAE8880064E4331196E88C8
:102020002D8856435D4332192B19800E4400001948
:10203000074C090C120C1B0C48340019027041703B
:10204000837070BDFC010020B0020020C815002084
:10205000C81600200248C1681031C16070470000F6
:10206000480200200EB5044A6B4607CA07C36846FB
:1020700000F0FCFB0EBD00006447001010B50949DC
:10208000086809680004000E074CC9B2002806D091
:10209000000241180548FEF7DDFF400000E004485B
:1020A000206010BD00030140FC3F0020000024F42C
:1020B0000048E801704710B5FFF7FCFFFFF7D2FFBB
:1020C00010BDFFFF70B5264E0025244A0E21304674
:1020D00000F046FB21490924E4060831204600F0BF
:1020E000C9FC00221146204600F00EFE002203210A
:1020F000204600F009FE00220521204600F004FEE3
:10210000002306221946204600F02AFD206C000913
:102110000001801C2064114A0F21083A304600F06B
:102120001FFB00221021204600F0F6FD01221021A5
:10213000204600F02DFD01221321204600F028FD4D
:1021400008490868FF2212049043320110430860D6
:10215000054910130860284670BD00001C4A001095
:102160000000044008E400E000E100E0406840684E
:10217000004710B503465C6804202034A479002C85
:1021800002D1184600F001F810BD70B5044665682C
:1021900004232035AD798068002D2CD1457E0223A3
:1021A000002D28D1002925D0002A23D002614160CA
:1021B000012141760021416160682030007A0028C9
:1021C000206810D05903FF3001308161114620464C
:1021D00000F076F8206803214907FF300130C2681B
:1021E0000A43C26004E00321026C89030A430264CB
:1021F000002300E00323184670BD10B503465C6859
:10220000042020346479022C02D1184600F068F8CA
:1022100010BD70B505468468406800262030007AFD
:10222000002820D12FE022696169914201D308463C
:1022300007E000F013FC6269616888546069401C23
:102240006061216988420ED16676286803214907BA
:10225000FF300130C2688A43C26068688068002825
:1022600008D0804706E0FF21286815310958090782
:10227000C90FD8D021696069884203D2091A28465B
:1022800000F01EF870BD21696069884208D2286894
:1022900000F0E4FB6269616888546069401C606119
:1022A00021698842EED1667628680321026C890391
:1022B0008A430264686880680028E3D0804770BD64
:1022C00010B542682032137A01229A40914201D21D
:1022D0004A1E00E0521E0068194600F064FC10BD62
:1022E000F8B50446032016460F46002936D0002EC6
:1022F00034D0A16802200A7E002A2FD1012008765E
:1023000060682030C079002805D020680121C90309
:10231000FF300130816100250FE02030C0790028B6
:1023200006D02068FF3001304169C904C90FFBD1D4
:10233000795D206800F0E2FB6D1C6068B542ECD36B
:102340002030C079002806D02068FF300130416974
:102350000905C90FFBD0A26800201076F8BDFFFF69
:1023600010B50248FFF755FF10BD0000140400200F
:1023700030B520498878002801D0FF2004E01E48AD
:10238000CA69807C904234D0C8611C48194C0078DE
:10239000443400280AD0888BDC2242432280020287
:1023A000121A6280A7225043A08015E0C869FF235B
:1023B00002461C335843124D0346A84200DD28460E
:1023C00020802846834200DD2B466380A0235A43A9
:1023D000824200DD0246A280888B8C2102464A435D
:1023E00004494A310A80EA2242434A8002028018A4
:1023F000888030BDB801002030190020B0020020D4
:10240000FFFF000070B5114CA07C2546F03D502820
:1024100004D241004018401901F03CFAE07C5028F9
:1024200004D241004018401901F034FA0849002054
:1024300002F03EF80749012002F03AF8064902206E
:1024400002F036F8FFF7C4F870BD00001019002044
:10245000CB020020CE020020C802002010B50E4999
:1024600011220A701F224A700C4A0D4B92781B7879
:1024700052001A430B4B07481B78401CDB001A43E1
:102480000B46103B1B7A1B011A438A703622FEF75B
:1024900014FE10BD101A00207802002098010020C0
:1024A000B8020020B10200200548006881B205484A
:1024B000C2698918C161016A491C01627047000044
:1024C00000030348B8020020034910B5884202D136
:1024D000042000F01FFA10BD0000044870B50D463E
:1024E0000446FFF7F1FFFF200130E0602068032180
:1024F00089038843A9030143216070BD0A684261D2
:102500008A889204D20F120542600A791207120FCC
:1025100042628A881205120F02628A88D204D20FA0
:10252000826109790906090FC1627047F0B5066832
:10253000491E4C002346032710333D469D40AE43C1
:1025400055789D4035430B46163301269E40B543D2
:1025500096789E40234619339F40D4782E439C4062
:102560008B00BE430F21344399408C43117899402E
:1025700021430160F0BD10B5046803239B049C4314
:102580004B789B04234303242405A3435478240558
:102590001C430123DB059C438B78DB05234301248B
:1025A0002406A343947824061C430323DB069C43A0
:1025B000CB780978DB06234303246407A343D4784C
:1025C000090164071C43F0239C431B01127821433B
:1025D000994312020A43026010BD426803239B0321
:1025E0009A438903114341607047426803239B0269
:1025F0009A4389021143416070478030426A012347
:102600008B401A4342627047426803231B029A437D
:102610000902114341607047426803231B039A4338
:10262000090311434160704770B54469456803264A
:10263000B604B54389042943416001210906012AF2
:1026400006D08C430121C905002B03D00C4302E0C6
:102650000C43F7E78C43446170BD10B58030846A49
:102660000B0000F0D9FB0A06060909141414140C17
:102670001014032300210DE00C2302210AE00323A0
:102680001B02082106E003239B020A2102E0032328
:102690001B030C219C438A402243826210BD436885
:1026A0009B089B000B434360416901239B02012A65
:1026B00002D09943416170471943FBE74168012209
:1026C0001204914311434160704710B543680C24D4
:1026D000A3438900194341604169A3019943120250
:1026E0000A43426110BD10B5436801246404A3434A
:1026F0002343436043692401002A01D0234300E0BF
:10270000A34301229205012902D09343436110BDE6
:102710001343FBE702680B0C9A4389B21143016033
:10272000704770B515460E46044600F00DF8216856
:10273000B0000F22824091432A68824011432160F9
:1027400000196968016170BD704789000818016A45
:10275000302392079943920E114301627047FFFFA5
:10276000F0B58B089B001C1823698D07ED0EF82629
:10277000AE40B343AC462361436F4E000325B540E2
:10278000AB434367CB089B001B181E6C4D07ED0E37
:102790000427AF40BE431E645678AE401D6C2E43E6
:1027A0001E640A4B984204D1036E01258D40AB4351
:1027B000036613781B0602D553688B40436010787C
:1027C00061468840216908432061F0BD0002044051
:1027D00010B5436F490003248C40A3434367436F04
:1027E0008A401343436710BDF8B505460126022011
:1027F00000F02CF8144CA18908200143A18100218C
:102800004A00AA5A2280A288D207D20FFBD0491CC4
:1028100089B20529F4D3A1898143A1812188684621
:1028200001802188018021880180218802880A4056
:102830000280A87A00F00AF8A0894007800F00D132
:1028400000263046F8BD00000000024803498A898E
:1028500006239A43400002438A81704700000248E1
:102860000148006870470000FC3F002010B5024698
:1028700000F0AAF851689068084307490B680F24D4
:102880002404A3431843086000F090F811785078AE
:1028900000F00EF810BD00000003014003498968F4
:1028A000014201D001207047002070470003014021
:1028B00070B50A46054600F087F8124C206821687A
:1028C0000004000E104B114E19401143314321609A
:1028D00021684900FCD4A842294602D800F02AF811
:1028E00001E000F043F82068094908402902084344
:1028F0003043206020684000FCD400F057F8FFF718
:10290000BDFB70BD0003014000FF0FC00000F03FA1
:10291000FF000FC000B5024600F056F804490869F0
:102920001043086108684000FCD400F03FF800BD87
:102930000003014070B50A4A0A4C0B4D0CE0002818
:1029400000D10120136880002340060233432B434B
:10295000136013685B00FCD483008B42EFD370BD1F
:1029600000030140FF000FC00000F03F70B5094AAE
:10297000094C0A4D8B0009E01168800821400602CD
:1029800031432943116011684900FCD48342F3D3D9
:1029900070BD000000030140FF000FC00000F03FC9
:1029A0000148008870470000401001400149C320E1
:1029B00048627047000001400248818801221143AB
:1029C00081807047201001400348C0214162416A64
:1029D0004907FCD4704700000000014070B50C4668
:1029E000054600F09FF8607900280CD12079216815
:1029F000002804D00222284600F036F903E0022223
:102A0000284600F0E3F80948686351200001A863F4
:102A10006079002803D1A0790B210843E8630020E6
:102A2000C043E8642089286470BD000002013F07AC
:102A300089000818C1694023994310231943C161D3
:102A4000C169C908C9001143C1617047026CC02344
:102A500089079A43090E0A4302647047C11DF93180
:102A6000CA685201520F02D0C86980B27047406DE7
:102A7000FBE7FFFF70B50C460546102600F052F844
:102A8000207A002800D006462079216800283246A6
:102A9000284602D000F0E8F801E000F097F8E0796D
:102AA000710809024000FF31801E013108430321F3
:102AB00000220904D243401C0843E86360790E49B0
:102AC000000640186863A07901210904002805D098
:102AD0006B6B0004401A03436B6305E0686B63791A
:102AE0001B04591A0843686305200002A863EA64BE
:102AF0006089286470BD0000020100FFFF220932D6
:102B000012585201520F02D0FF30813008E080236A
:102B1000826B1A40802AFBD001225203C2648030AB
:102B20000160704710B504460920C006844202D0F7
:102B30000748844202D1074800F0F8F80320E0601B
:102B4000E068C007FCD0206C00090001206410BDC3
:102B50000002004808000048806B80210840704750
:102B600030B5FF300130C46807252D06AC43C46082
:102B70001B020B4311060B43C168044A11400B436F
:102B8000012109070B43C36030BD0000C0C0FFEF47
:102B900010B5FF300130C36807248C40A3438A403E
:102BA0001343C36010BD10B5FF300130C368072464
:102BB0002406A343C360C3683F2424021202A34334
:102BC000134309060B43C36010BDFFFFF7B584B084
:102BD00017460C46642941D3002F3FD0FFF740FE33
:102BE0006421FEF737FA064664212046FEF732FAE2
:102BF00001211B4C78430291054600940191304617
:102C000029466043FEF726FA014689050122800A1B
:102C1000890D9202904205D2009A914202D202940A
:102C200000910190641EEAD101210298C903084372
:102C300004990861049840690A49BA0208400121D0
:102C40008902511A08430199012209041204891AC0
:102C5000084304994861002007B0F0BD0120FBE75C
:102C6000FF030000EF8000FCF7B582B017460D4669
:102C7000FFF7F6FD2946794301260191009088422D
:102C80003BDDFEF7FDF904461D48844204D301995B
:102C9000761C71430098F4E721467943714300980C
:102CA000FEF7D8F9611C7943019071430098FEF753
:102CB000D1F90199281A691A002800DA404200293E
:102CC00000DA4942884200DA641C01218902081BAB
:102CD0000A011043029A106102984069094A1040A3
:102CE000BA02511A0843012231041204891A084316
:102CF00002994861002005B0F0BD0120FBE700000B
:102D0000FF030000EF8000FC89000818C169C908B2
:102D1000C9001143C161704710B5836907248C4015
:102D2000A3438A401343836110BDFFFF064910B5DA
:102D3000884207D10820FFF7EDFD0820FFF7AEFD20
:102D40000028FAD110BD000008000048054B4A6871
:102D5000FF301A43FF3002300260896801221143BC
:102D6000416070470080800010B50120FFF7D2FD60
:102D700010BDFFFF70B50C460546FFF7F5FF206953
:102D800028602846803061680162A168416205219F
:102D9000C9016918E0680860054908680122D20382
:102DA0001043D2109043086002490120086070BDB2
:102DB0004040034800050140034A11409A001018A2
:102DC00080300162704700001F070000042900D313
:102DD000091FFF300130026C0F231B049A43026469
:102DE000026C09040A4302647047FFFF80300168E7
:102DF0000122D20711430160064800E000BF0168CC
:102E0000090F0329FAD100E000BF0168090F032967
:102E1000FAD070474040034830B47446641E2578A9
:102E2000641CAB4200D21D46635D5B00E31830BCFE
:102E30001847FFFF8307FF22DB0E9A408907090E20
:102E40009940002808DB830809489B001B18186874
:102E500090430843186070470007000F0838830844
:102E600004489B001B18D86990430843D8617047F9
:102E700000E400E000ED00E002E008C8121F08C115
:102E8000002AFAD170477047002001E001C1121FEB
:102E9000002AFBD17047FFFFF8B58E461A49044659
:102EA0000301C858194EA500002819D05A185768B0
:102EB000401EBC4697680022CA50314614390A5554
:102EC0006146791A72465143114A50434A088018A4
:102ED000FEF7C0F801467059224600F095FA05E069
:102EE0000A481438015D00290AD000207051E10021
:102EF000084A091B705B89184873000A8873F8BD7B
:102F000001210155F3E7000098150020AC010020D5
:102F100000A60E0078020020F0B539493748497DF7
:102F2000022902D0002902D003E0364801E03348EC
:102F3000BE303549FF230A6834493B334A4334499C
:102F4000FF2452181213801A324A7D3412685A43F1
:102F500052181213801A304A962312685A43511895
:102F60000913431A2D48C26A991A61432C4C091956
:102F7000091406D1934200DD0121934201DA0021B8
:102F8000C94356182749C662FF240A68E400121B89
:102F900000250A60002A00DA0D60234A13681B1B13
:102FA000136000D51560214B1F683C1B1C6000D5C9
:102FB0001D600C68FF212D314C431D491268C82546
:102FC00064186A436413521864425213A21A1B68AD
:102FD000AF24634359184913036B511AC91A1D29A9
:102FE00001DD1D2104E01C22D243914200DA11468A
:102FF00059180163701800B2F0BD000033FAFFFFEA
:1030000020150020EBF7FFFFE0010020A1020000E7
:103010000F080000E4010020E8010020B8020020B1
:10302000FF7F0000EC010020F0010020F4010020EF
:10303000FA0F0000F8B532490120324C0860E088F0
:103040000026314D002807D08E2813D0962827D08F
:10305000E680A6800220F8BDFEF7B2FB2B48C179BE
:10306000142901D21421C1718E20E0802848006803
:103070000009E0600120FEF7B7F907463221E06859
:10308000FEF7BCF907433804000CA08013D026706B
:10309000667029463F221F48FFF76BF89620E080B4
:1030A0000120FEF7A1F980B2A080217862789142D8
:1030B0001CD100281AD10420F8BD8801491C4019F0
:1030C0008906890EA0606170FEF7B6FD12490028DE
:1030D000086000D001201149114B08701149A278F5
:1030E00008781A54401C0007000F08702078617897
:1030F0008842E2D10C480168102211430160CDE7FB
:1031000064020020800100202005002078020020B9
:10311000540200201404002070020020AF0200209E
:10312000001A00206902002058020020FEB5054662
:1031300080007C4928184418277DA800D8314618FB
:103140001434002F57D001E05038207120795028D6
:10315000FAD801E05038E070E0785028FAD8B90980
:103160004ED0691E49077048490F405C002842D084
:103170003088401C80B23080A278637811021943F5
:10318000884239D32079410040180090E07841000E
:103190004418B806800E401C410040180190009869
:1031A000844202DD2046009C009078065F4F07D5E0
:1031B0005D48391903223F38FDF77FFFE41C12E018
:1031C00000980322391858483F38FDF776FF0098D9
:1031D000C01E009007E05449381903223F39FDF71B
:1031E0006CFF0198241800988442F4DD4E480121B8
:1031F000415500203080FEBD4B4900204855FEBDA2
:103200007907C90F0091A378617832881B020B43BC
:10321000D1183180002144483FE0434901204855FE
:1032200031888203891A3180F94389070FD0B907A1
:10323000890F022935D001294ED03B484838405DDE
:10324000002832D02146009800F0D0FC31E036480A
:1032500021464838405D0028009802D000F0C6FCA6
:1032600001E000F087FC2079E178401AC0B2F9064D
:1032700001D5401EC0B2B90601D5401CC0B2B1781C
:10328000491C49B2B170814213DB0020B07026485E
:103290004838415D002902D00021415509E0012153
:1032A000FBE721480021483841552146009800F0AD
:1032B00061FC31881E488142AFD838079FD5880409
:1032C000020E1948174B48383733405D19465031C4
:1032D000002814D0207907E0134948394855B1E750
:1032E0001A54451E0D54401EE5788542F8DB0098BF
:1032F000002884D1E8B21A542079E2780FE0E0780F
:1033000003E01A54451C0D54401C25798542F8DC15
:1033100000980028EDD1E8B21A54E0782279885458
:10332000FEBD000010190020080200202018002017
:10333000FF3F000070B530490820304C0860E0883D
:103340002F4D00280AD0FF38733810D0092830D00C
:103350000F2842D00020E080A08028E029491420D6
:103360000870FF207330E08028680009E0600820C2
:10337000FEF73AF8FF210546F53133E020780028C2
:1033800001D0FEF749F86078002801D0401E607037
:1033900004210020FFF780FD04210120FFF77CFDC0
:1033A00008210220FFF778FDFF207C30E08002201A
:1033B00070BD144900201C3100F040FE114901206D
:1033C0002A3100F03BFE0021022000F037FEFF20F2
:1033D0008230E08028680009E0600820FEF704F8E9
:1033E0000546FA21E068FEF709F805432804000CB9
:1033F000A080C3D1042070BD640200209001002091
:10340000540200202015002002460F48824201D1BC
:1034100008467047881A7F21C943884201DA084666
:103420000FE0802801DD80200BE0002809D0C10FCB
:10343000431C5843C3175B0E1818C011002900D055
:103440004042101870470000FFFFFF7F30B5FF2398
:1034500004780D789B1A5C4355436419E5172D0ECB
:103460002C192412047044784D785C435543641938
:10347000E5172D0E2C1924124470847889785C434A
:1034800051436118CA17120E51180912817030BDCC
:10349000F8B549490220494C0860E08800280BD063
:1034A000474940180FD0162860D01D2874D000203E
:1034B000E080A0800220F8BD41484042E0804148C1
:1034C0000068000920640220FDF78EFF0546FF21F9
:1034D0002D31206CFDF792FF05432804000CA080DD
:1034E00067D0394A002083000021D1529B18D9703F
:1034F000401C99700628F6DB002501277F052E4623
:10350000F6193801C01B070968002818310C40184B
:103510000521FDF79FFD2D4948556D1CFF2DEFD965
:1035200000200870FDF7EAFF27483C21B838C07C2E
:10353000484360622078002804D0FDF7DFFF0020B8
:10354000206204E0206A002801D0401E02E0FEF75D
:103550000FFF0A202062606A00280DD0401E6062C2
:103560001B48E08017480068000920640220FDF72E
:103570003BFF0546102114E0A078002801D1FEF79A
:1035800041FF00F009FE00F0F5FC1148C01DE0808D
:103590000C480068000920640220FDF725FF05465D
:1035A0000D21206CFDF72AFF05432804000CA080A4
:1035B000C0D10420F8BD000064020020B801002042
:1035C0000FFCFFFF54020020E8190020C81500205E
:1035D00007040000F0B50D4DA8690D4E0D4F80B2E7
:1035E000002472B6A969401A80B2B04202D962B60C
:1035F0000020F0BD38190F2100F0E6FFA86980B265
:1036000062B60F34C02CECD30120F0BD00E000E026
:103610000E060000101700201FB5FDF7F9FF8D48BA
:1036200001220168007B120482404A608B4C8A4868
:10363000606103210D1F2846FFF7FCFB0020A061FD
:103640000720206102212846FFF7F4FB8448012669
:1036500086808449844C087C497C02460A430BD00E
:10366000A161606181480168496A007BC140C80767
:10367000C00F06D0012105E0192060617320A06110
:10368000F0E700217A480170FEF762FB002801D0C4
:10369000A6600BE0FEF780FC002805D0FEF758FB83
:1036A000002801D0022000E00320A06071480189B9
:1036B00001221203114301816E4840300189C21476
:1036C000114301816C4FB88908210843B8816B48C8
:1036D0000068388000BF00BFFFF762F9388000BF84
:1036E00000BFB98908208143B98104276078042884
:1036F00005D100202070FFF79DFC60702570A07838
:10370000042804D12670FFF7C3FEA0702570E0786E
:10371000042805D10220207000F09CFAE07025708A
:103720002079042805D103202070FFF703FE2071C3
:1037300025706079042804D1277000F0F1F86071D9
:103740002570A079042805D10520207000F0C8FE5E
:10375000A0712570607803283DD0A078032840D060
:10376000E078032842D02079032845D060790328E7
:1037700048D0A07903284AD03A48C17C0391807C84
:10378000019061690091A0690290FFF709F9024672
:1037900003990198FF3A0B1A0099123A501A4343C1
:1037A0000298411A01984A10484318188018FDF7EA
:1037B00067FC08280BD8324AC0215162010728480B
:1037C000090F40308289120912011143818160780A
:1037D000022823D024E000202070FFF72BFC60702B
:1037E0001AE02670FFF754FEA07015E0022020704A
:1037F00000F030FAE0700FE003202070FFF79AFD30
:10380000207109E0277000F08BF8607104E005205A
:10381000207000F065FEA071257067E703206070DE
:10382000A078022801D10320A070E078022801D1FD
:103830000320E0702079022801D1032020716079F3
:10384000022801D103206071A0790228E5D103206C
:10385000A0714BE790470010FF7C000000E000E003
:1038600020100140200F0010480200208047001067
:10387000B002002000000540000002480003034899
:103880000000014002490888098800040843704785
:1038900000000248FEB50446FFF7F4FFFF210123B4
:1038A00001319B0201400340C2B2594301D00127BC
:1038B00000E00027012101234902DB02014003400F
:1038C000594300D001218003400F01914100451868
:1038D000002112486B18C65C66541818C3786846F5
:1038E0004354491C0329F4D301462046FFF7AEFD9B
:1038F000002F07D000201F21225C0A432254401CC5
:103900000328F9D30198002807D00020215C49063C
:10391000490E2154401C0328F8D3FEBD1447001063
:1039200070B547491020474C0860E0880026002801
:1039300007D0332807D051286DD0E680A68002201A
:1039400070BD3320E0801020FDF74EFD0004000C18
:10395000A08073D03C48A1783B4D405C491C0007D7
:10396000000F0907090FE0701035A17000281AD068
:1039700001281BD002281DD003281ED0042821D0E6
:10398000052822D0062825D0072828D0FEF766FD76
:10399000E6702078E1780143083000062970000EB7
:1039A000207023D024E03C22284901E02849372216
:1039B000681C18E028222749FAE7264928222831DE
:1039C000681C10E03C222449F2E723493C223C31A8
:1039D000681C08E020493C227831681C03E01E493D
:1039E0003C22B431681CFDF768FBD2E70820207048
:1039F00015483E211030FDF7B1FC13493F2230310C
:103A0000887720391548FEF7F8FB5120E0801448EC
:103A100000680009E0601020FDF7E6FC0546022181
:103A2000E068FDF7EBFC05432804000CA08005D0FE
:103A30006078A17888428DD183E7FFE7042070BDCC
:103A40006402002068020020001A002020150020D7
:103A500010190020D0170020201800201404002086
:103A600054020020F3B5364881B0814202D2491C8D
:103A70008EB200E00126FF22541C21463148FDF79A
:103A80003CFB72B63048216888472E4F044601201F
:103A90003D460004C035844220D1019838803C4620
:103AA0007E803C222949381DFDF707FB3846372226
:103AB00027494030FDF701FB384650222549783030
:103AC000FDF7FBFAC421201DFDF72CFC2881FF2007
:103AD000013042681C49384690470446FF22511C79
:103AE0001848FDF70AFB01200004844204D10012AB
:103AF000016819488847044601200004844214D113
:103B0000019838803C467E80F0221449381DFDF72C
:103B1000D4FAF021201DFDF705FCA886FF20013016
:103B200042680D490748904704460120000484423A
:103B300001D1012000E000200949087062B6FEBDF5
:103B4000FFFF0000501A0020004E0010201500203A
:103B500010190020D0170020004F0010201800205E
:103B6000B202002010B50B784A788978FEF720FA67
:103B700010BDFFFFF8B5074608790D46410046180D
:103B8000E878410040180090E87841004118144856
:103B90004418002F04D1032221461248FDF78DFA64
:103BA0000098E11C321A2046FDF787FA002F0FD04B
:103BB00028790D490A5C002A09D05031085C41007F
:103BC0004118074809188019C01EFFF73FFCF8BDCF
:103BD0000348032280190349FDF76FFAF8BD00007E
:103BE00020180020C601002047190020F8B507461C
:103BF00008790E4641004518F07841004418002F1E
:103C000005D11148032241191048FDF756FA2A1B25
:103C10000D4D29190C46C81CFDF74FFA002F0DD089
:103C2000F0780B490A5C002A07D05031085C41004B
:103C300040184119E01CFFF709FCF8BD204603229B
:103C40000249FDF73AFAF8BD20180020C301002010
:103C500047190020F8B5A7490420A74C086020891F
:103C6000FF218D31421AA54FA54E88427ED009DC36
:103C7000002811D0FF38353816D021286AD05228B4
:103C800006D1BEE0062A72D00C2A71D0112A58D073
:103C900000202081E0801CE1FEF78EFEFF20353001
:103CA000208138680009E0630420FDF79DFB05468C
:103CB0006421E06BFDF7A2FB05432804000CE080C3
:103CC0007ED00220FF25205E0135FF30296A1230A8
:103CD000884700B26081002814D16088801C00B23F
:103CE0006080FF30296A1230884700B26081002866
:103CF00008D16088801C00B26080FF30296A1230D1
:103D0000884760810420205E296AFF30123088478E
:103D100000B2A081002814D1A088801C00B2A0802D
:103D2000FF30296A1230884700B2A081002808D1EC
:103D3000A088801C00B2A080FF30296A123088471A
:103D4000A081FDF71BFBA063FF205630208138685F
:103D50000009E0630420FDF747FB05466421E06BA2
:103D6000FDF74CFB05432804000C02E06FE097E0F0
:103D7000B1E0E0807DD0FFF7CFF8A16B4518614836
:103D8000A5630078002801D0FF35AF355E485F4954
:103D90000068096840185E4909684018C021484316
:103DA0005C49FDF76DF975210901081A616B8842BC
:103DB00001D2491E6163884201D9491C616300E058
:103DC00057E075200001814203D86920000181423B
:103DD00001D2606300E0606B05214543E80AFF30D3
:103DE000C1304902A06340184B49884201D30120E9
:103DF00000E000202070FF20873020813868000913
:103E0000E0630420FDF7F0FA05466421E06BFDF75E
:103E1000F5FA05432804000CE0802AD07079317946
:103E2000000600140843C117090F09180911401AA8
:103E3000A16BCA17120F5118091140183071000AEE
:103E40007071FF208D30208138680009E063042004
:103E5000FDF7CAFA05466421E06BFDF7CFFA05438A
:103E60002804000CE08004D02C48417A002902D0BC
:103E700009E00420F8BD717932790906091411436B
:103E80000173090A4173417B007B09060914014350
:103E90001948E181133000F0C5FAFF20933017E094
:103EA0001E48C17B002907D17179327909060914AE
:103EB00011438174090AC174C17C807C090609140C
:103EC00001430D48E181163000F0ACFAFF20993033
:103ED00020810220F8BD1148417E007E09060914A8
:103EE00001430548E181103000F09CFAFF209E302C
:103EF000EEE7000064020020B80200205402002017
:103F000079020020B0020020E0010020E40100203E
:103F1000E8010020D02F00000169000020150020DA
:103F200030B54268526A007FC240D0070D4AC00FC8
:103F300050540D488069FD22D201101A0B4BC20A61
:103F400009010B485D581C460C190068002D02D071
:103F50001043A06001E0104360605858401C585066
:103F600030BD0000A001002000E000E09815002016
:103F700054020020F0B5002089B007460646102400
:103F80000546069029488078002806D02748032255
:103F900027491730FDF791F821E026482649005DB2
:103FA0000190085C009001980322410041182148CB
:103FB000503009181D481730FDF77FF80098002889
:103FC0000DD01D4901985031085C009A41004118FC
:103FD00018485030091815481730FFF737FA1349B9
:103FE00020461731FFF7BEFD202D09DA0F4806994C
:103FF000173002785118069141788078CF198619C8
:10400000641C6D1C502CBDDB084806998763C66391
:104010004163FFF7DFFA002805D1FFF7DBFA00283C
:1040200001D1FFF7D7FA09B0F0BD0000B8010020B8
:1040300010470010D017002047190020F8B505469A
:1040400006204F4B6843C618344609344D4F707AEA
:10405000022D06D0012829D0032827D0052825D0F5
:1040600029E0484980071631800F05D0012805D086
:10407000022819D0002020708C2000E0BF20607141
:10408000987E4870987E087100206070A0708870DB
:10409000C87020780870B87E3B494843FF217F30C4
:1040A000FCF7D8FF044666E0FF20E8E7FF79002F21
:1040B0000BD0012812D0002809D0012847D8087851
:1040C000000290420DDB48783CE0002020702D4833
:1040D00082794079120612140243F0E70C22B25E94
:1040E000EDE7DE7E700040182038837F1B0293428C
:1040F00001DCC07F26E0012027E04300CB5C1B02EF
:104100009A4203D14000401840781BE09A421BDAE3
:10411000400040180646203EB17F40780F02D91B70
:1041200010D0F67FD21B801B5043CA0F521852107A
:104130001018FCF7A5FF801901D5002002E0FF2828
:1041400000DDFF20607102E0401C8642D5DC28467D
:1041500000F086F80C490C1A002D04D0012D06D071
:10416000022D0CD107E021460848FDF7F9FB214656
:104170000748FDF7F5FB21460648FDF7F1FBF8BDC2
:10418000201500207802002010270000780300206E
:10419000A003002050030020F0B5002787B03E4662
:1041A0003D463C4628488078002806D02648032211
:1041B00026491430FCF781FF21E025482549005DA0
:1041C0000190085C009001980322410041182048AA
:1041D000503009181C481430FCF76FFF0098002875
:1041E0000DD01C4901985031085C009A41004118DB
:1041F00017485030091814481430FFF727F91248AF
:1042000014300178C9198FB24178807889198EB23B
:1042100040190D4985B214312046FFF7A3FC641CF8
:10422000102CBFDB084800218762C66205630A487C
:10423000C943416400210160014624220748FDF77B
:1042400014FE07B0F0BD0000B801002010470010B8
:10425000D017002047190020C816002008040020AD
:10426000F0B50746062039464143674887B00D1828
:10427000F900CA1B6549FF24511808310091C17823
:104280006348A4004143224601A80935FCF70CFF0E
:104290005D483901783009188889029A019E801892
:1042A00000B28881A04202DD001B8881761C009844
:1042B00029780170009869794170A9786A780902B3
:1042C0001143009A681C9170090AD1707900514A13
:1042D0000591545A29780391042911D005290FD04A
:1042E00068794B494843FF21FCF7B4FE039909065E
:1042F000090F0A2921D0811BA14220DDA41922E047
:10430000444AB900921D5158434A91421BD0427809
:104310000378100218430246963A8A42EEDC421FA6
:104320008A4201DD241D0EE0024696328A4209DBF4
:10433000401D884207DA241F05E0044603E0811986
:10434000A142FADAA41B324D022F13D02F482F4F6F
:1043500082794179100600140843797F002900D042
:1043600001216A46117428498A791202824206DCC8
:10437000012209E02948844234DA044635E04A79CA
:104380001202824202DD00226B461A746A46127CD7
:104390007D263601002A1AD00B7A1A02824201DAEF
:1043A000284610E0C9790A0282420BDA591A09023A
:1043B00000D54942801A7D2292015043FCF760FEED
:1043C000801900E03046844209DA044607E0039889
:1043D000022801D0042802D1B44200DA34466846EB
:1043E000017C7977AC4200DD2C462002011B0C4891
:1043F00008182946FCF744FE0099064A08710599F9
:10440000A0B2505207B0F0BD201500207802002065
:1044100010270000A6010020FFFFFF7F721500009B
:1044200088130000F3B5214D0C46E8792E460002B2
:10443000083681B0A04214DD0322291D0198FCF743
:104440003CFEE9780802A04228DAEA79201A511ADB
:10445000CA0F521852101018FCF712FEC2B23146A1
:1044600019E0E87A114F00020C37A04217DD032251
:1044700031460198FCF721FEE9790802A0420DDAE5
:10448000EA7A201A511ACA0F521852101018FCF763
:10449000F7FDC2B239460198FEF7D8FFFEBD0322F0
:1044A00039460198FCF709FEFEBD000010190020F6
:1044B0000A4A1018C07B50280ED242008018074AC2
:1044C000C0B20B78F03A1354401CC0B24B7813546E
:1044D000401CC0B2897811547047000010190020A8
:1044E000F8B530492020304C0860A08800252F4EB8
:1044F000002807D00C280AD0222843D0A580658048
:104500000220F8BD0C20A08030680009A0602020A7
:10451000FCF76AFF074626493AE02649C879002891
:1045200001D0401EC871244F3878002808D0FDF70C
:1045300033FD002804D0FDF70BFC002800D03D70AF
:104540003878002811D11D48807800280DD11C48EA
:104550000068032809D0207800280BD0401E207066
:10456000C0B2042806D9012005E020780F28F7D230
:10457000401CF4E70020134908702220A080306816
:104580000009A0602020FCF72FFF7D210746C9000D
:10459000A068FCF733FF07433804000C6080BCD1EF
:1045A0000420F8BD64020020F8020020540200201C
:1045B000B414000078020020B1020020980100200D
:1045C00050020020BA010020F0B50127154ABF05AE
:1045D00040251346013924D40478012630442406AA
:1045E000082600BF00BF00BFBFF36F8F64001F60CD
:1045F000BFF36F8F00BF00BF00BF00BF00D21560C8
:1046000000BFBFF36F8F013E1560E3D000BF00BF56
:10461000BFF36F8FBFF36F8F00BF00BF00BF00BF3E
:10462000E4E7F0BD040004401400FF05002D32371C
:104630004100E80300003300E80300003301CA082A
:104640000000BF0719331A4D1B781DA11FB821D9CF
:1046500023FF19331A4D1B781DA11FB821D923FF41
:104660000000000000FF0019FF00002800FF0041CB
:104670000000FFFFFFFFFFFF096606000B000000C0
:10468000000000000000000000000000000000002A
:10469000000000000000FF050000000A01040705FB
:1046A000060708090A0B00010203040104070A01B6
:1046B00004070A00000000000000000000000000E5
:1046C00000000000000000000000000000000000EA
:1046D00000000000000000000000000000000000DA
:1046E000000000000000000000000000FF0E7F7FBF
:1046F00000FA0006DB0032D70058F600769400B4CA
:104700000000FF004AFF0094FF00DFFF00FFAAFF48
:104710000000FF000000FF0055AA00AAAA00FF0049
:1047200055AA00FF0000AA00555500AA0000FFFF8F
:104730001F00000000000081040300203447001027
:104740000F00000003000000050000000000000052
:1047500010000000000000002803002000020440B8
:10476000080000000001000000000100000000003F
:10477000000004408000000001000000050000006F
:1047800000000440000000000000000000000000E5
:10479000000004408000000000000100060000004E
:1047A0000000000000000000000000000000000009
:1047B000000000000006014000020440100000005C
:1047C00000000000000000002D01000005030002B1
:1047D000000100000006014000020440100000003B
:1047E00000000000000000001D01000004030301A0
:1047F0000901000000060140000204401000000012
:1048000000000000010000000D0000000303020092
:104810000601000060BB8151C0B3309EBAF10100B7
:10482000144800100100000000000000000001001A
:104830000000010000000100A000000000000100D5
:1048400001008D0571040000000000000000000060
:10485000000000002C4800103048001034480010C0
:104860000000000000000000000000000000000147
:1048700000000000000000082448001001000000B3
:1048800000000440070000003848001040030020EA
:104890000100000000000000000001000000010015
:1048A00000000100A00000000000010001008D05D3
:1048B0001C010000000000000000000000000000DB
:1048C000984800109C480010A0480010000000000C
:1048D00000000000000000000000000100000000D7
:1048E000000000209048001001000000000004407B
:1048F00009000000A448001040030020010000004F
:1049000000000000000001000000010000000100A4
:10491000A00000000000010001008D051C01000046
:10492000000000000000000000000000044900102A
:10493000084900100C4900100000000000000000B1
:104940000000000000000001000000000000001056
:10495000FC480010010000000000044008000000B6
:104960001049001040030020000204400A0000002B
:10497000000204400B000000B00000000100000035
:104980000000000000000000D8030020751B00108C
:1049900068490010C803002000000000000000006B
:1049A0000000000000000000000000000000000007
:1049B000704900107849001000000000000000005D
:1049C00000000000000000000000000000000000E7
:1049D00000000000000000000000000000000000D7
:1049E00000000000000000000000000000000000C7
:1049F00000000000000000000000000000000000B7
:104A0000000000000000000000000080020205001D
:104A100001000000B00000000100000010000000D4
:104A2000010000000008070000080801080000005D
:104A3000000004400F000000144A0010244A001037
:104A4000C520001035170010000000000000000015
:104A5000000000000000000000000000304A0010CC
:104A60000002000006000000884A0010000000203C
:104A70002004000044110010CC4B00102004002042
:104A800068380000882E00108D2F48FEE70411CAF8
:104A90004710E904A920290C091E0409262C091233
:104AA00068091A208904413201320213431033107D
:104AB00004320532063207320832095A0A20320C13
:104AC0005A0D0C1355202A1008690413F1161410FE
:104AD00001171B101104291032175A182CCB61230F
:104AE0002C29044BA924083221322232235A2430A3
:104AF000A9043229322A322B322C322D322E0214C2
:104B00002F0214502BD007026DFFFFFF7F04812B73
:104B10000101FEE119200238FF0935393CFFFF038E
:104B20000111021703F20833111F023C14120F0A7D
:104B30001F5A952BFF7F043C33FAFFD7A35007A9D8
:104B4000A8135447121022011A38081A48041A30C0
:104B500004132C032B204018311B02041D194E3A5C
:104B6000A0108303482A02172C90D00307213A048F
:104B7000182B404824190C1A0204191929412A201B
:104B800018B11AD4886AAC281A0404298D0911298D
:104B900023421F5B1849282A035431296D2908CA6A
:104BA00004285AB81B817CD0DD062539C501174C75
:104BB0000507053A12021B48886C1AE4F8311448BC
:104BC0003C4A1410501B020020000000FFFFFFFFB2
:104BD000FFFFFFFFFFFFFFFFFFFFFFFFFFFFFFFFE5
:104BE000FFFFFFFFFFFFFFFFFFFFFFFFFFFFFFFFD5
:104BF000FFFFFFFFFFFFFFFFFFFFFFFFFFFFFFFFC5
:104C0000FFFFFFFFFFFFFFFFFFFFFFFFFFFFFFFFB4
:044E0000290CDEC0DB
:0400000510001019BE
:00000001FF
